{
  "cache/solpp-generated-contracts/v1/AddressList.sol": {
    "AddressList": {
      "abi": [
        {
          "anonymous": false,
          "inputs": [
            {
              "indexed": true,
              "internalType": "address",
              "name": "newAdmin",
              "type": "address"
            }
          ],
          "name": "AdminChanged",
          "type": "event"
        },
        {
          "anonymous": false,
          "inputs": [
            {
              "indexed": true,
              "internalType": "address",
              "name": "newAdmin",
              "type": "address"
            }
          ],
          "name": "AdminChanging",
          "type": "event"
        },
        {
          "anonymous": false,
          "inputs": [
            {
              "indexed": true,
              "internalType": "address",
              "name": "addr",
              "type": "address"
            },
            {
              "indexed": false,
              "internalType": "enum AddressList.Direction",
              "name": "d",
              "type": "uint8"
            }
          ],
          "name": "BlackAddrAdded",
          "type": "event"
        },
        {
          "anonymous": false,
          "inputs": [
            {
              "indexed": true,
              "internalType": "address",
              "name": "addr",
              "type": "address"
            },
            {
              "indexed": false,
              "internalType": "enum AddressList.Direction",
              "name": "d",
              "type": "uint8"
            }
          ],
          "name": "BlackAddrRemoved",
          "type": "event"
        },
        {
          "anonymous": false,
          "inputs": [
            {
              "indexed": true,
              "internalType": "address",
              "name": "addr",
              "type": "address"
            }
          ],
          "name": "DeveloperAdded",
          "type": "event"
        },
        {
          "anonymous": false,
          "inputs": [
            {
              "indexed": true,
              "internalType": "address",
              "name": "addr",
              "type": "address"
            }
          ],
          "name": "DeveloperRemoved",
          "type": "event"
        },
        {
          "anonymous": false,
          "inputs": [
            {
              "indexed": true,
              "internalType": "bool",
              "name": "newState",
              "type": "bool"
            }
          ],
          "name": "EnableStateChanged",
          "type": "event"
        },
        {
          "anonymous": false,
          "inputs": [
            {
              "indexed": true,
              "internalType": "bytes32",
              "name": "eventSig",
              "type": "bytes32"
            },
            {
              "indexed": false,
              "internalType": "uint128",
              "name": "checkIdx",
              "type": "uint128"
            },
            {
              "indexed": false,
              "internalType": "enum AddressList.CheckType",
              "name": "t",
              "type": "uint8"
            }
          ],
          "name": "RuleAdded",
          "type": "event"
        },
        {
          "anonymous": false,
          "inputs": [
            {
              "indexed": true,
              "internalType": "bytes32",
              "name": "eventSig",
              "type": "bytes32"
            },
            {
              "indexed": false,
              "internalType": "uint128",
              "name": "checkIdx",
              "type": "uint128"
            },
            {
              "indexed": false,
              "internalType": "enum AddressList.CheckType",
              "name": "t",
              "type": "uint8"
            }
          ],
          "name": "RuleRemoved",
          "type": "event"
        },
        {
          "anonymous": false,
          "inputs": [
            {
              "indexed": true,
              "internalType": "bytes32",
              "name": "eventSig",
              "type": "bytes32"
            },
            {
              "indexed": false,
              "internalType": "uint128",
              "name": "checkIdx",
              "type": "uint128"
            },
            {
              "indexed": false,
              "internalType": "enum AddressList.CheckType",
              "name": "t",
              "type": "uint8"
            }
          ],
          "name": "RuleUpdated",
          "type": "event"
        },
        {
          "inputs": [
            {
              "internalType": "address",
              "name": "a",
              "type": "address"
            },
            {
              "internalType": "enum AddressList.Direction",
              "name": "d",
              "type": "uint8"
            }
          ],
          "name": "addBlacklist",
          "outputs": [],
          "stateMutability": "nonpayable",
          "type": "function"
        },
        {
          "inputs": [
            {
              "internalType": "address",
              "name": "addr",
              "type": "address"
            }
          ],
          "name": "addDeveloper",
          "outputs": [],
          "stateMutability": "nonpayable",
          "type": "function"
        },
        {
          "inputs": [
            {
              "internalType": "bytes32",
              "name": "sig",
              "type": "bytes32"
            },
            {
              "internalType": "uint128",
              "name": "checkIdx",
              "type": "uint128"
            },
            {
              "internalType": "enum AddressList.CheckType",
              "name": "tp",
              "type": "uint8"
            }
          ],
          "name": "addOrUpdateRule",
          "outputs": [
            {
              "internalType": "bool",
              "name": "",
              "type": "bool"
            }
          ],
          "stateMutability": "nonpayable",
          "type": "function"
        },
        {
          "inputs": [],
          "name": "admin",
          "outputs": [
            {
              "internalType": "address",
              "name": "",
              "type": "address"
            }
          ],
          "stateMutability": "view",
          "type": "function"
        },
        {
          "inputs": [],
          "name": "blackLastUpdatedNumber",
          "outputs": [
            {
              "internalType": "uint256",
              "name": "",
              "type": "uint256"
            }
          ],
          "stateMutability": "view",
          "type": "function"
        },
        {
          "inputs": [
            {
              "internalType": "address",
              "name": "newAdmin",
              "type": "address"
            }
          ],
          "name": "commitChangeAdmin",
          "outputs": [],
          "stateMutability": "nonpayable",
          "type": "function"
        },
        {
          "inputs": [],
          "name": "confirmChangeAdmin",
          "outputs": [],
          "stateMutability": "nonpayable",
          "type": "function"
        },
        {
          "inputs": [],
          "name": "devVerifyEnabled",
          "outputs": [
            {
              "internalType": "bool",
              "name": "",
              "type": "bool"
            }
          ],
          "stateMutability": "view",
          "type": "function"
        },
        {
          "inputs": [],
          "name": "disableDevVerify",
          "outputs": [],
          "stateMutability": "nonpayable",
          "type": "function"
        },
        {
          "inputs": [],
          "name": "enableDevVerify",
          "outputs": [],
          "stateMutability": "nonpayable",
          "type": "function"
        },
        {
          "inputs": [],
          "name": "getBlacksFrom",
          "outputs": [
            {
              "internalType": "address[]",
              "name": "",
              "type": "address[]"
            }
          ],
          "stateMutability": "view",
          "type": "function"
        },
        {
          "inputs": [],
          "name": "getBlacksTo",
          "outputs": [
            {
              "internalType": "address[]",
              "name": "",
              "type": "address[]"
            }
          ],
          "stateMutability": "view",
          "type": "function"
        },
        {
          "inputs": [
            {
              "internalType": "uint32",
              "name": "i",
              "type": "uint32"
            }
          ],
          "name": "getRuleByIndex",
          "outputs": [
            {
              "internalType": "bytes32",
              "name": "",
              "type": "bytes32"
            },
            {
              "internalType": "uint128",
              "name": "",
              "type": "uint128"
            },
            {
              "internalType": "enum AddressList.CheckType",
              "name": "",
              "type": "uint8"
            }
          ],
          "stateMutability": "view",
          "type": "function"
        },
        {
          "inputs": [
            {
              "internalType": "bytes32",
              "name": "sig",
              "type": "bytes32"
            },
            {
              "internalType": "uint128",
              "name": "checkIdx",
              "type": "uint128"
            }
          ],
          "name": "getRuleByKey",
          "outputs": [
            {
              "internalType": "bytes32",
              "name": "",
              "type": "bytes32"
            },
            {
              "internalType": "uint128",
              "name": "",
              "type": "uint128"
            },
            {
              "internalType": "enum AddressList.CheckType",
              "name": "",
              "type": "uint8"
            }
          ],
          "stateMutability": "view",
          "type": "function"
        },
        {
          "inputs": [
            {
              "internalType": "address",
              "name": "_admin",
              "type": "address"
            }
          ],
          "name": "initialize",
          "outputs": [],
          "stateMutability": "nonpayable",
          "type": "function"
        },
        {
          "inputs": [],
          "name": "initializeV2",
          "outputs": [],
          "stateMutability": "nonpayable",
          "type": "function"
        },
        {
          "inputs": [],
          "name": "initialized",
          "outputs": [
            {
              "internalType": "bool",
              "name": "",
              "type": "bool"
            }
          ],
          "stateMutability": "view",
          "type": "function"
        },
        {
          "inputs": [
            {
              "internalType": "address",
              "name": "a",
              "type": "address"
            }
          ],
          "name": "isBlackAddress",
          "outputs": [
            {
              "internalType": "bool",
              "name": "",
              "type": "bool"
            },
            {
              "internalType": "enum AddressList.Direction",
              "name": "",
              "type": "uint8"
            }
          ],
          "stateMutability": "view",
          "type": "function"
        },
        {
          "inputs": [
            {
              "internalType": "address",
              "name": "addr",
              "type": "address"
            }
          ],
          "name": "isDeveloper",
          "outputs": [
            {
              "internalType": "bool",
              "name": "",
              "type": "bool"
            }
          ],
          "stateMutability": "view",
          "type": "function"
        },
        {
          "inputs": [],
          "name": "pendingAdmin",
          "outputs": [
            {
              "internalType": "address",
              "name": "",
              "type": "address"
            }
          ],
          "stateMutability": "view",
          "type": "function"
        },
        {
          "inputs": [
            {
              "internalType": "address",
              "name": "a",
              "type": "address"
            },
            {
              "internalType": "enum AddressList.Direction",
              "name": "d",
              "type": "uint8"
            }
          ],
          "name": "removeBlacklist",
          "outputs": [],
          "stateMutability": "nonpayable",
          "type": "function"
        },
        {
          "inputs": [
            {
              "internalType": "address",
              "name": "addr",
              "type": "address"
            }
          ],
          "name": "removeDeveloper",
          "outputs": [],
          "stateMutability": "nonpayable",
          "type": "function"
        },
        {
          "inputs": [
            {
              "internalType": "bytes32",
              "name": "sig",
              "type": "bytes32"
            },
            {
              "internalType": "uint128",
              "name": "checkIdx",
              "type": "uint128"
            }
          ],
          "name": "removeRule",
          "outputs": [
            {
              "internalType": "bool",
              "name": "",
              "type": "bool"
            }
          ],
          "stateMutability": "nonpayable",
          "type": "function"
        },
        {
          "inputs": [],
          "name": "rulesLastUpdatedNumber",
          "outputs": [
            {
              "internalType": "uint256",
              "name": "",
              "type": "uint256"
            }
          ],
          "stateMutability": "view",
          "type": "function"
        },
        {
          "inputs": [],
          "name": "rulesLen",
          "outputs": [
            {
              "internalType": "uint32",
              "name": "",
              "type": "uint32"
            }
          ],
          "stateMutability": "view",
          "type": "function"
        }
      ],
      "evm": {
        "bytecode": {
          "linkReferences": {},
          "object": "608060405234801561001057600080fd5b506120ed806100206000396000f3fe608060405234801561001057600080fd5b50600436106101735760003560e01c80635cd8a76b116100de578063abbcbd3a11610097578063db6619b011610071578063db6619b0146104c1578063f851a440146104c9578063fb48270c146104d1578063ff0617df146104d957610173565b8063abbcbd3a14610455578063c4d66de81461046f578063cec0705a1461049557610173565b80635cd8a76b146103955780635eca4a701461039d5780636dfb5176146103c357806370b03fc5146103f257806389449301146103fa5780639e23c2091461042f57610173565b8063327564b611610130578063327564b6146102ec578063349cb711146102f4578063367f8a581461032357806343e0c73a146103445780634f608dd31461034c5780634fb9e9b71461036f57610173565b80630c47632714610178578063143d79b6146101dc578063158ef93e1461022c57806318c662121461024857806322fbf1e8146102a057806326782247146102c8575b600080fd5b6101a46004803603604081101561018e57600080fd5b50803590602001356001600160801b03166104e1565b60405180848152602001836001600160801b031681526020018260038111156101c957fe5b8152602001935050505060405180910390f35b610202600480360360208110156101f257600080fd5b50356001600160a01b03166105c7565b60405180831515815260200182600281111561021a57fe5b81526020019250505060405180910390f35b610234610649565b604080519115158252519081900360200190f35b610250610652565b60408051602080825283518183015283519192839290830191858101910280838360005b8381101561028c578181015183820152602001610274565b505050509050019250505060405180910390f35b6102c6600480360360208110156102b657600080fd5b50356001600160a01b03166106b4565b005b6102d06107b0565b604080516001600160a01b039092168252519081900360200190f35b6102346107bf565b6102c66004803603604081101561030a57600080fd5b5080356001600160a01b0316906020013560ff166107cd565b61032b610a00565b6040805163ffffffff9092168252519081900360200190f35b6102c6610a06565b6101a46004803603602081101561036257600080fd5b503563ffffffff16610adc565b6102c66004803603602081101561038557600080fd5b50356001600160a01b0316610bcb565b6102c6610c67565b610234600480360360208110156103b357600080fd5b50356001600160a01b03166110b6565b6102c6600480360360408110156103d957600080fd5b5080356001600160a01b0316906020013560ff166110d4565b6102506113cb565b6102346004803603606081101561041057600080fd5b5080359060208101356001600160801b0316906040013560ff1661142b565b6102c66004803603602081101561044557600080fd5b50356001600160a01b03166117b1565b61045d6118ab565b60408051918252519081900360200190f35b6102c66004803603602081101561048557600080fd5b50356001600160a01b03166118b1565b610234600480360360408110156104ab57600080fd5b50803590602001356001600160801b0316611930565b6102c6611d14565b6102d0611def565b6102c6611e04565b61045d611ebe565b6000828152600a602090815260408083206001600160801b038516845290915281205481908190801580159061051957506009548111155b156105b457610526612059565b6009600183038154811061053657fe5b60009182526020918290206040805160608101825260029093029091018054835260018101546001600160801b0381169484019490945291929083019060ff600160801b90910416600381111561058957fe5b600381111561059457fe5b9052508051602082015160409092015190965090945092506105c0915050565b50600092508291508190505b9250925092565b6001600160a01b038116600090815260056020908152604080832054600690925282205482911580159115159082906105fd5750805b156106115760016002935093505050610644565b81156106265760016000935093505050610644565b801561063a57600180935093505050610644565b6000809350935050505b915091565b60005460ff1681565b606060038054806020026020016040519081016040528092919081815260200182805480156106aa57602002820191906000526020600020905b81546001600160a01b0316815260019091019060200180831161068c575b5050505050905090565b6000546201000090046001600160a01b03163314610706576040805162461bcd60e51b815260206004820152600a60248201526941646d696e206f6e6c7960b01b604482015290519081900360640190fd5b6001600160a01b03811660009081526002602052604090205460ff1615610764576040805162461bcd60e51b815260206004820152600d60248201526c185b1c9958591e481859191959609a1b604482015290519081900360640190fd5b6001600160a01b038116600081815260026020526040808220805460ff19166001179055517f058fdae480ed8e99b762bceb2d39835a68ee3a4789cd84e5c90cd59722ba02099190a250565b6001546001600160a01b031681565b600054610100900460ff1681565b6000546201000090046001600160a01b0316331461081f576040805162461bcd60e51b815260206004820152600a60248201526941646d696e206f6e6c7960b01b604482015290519081900360640190fd5b600281600281111561082d57fe5b141561090e576001600160a01b038216600090815260056020526040902054610890576040805162461bcd60e51b815260206004820152601060248201526f1b9bdd081a5b88199c9bdb481b1a5cdd60821b604482015290519081900360640190fd5b6001600160a01b0382166000908152600660205260409020546108eb576040805162461bcd60e51b815260206004820152600e60248201526d1b9bdd081a5b881d1bc81b1a5cdd60921b604482015290519081900360640190fd5b6108fa60036005846000611ec4565b61090960046006846001611ec4565b6109f8565b600081600281111561091c57fe5b141561098e576001600160a01b03821660009081526005602052604090205461097f576040805162461bcd60e51b815260206004820152601060248201526f1b9bdd081a5b88199c9bdb481b1a5cdd60821b604482015290519081900360640190fd5b61090960036005846000611ec4565b6001600160a01b0382166000908152600660205260409020546109e9576040805162461bcd60e51b815260206004820152600e60248201526d1b9bdd081a5b881d1bc81b1a5cdd60921b604482015290519081900360640190fd5b6109f860046006846001611ec4565b505043600755565b60095490565b6000546201000090046001600160a01b03163314610a58576040805162461bcd60e51b815260206004820152600a60248201526941646d696e206f6e6c7960b01b604482015290519081900360640190fd5b600054610100900460ff16610aa7576040805162461bcd60e51b815260206004820152601060248201526f185b1c9958591e48191a5cd8589b195960821b604482015290519081900360640190fd5b6000805461ff00191681556040517f733a7f99819dc7466bff56e7c0b6753b43b750a692f2a5bb4fe373815a0c7845908290a2565b60008060006009805490508463ffffffff1610610b35576040805162461bcd60e51b8152602060048201526012602482015271696e646578206f7574206f662072616e676560701b604482015290519081900360640190fd5b610b3d612059565b60098563ffffffff1681548110610b5057fe5b60009182526020918290206040805160608101825260029093029091018054835260018101546001600160801b0381169484019490945291929083019060ff600160801b909104166003811115610ba357fe5b6003811115610bae57fe5b905250805160208201516040909201519097919650945092505050565b6000546201000090046001600160a01b03163314610c1d576040805162461bcd60e51b815260206004820152600a60248201526941646d696e206f6e6c7960b01b604482015290519081900360640190fd5b600180546001600160a01b0319166001600160a01b0383169081179091556040517faefcaa6215f99fe8c2f605dd268ee4d23a5b596bbca026e25ce8446187f4f1ba90600090a250565b60085415610cbc576040805162461bcd60e51b815260206004820152601e60248201527f4f6e6c7920696e697469616c697a65206265666f726520616e79207573650000604482015290519081900360640190fd5b60075415610d11576040805162461bcd60e51b815260206004820152601e60248201527f4f6e6c7920696e697469616c697a65206265666f726520616e79207573650000604482015290519081900360640190fd5b7fddf252ad1be2c89b69c2b068fc378daa952ba7f163c4a11628f55a4df523b3ef6001610d3c612059565b50604080516060810182528381526001600160801b0383811660208301908152600193830184815260098054958601815560005283516000805160206120988339815191526002909602958601908155915160008051602061207883398151915290950180546001600160801b031916959093169490941780835593519293849391929060ff60801b1916600160801b836003811115610dd857fe5b021790555050600980546000958652600a602090815260408088206001600160801b039788168952825280882083905580516060810182527f06b541ddaa720db2b10a4d0cdac39b8d360425fc073085fac19bc82614677987808252600293820184815260019383018481529386018755959099528051600080516020612098833981519152948402948501908155945160008051602061207883398151915290940180546001600160801b03191694909816939093178088559051919692955085945090919060ff60801b1916600160801b836003811115610eb757fe5b021790555050600980546000958652600a602090815260408088206001600160801b03888116808b52918452828a2085905582516060810184527fc3d58168c5ae7397731d063d5bbf3d657854427343f4c083240f7aacaa2d0f62808252948101928352600193810184815293860187559590995284516002909402600080516020612098833981519152810194855590516000805160206120788339815191529091018054919099166001600160801b031990911617808955905191979395508594509192909160ff60801b1916600160801b836003811115610f9757fe5b021790555050600980546000958652600a602090815260408088206001600160801b03888116808b52918452828a2085905582516060810184527f4a39dc06d4c0dbc64b70af90fd698a233a518aa5d07e595d983b8c0526c8f7fb808252948101928352600193810184815293860187559590995284516002909402600080516020612098833981519152810194855590516000805160206120788339815191529091018054919099166001600160801b031990911617808955905191979395508594509192909160ff60801b1916600160801b83600381111561107757fe5b0217905550506009546000948552600a602090815260408087206001600160801b03909616875294905292909320919091555050436007819055600855565b6001600160a01b031660009081526002602052604090205460ff1690565b6000546201000090046001600160a01b03163314611126576040805162461bcd60e51b815260206004820152600a60248201526941646d696e206f6e6c7960b01b604482015290519081900360640190fd5b6000546001600160a01b038381166201000090920416141561118f576040805162461bcd60e51b815260206004820152601d60248201527f63616e6e6f74206164642061646d696e20746f20626c61636b6c697374000000604482015290519081900360640190fd5b600281600281111561119d57fe5b1415611284576001600160a01b03821660009081526005602052604090205415611205576040805162461bcd60e51b8152602060048201526014602482015273185b1c9958591e481a5b88199c9bdb481b1a5cdd60621b604482015290519081900360640190fd5b6001600160a01b03821660009081526006602052604090205415611265576040805162461bcd60e51b8152602060048201526012602482015271185b1c9958591e481a5b881d1bc81b1a5cdd60721b604482015290519081900360640190fd5b6112726003600584612016565b61127f6004600684612016565b611374565b600081600281111561129257fe5b1415611307576001600160a01b038216600090815260056020526040902054156112fa576040805162461bcd60e51b8152602060048201526014602482015273185b1c9958591e481a5b88199c9bdb481b1a5cdd60621b604482015290519081900360640190fd5b61127f6003600584612016565b6001600160a01b03821660009081526006602052604090205415611367576040805162461bcd60e51b8152602060048201526012602482015271185b1c9958591e481a5b881d1bc81b1a5cdd60721b604482015290519081900360640190fd5b6113746004600684612016565b43600781905550816001600160a01b03167f4bb8845da5ed7c2df200814ba7a0f3db11326cc817cf9a042fa54d4e5f6f29bb82604051808260028111156113b757fe5b815260200191505060405180910390a25050565b606060048054806020026020016040519081016040528092919081815260200182805480156106aa576020028201919060005260206000209081546001600160a01b0316815260019091019060200180831161068c575050505050905090565b600080546201000090046001600160a01b0316331461147e576040805162461bcd60e51b815260206004820152600a60248201526941646d696e206f6e6c7960b01b604482015290519081900360640190fd5b836114d0576040805162461bcd60e51b815260206004820152601d60248201527f6576656e745369676e6174757265206d757374206e6f7420656d707479000000604482015290519081900360640190fd5b6000836001600160801b03161161152e576040805162461bcd60e51b815260206004820152601f60248201527f636865636b20696e646578206d7573742067726561746572207468616e203000604482015290519081900360640190fd5b600082600381111561153c57fe5b1180156115555750600382600381111561155257fe5b11155b61159b576040805162461bcd60e51b8152602060048201526012602482015271696e76616c696420636865636b207479706560701b604482015290519081900360640190fd5b6000848152600a602090815260408083206001600160801b03871684529091529020548015611665576000600960018303815481106115d657fe5b90600052602060002090600202019050838160010160106101000a81548160ff0219169083600381111561160657fe5b0217905550857f07b8dde0de807efa8ecba675ef2be9d8af8f01e266085068e60c8e76837ee11a868660405180836001600160801b0316815260200182600381111561164e57fe5b81526020019250505060405180910390a2506117a2565b61166d612059565b6040518060600160405280878152602001866001600160801b0316815260200185600381111561169957fe5b905260098054600181018255600091909152815160029091026000805160206120988339815191528101918255602083015160008051602061207883398151915290910180546001600160801b039092166001600160801b03199092169190911780825560408401519394508493919060ff60801b1916600160801b83600381111561172157fe5b0217905550506009546000888152600a602090815260408083206001600160801b038b16808552908352928190209390935591519081528892507f441fbdf9d33c890abf8663a8fd49b8ee03e20ba4cce546dfa92d8bce8f1abf6b9188918891810182600381111561178f57fe5b81526020019250505060405180910390a2505b50504360085560019392505050565b6000546201000090046001600160a01b03163314611803576040805162461bcd60e51b815260206004820152600a60248201526941646d696e206f6e6c7960b01b604482015290519081900360640190fd5b6001600160a01b03811660009081526002602052604090205460ff16611862576040805162461bcd60e51b815260206004820152600f60248201526e3737ba1030903232bb32b637b832b960891b604482015290519081900360640190fd5b6001600160a01b038116600081815260026020526040808220805460ff19169055517f110a48e3e347ae018d4d40446e4e917b416f912dec489da19b4507bb9bb18cd49190a250565b60075481565b60005460ff16156118ff576040805162461bcd60e51b8152602060048201526013602482015272105b1c9958591e481a5b9a5d1a585b1a5e9959606a1b604482015290519081900360640190fd5b6000805460ff196001600160a01b03909316620100000262010000600160b01b031990911617919091166001179055565b600080546201000090046001600160a01b03163314611983576040805162461bcd60e51b815260206004820152600a60248201526941646d696e206f6e6c7960b01b604482015290519081900360640190fd5b826119d5576040805162461bcd60e51b815260206004820152601d60248201527f6576656e745369676e6174757265206d757374206e6f7420656d707479000000604482015290519081900360640190fd5b6000826001600160801b031611611a33576040805162461bcd60e51b815260206004820152601f60248201527f636865636b20696e646578206d7573742067726561746572207468656e203000604482015290519081900360640190fd5b6000838152600a602090815260408083206001600160801b0386168452909152902054611a98576040805162461bcd60e51b815260206004820152600e60248201526d1c9d5b19481b9bdd08195e1a5cdd60921b604482015290519081900360640190fd5b6000838152600a602090815260408083206001600160801b038616845290915281208054919055611ac7612059565b60096001830381548110611ad757fe5b60009182526020918290206040805160608101825260029093029091018054835260018101546001600160801b0381169484019490945291929083019060ff600160801b909104166003811115611b2a57fe5b6003811115611b3557fe5b9052506009549091508214611c6357611b4c612059565b600980546000198101908110611b5e57fe5b60009182526020918290206040805160608101825260029093029091018054835260018101546001600160801b0381169484019490945291929083019060ff600160801b909104166003811115611bb157fe5b6003811115611bbc57fe5b8152505090508060096001850381548110611bd357fe5b6000918252602091829020835160029290920201908155908201516001820180546001600160801b0319166001600160801b03909216919091178082556040840151919060ff60801b1916600160801b836003811115611c2f57fe5b02179055505081516000908152600a60209081526040808320948201516001600160801b0316835293905291909120839055505b6009805480611c6e57fe5b60008281526020808220600260001990940193840201918255600191909101805470ffffffffffffffffffffffffffffffffff19169055915581518282015160408085015190516001600160801b038316815292937f89fdef5ae498cf51728b26200045df6c8a41d44fee8191778fa2bcb855a725de93908101826003811115611cf457fe5b81526020019250505060405180910390a250504360085550600192915050565b6000546201000090046001600160a01b03163314611d66576040805162461bcd60e51b815260206004820152600a60248201526941646d696e206f6e6c7960b01b604482015290519081900360640190fd5b600054610100900460ff1615611db5576040805162461bcd60e51b815260206004820152600f60248201526e185b1c9958591e48195b98589b1959608a1b604482015290519081900360640190fd5b6000805461ff0019166101001781556040516001917f733a7f99819dc7466bff56e7c0b6753b43b750a692f2a5bb4fe373815a0c784591a2565b6000546201000090046001600160a01b031681565b6001546001600160a01b03163314611e54576040805162461bcd60e51b815260206004820152600e60248201526d4e65772061646d696e206f6e6c7960901b604482015290519081900360640190fd5b600180546000805462010000600160b01b0319166001600160a01b0380841662010000908102929092178084556001600160a01b03199094169094556040519204909216917f7ce7ec0b50378fb6c0186ffb5f48325f6593fcb4ca4386f21861af3129188f5c91a2565b60085481565b6001600160a01b03821660009081526020849052604081208054919055845460001991820191018114611f9457845485906000198101908110611f0357fe5b9060005260206000200160009054906101000a90046001600160a01b0316858281548110611f2d57fe5b9060005260206000200160006101000a8154816001600160a01b0302191690836001600160a01b0316021790555080600101846000878481548110611f6e57fe5b60009182526020808320909101546001600160a01b031683528201929092526040019020555b84805480611f9e57fe5b600082815260209020810160001990810180546001600160a01b03191690550190556040516001600160a01b038416907f91b762fba034b39c8b14c1e6463a15b1f4c211dcd0023f7fa2f4ae2928dfc44d90849080826002811115611fff57fe5b815260200191505060405180910390a25050505050565b82546001810184556000848152602080822090920180546001600160a01b039094166001600160a01b031990941684179055935491845291909152604090912055565b6040805160608101825260008082526020820181905290918201529056fe6e1540171b6c0c960b71a7020d9f60077f6af931a8bbf590da0223dacf75c7b06e1540171b6c0c960b71a7020d9f60077f6af931a8bbf590da0223dacf75c7afa264697066735822122009f0ff6f52d3a0516e121ef0f14d29cd49d5d29cde3e6a90ccb20cea35bc298764736f6c634300060c0033",
          "opcodes": "PUSH1 0x80 PUSH1 0x40 MSTORE CALLVALUE DUP1 ISZERO PUSH2 0x10 JUMPI PUSH1 0x0 DUP1 REVERT JUMPDEST POP PUSH2 0x20ED DUP1 PUSH2 0x20 PUSH1 0x0 CODECOPY PUSH1 0x0 RETURN INVALID PUSH1 0x80 PUSH1 0x40 MSTORE CALLVALUE DUP1 ISZERO PUSH2 0x10 JUMPI PUSH1 0x0 DUP1 REVERT JUMPDEST POP PUSH1 0x4 CALLDATASIZE LT PUSH2 0x173 JUMPI PUSH1 0x0 CALLDATALOAD PUSH1 0xE0 SHR DUP1 PUSH4 0x5CD8A76B GT PUSH2 0xDE JUMPI DUP1 PUSH4 0xABBCBD3A GT PUSH2 0x97 JUMPI DUP1 PUSH4 0xDB6619B0 GT PUSH2 0x71 JUMPI DUP1 PUSH4 0xDB6619B0 EQ PUSH2 0x4C1 JUMPI DUP1 PUSH4 0xF851A440 EQ PUSH2 0x4C9 JUMPI DUP1 PUSH4 0xFB48270C EQ PUSH2 0x4D1 JUMPI DUP1 PUSH4 0xFF0617DF EQ PUSH2 0x4D9 JUMPI PUSH2 0x173 JUMP JUMPDEST DUP1 PUSH4 0xABBCBD3A EQ PUSH2 0x455 JUMPI DUP1 PUSH4 0xC4D66DE8 EQ PUSH2 0x46F JUMPI DUP1 PUSH4 0xCEC0705A EQ PUSH2 0x495 JUMPI PUSH2 0x173 JUMP JUMPDEST DUP1 PUSH4 0x5CD8A76B EQ PUSH2 0x395 JUMPI DUP1 PUSH4 0x5ECA4A70 EQ PUSH2 0x39D JUMPI DUP1 PUSH4 0x6DFB5176 EQ PUSH2 0x3C3 JUMPI DUP1 PUSH4 0x70B03FC5 EQ PUSH2 0x3F2 JUMPI DUP1 PUSH4 0x89449301 EQ PUSH2 0x3FA JUMPI DUP1 PUSH4 0x9E23C209 EQ PUSH2 0x42F JUMPI PUSH2 0x173 JUMP JUMPDEST DUP1 PUSH4 0x327564B6 GT PUSH2 0x130 JUMPI DUP1 PUSH4 0x327564B6 EQ PUSH2 0x2EC JUMPI DUP1 PUSH4 0x349CB711 EQ PUSH2 0x2F4 JUMPI DUP1 PUSH4 0x367F8A58 EQ PUSH2 0x323 JUMPI DUP1 PUSH4 0x43E0C73A EQ PUSH2 0x344 JUMPI DUP1 PUSH4 0x4F608DD3 EQ PUSH2 0x34C JUMPI DUP1 PUSH4 0x4FB9E9B7 EQ PUSH2 0x36F JUMPI PUSH2 0x173 JUMP JUMPDEST DUP1 PUSH4 0xC476327 EQ PUSH2 0x178 JUMPI DUP1 PUSH4 0x143D79B6 EQ PUSH2 0x1DC JUMPI DUP1 PUSH4 0x158EF93E EQ PUSH2 0x22C JUMPI DUP1 PUSH4 0x18C66212 EQ PUSH2 0x248 JUMPI DUP1 PUSH4 0x22FBF1E8 EQ PUSH2 0x2A0 JUMPI DUP1 PUSH4 0x26782247 EQ PUSH2 0x2C8 JUMPI JUMPDEST PUSH1 0x0 DUP1 REVERT JUMPDEST PUSH2 0x1A4 PUSH1 0x4 DUP1 CALLDATASIZE SUB PUSH1 0x40 DUP2 LT ISZERO PUSH2 0x18E JUMPI PUSH1 0x0 DUP1 REVERT JUMPDEST POP DUP1 CALLDATALOAD SWAP1 PUSH1 0x20 ADD CALLDATALOAD PUSH1 0x1 PUSH1 0x1 PUSH1 0x80 SHL SUB AND PUSH2 0x4E1 JUMP JUMPDEST PUSH1 0x40 MLOAD DUP1 DUP5 DUP2 MSTORE PUSH1 0x20 ADD DUP4 PUSH1 0x1 PUSH1 0x1 PUSH1 0x80 SHL SUB AND DUP2 MSTORE PUSH1 0x20 ADD DUP3 PUSH1 0x3 DUP2 GT ISZERO PUSH2 0x1C9 JUMPI INVALID JUMPDEST DUP2 MSTORE PUSH1 0x20 ADD SWAP4 POP POP POP POP PUSH1 0x40 MLOAD DUP1 SWAP2 SUB SWAP1 RETURN JUMPDEST PUSH2 0x202 PUSH1 0x4 DUP1 CALLDATASIZE SUB PUSH1 0x20 DUP2 LT ISZERO PUSH2 0x1F2 JUMPI PUSH1 0x0 DUP1 REVERT JUMPDEST POP CALLDATALOAD PUSH1 0x1 PUSH1 0x1 PUSH1 0xA0 SHL SUB AND PUSH2 0x5C7 JUMP JUMPDEST PUSH1 0x40 MLOAD DUP1 DUP4 ISZERO ISZERO DUP2 MSTORE PUSH1 0x20 ADD DUP3 PUSH1 0x2 DUP2 GT ISZERO PUSH2 0x21A JUMPI INVALID JUMPDEST DUP2 MSTORE PUSH1 0x20 ADD SWAP3 POP POP POP PUSH1 0x40 MLOAD DUP1 SWAP2 SUB SWAP1 RETURN JUMPDEST PUSH2 0x234 PUSH2 0x649 JUMP JUMPDEST PUSH1 0x40 DUP1 MLOAD SWAP2 ISZERO ISZERO DUP3 MSTORE MLOAD SWAP1 DUP2 SWAP1 SUB PUSH1 0x20 ADD SWAP1 RETURN JUMPDEST PUSH2 0x250 PUSH2 0x652 JUMP JUMPDEST PUSH1 0x40 DUP1 MLOAD PUSH1 0x20 DUP1 DUP3 MSTORE DUP4 MLOAD DUP2 DUP4 ADD MSTORE DUP4 MLOAD SWAP2 SWAP3 DUP4 SWAP3 SWAP1 DUP4 ADD SWAP2 DUP6 DUP2 ADD SWAP2 MUL DUP1 DUP4 DUP4 PUSH1 0x0 JUMPDEST DUP4 DUP2 LT ISZERO PUSH2 0x28C JUMPI DUP2 DUP2 ADD MLOAD DUP4 DUP3 ADD MSTORE PUSH1 0x20 ADD PUSH2 0x274 JUMP JUMPDEST POP POP POP POP SWAP1 POP ADD SWAP3 POP POP POP PUSH1 0x40 MLOAD DUP1 SWAP2 SUB SWAP1 RETURN JUMPDEST PUSH2 0x2C6 PUSH1 0x4 DUP1 CALLDATASIZE SUB PUSH1 0x20 DUP2 LT ISZERO PUSH2 0x2B6 JUMPI PUSH1 0x0 DUP1 REVERT JUMPDEST POP CALLDATALOAD PUSH1 0x1 PUSH1 0x1 PUSH1 0xA0 SHL SUB AND PUSH2 0x6B4 JUMP JUMPDEST STOP JUMPDEST PUSH2 0x2D0 PUSH2 0x7B0 JUMP JUMPDEST PUSH1 0x40 DUP1 MLOAD PUSH1 0x1 PUSH1 0x1 PUSH1 0xA0 SHL SUB SWAP1 SWAP3 AND DUP3 MSTORE MLOAD SWAP1 DUP2 SWAP1 SUB PUSH1 0x20 ADD SWAP1 RETURN JUMPDEST PUSH2 0x234 PUSH2 0x7BF JUMP JUMPDEST PUSH2 0x2C6 PUSH1 0x4 DUP1 CALLDATASIZE SUB PUSH1 0x40 DUP2 LT ISZERO PUSH2 0x30A JUMPI PUSH1 0x0 DUP1 REVERT JUMPDEST POP DUP1 CALLDATALOAD PUSH1 0x1 PUSH1 0x1 PUSH1 0xA0 SHL SUB AND SWAP1 PUSH1 0x20 ADD CALLDATALOAD PUSH1 0xFF AND PUSH2 0x7CD JUMP JUMPDEST PUSH2 0x32B PUSH2 0xA00 JUMP JUMPDEST PUSH1 0x40 DUP1 MLOAD PUSH4 0xFFFFFFFF SWAP1 SWAP3 AND DUP3 MSTORE MLOAD SWAP1 DUP2 SWAP1 SUB PUSH1 0x20 ADD SWAP1 RETURN JUMPDEST PUSH2 0x2C6 PUSH2 0xA06 JUMP JUMPDEST PUSH2 0x1A4 PUSH1 0x4 DUP1 CALLDATASIZE SUB PUSH1 0x20 DUP2 LT ISZERO PUSH2 0x362 JUMPI PUSH1 0x0 DUP1 REVERT JUMPDEST POP CALLDATALOAD PUSH4 0xFFFFFFFF AND PUSH2 0xADC JUMP JUMPDEST PUSH2 0x2C6 PUSH1 0x4 DUP1 CALLDATASIZE SUB PUSH1 0x20 DUP2 LT ISZERO PUSH2 0x385 JUMPI PUSH1 0x0 DUP1 REVERT JUMPDEST POP CALLDATALOAD PUSH1 0x1 PUSH1 0x1 PUSH1 0xA0 SHL SUB AND PUSH2 0xBCB JUMP JUMPDEST PUSH2 0x2C6 PUSH2 0xC67 JUMP JUMPDEST PUSH2 0x234 PUSH1 0x4 DUP1 CALLDATASIZE SUB PUSH1 0x20 DUP2 LT ISZERO PUSH2 0x3B3 JUMPI PUSH1 0x0 DUP1 REVERT JUMPDEST POP CALLDATALOAD PUSH1 0x1 PUSH1 0x1 PUSH1 0xA0 SHL SUB AND PUSH2 0x10B6 JUMP JUMPDEST PUSH2 0x2C6 PUSH1 0x4 DUP1 CALLDATASIZE SUB PUSH1 0x40 DUP2 LT ISZERO PUSH2 0x3D9 JUMPI PUSH1 0x0 DUP1 REVERT JUMPDEST POP DUP1 CALLDATALOAD PUSH1 0x1 PUSH1 0x1 PUSH1 0xA0 SHL SUB AND SWAP1 PUSH1 0x20 ADD CALLDATALOAD PUSH1 0xFF AND PUSH2 0x10D4 JUMP JUMPDEST PUSH2 0x250 PUSH2 0x13CB JUMP JUMPDEST PUSH2 0x234 PUSH1 0x4 DUP1 CALLDATASIZE SUB PUSH1 0x60 DUP2 LT ISZERO PUSH2 0x410 JUMPI PUSH1 0x0 DUP1 REVERT JUMPDEST POP DUP1 CALLDATALOAD SWAP1 PUSH1 0x20 DUP2 ADD CALLDATALOAD PUSH1 0x1 PUSH1 0x1 PUSH1 0x80 SHL SUB AND SWAP1 PUSH1 0x40 ADD CALLDATALOAD PUSH1 0xFF AND PUSH2 0x142B JUMP JUMPDEST PUSH2 0x2C6 PUSH1 0x4 DUP1 CALLDATASIZE SUB PUSH1 0x20 DUP2 LT ISZERO PUSH2 0x445 JUMPI PUSH1 0x0 DUP1 REVERT JUMPDEST POP CALLDATALOAD PUSH1 0x1 PUSH1 0x1 PUSH1 0xA0 SHL SUB AND PUSH2 0x17B1 JUMP JUMPDEST PUSH2 0x45D PUSH2 0x18AB JUMP JUMPDEST PUSH1 0x40 DUP1 MLOAD SWAP2 DUP3 MSTORE MLOAD SWAP1 DUP2 SWAP1 SUB PUSH1 0x20 ADD SWAP1 RETURN JUMPDEST PUSH2 0x2C6 PUSH1 0x4 DUP1 CALLDATASIZE SUB PUSH1 0x20 DUP2 LT ISZERO PUSH2 0x485 JUMPI PUSH1 0x0 DUP1 REVERT JUMPDEST POP CALLDATALOAD PUSH1 0x1 PUSH1 0x1 PUSH1 0xA0 SHL SUB AND PUSH2 0x18B1 JUMP JUMPDEST PUSH2 0x234 PUSH1 0x4 DUP1 CALLDATASIZE SUB PUSH1 0x40 DUP2 LT ISZERO PUSH2 0x4AB JUMPI PUSH1 0x0 DUP1 REVERT JUMPDEST POP DUP1 CALLDATALOAD SWAP1 PUSH1 0x20 ADD CALLDATALOAD PUSH1 0x1 PUSH1 0x1 PUSH1 0x80 SHL SUB AND PUSH2 0x1930 JUMP JUMPDEST PUSH2 0x2C6 PUSH2 0x1D14 JUMP JUMPDEST PUSH2 0x2D0 PUSH2 0x1DEF JUMP JUMPDEST PUSH2 0x2C6 PUSH2 0x1E04 JUMP JUMPDEST PUSH2 0x45D PUSH2 0x1EBE JUMP JUMPDEST PUSH1 0x0 DUP3 DUP2 MSTORE PUSH1 0xA PUSH1 0x20 SWAP1 DUP2 MSTORE PUSH1 0x40 DUP1 DUP4 KECCAK256 PUSH1 0x1 PUSH1 0x1 PUSH1 0x80 SHL SUB DUP6 AND DUP5 MSTORE SWAP1 SWAP2 MSTORE DUP2 KECCAK256 SLOAD DUP2 SWAP1 DUP2 SWAP1 DUP1 ISZERO DUP1 ISZERO SWAP1 PUSH2 0x519 JUMPI POP PUSH1 0x9 SLOAD DUP2 GT ISZERO JUMPDEST ISZERO PUSH2 0x5B4 JUMPI PUSH2 0x526 PUSH2 0x2059 JUMP JUMPDEST PUSH1 0x9 PUSH1 0x1 DUP4 SUB DUP2 SLOAD DUP2 LT PUSH2 0x536 JUMPI INVALID JUMPDEST PUSH1 0x0 SWAP2 DUP3 MSTORE PUSH1 0x20 SWAP2 DUP3 SWAP1 KECCAK256 PUSH1 0x40 DUP1 MLOAD PUSH1 0x60 DUP2 ADD DUP3 MSTORE PUSH1 0x2 SWAP1 SWAP4 MUL SWAP1 SWAP2 ADD DUP1 SLOAD DUP4 MSTORE PUSH1 0x1 DUP2 ADD SLOAD PUSH1 0x1 PUSH1 0x1 PUSH1 0x80 SHL SUB DUP2 AND SWAP5 DUP5 ADD SWAP5 SWAP1 SWAP5 MSTORE SWAP2 SWAP3 SWAP1 DUP4 ADD SWAP1 PUSH1 0xFF PUSH1 0x1 PUSH1 0x80 SHL SWAP1 SWAP2 DIV AND PUSH1 0x3 DUP2 GT ISZERO PUSH2 0x589 JUMPI INVALID JUMPDEST PUSH1 0x3 DUP2 GT ISZERO PUSH2 0x594 JUMPI INVALID JUMPDEST SWAP1 MSTORE POP DUP1 MLOAD PUSH1 0x20 DUP3 ADD MLOAD PUSH1 0x40 SWAP1 SWAP3 ADD MLOAD SWAP1 SWAP7 POP SWAP1 SWAP5 POP SWAP3 POP PUSH2 0x5C0 SWAP2 POP POP JUMP JUMPDEST POP PUSH1 0x0 SWAP3 POP DUP3 SWAP2 POP DUP2 SWAP1 POP JUMPDEST SWAP3 POP SWAP3 POP SWAP3 JUMP JUMPDEST PUSH1 0x1 PUSH1 0x1 PUSH1 0xA0 SHL SUB DUP2 AND PUSH1 0x0 SWAP1 DUP2 MSTORE PUSH1 0x5 PUSH1 0x20 SWAP1 DUP2 MSTORE PUSH1 0x40 DUP1 DUP4 KECCAK256 SLOAD PUSH1 0x6 SWAP1 SWAP3 MSTORE DUP3 KECCAK256 SLOAD DUP3 SWAP2 ISZERO DUP1 ISZERO SWAP2 ISZERO ISZERO SWAP1 DUP3 SWAP1 PUSH2 0x5FD JUMPI POP DUP1 JUMPDEST ISZERO PUSH2 0x611 JUMPI PUSH1 0x1 PUSH1 0x2 SWAP4 POP SWAP4 POP POP POP PUSH2 0x644 JUMP JUMPDEST DUP2 ISZERO PUSH2 0x626 JUMPI PUSH1 0x1 PUSH1 0x0 SWAP4 POP SWAP4 POP POP POP PUSH2 0x644 JUMP JUMPDEST DUP1 ISZERO PUSH2 0x63A JUMPI PUSH1 0x1 DUP1 SWAP4 POP SWAP4 POP POP POP PUSH2 0x644 JUMP JUMPDEST PUSH1 0x0 DUP1 SWAP4 POP SWAP4 POP POP POP JUMPDEST SWAP2 POP SWAP2 JUMP JUMPDEST PUSH1 0x0 SLOAD PUSH1 0xFF AND DUP2 JUMP JUMPDEST PUSH1 0x60 PUSH1 0x3 DUP1 SLOAD DUP1 PUSH1 0x20 MUL PUSH1 0x20 ADD PUSH1 0x40 MLOAD SWAP1 DUP2 ADD PUSH1 0x40 MSTORE DUP1 SWAP3 SWAP2 SWAP1 DUP2 DUP2 MSTORE PUSH1 0x20 ADD DUP3 DUP1 SLOAD DUP1 ISZERO PUSH2 0x6AA JUMPI PUSH1 0x20 MUL DUP3 ADD SWAP2 SWAP1 PUSH1 0x0 MSTORE PUSH1 0x20 PUSH1 0x0 KECCAK256 SWAP1 JUMPDEST DUP2 SLOAD PUSH1 0x1 PUSH1 0x1 PUSH1 0xA0 SHL SUB AND DUP2 MSTORE PUSH1 0x1 SWAP1 SWAP2 ADD SWAP1 PUSH1 0x20 ADD DUP1 DUP4 GT PUSH2 0x68C JUMPI JUMPDEST POP POP POP POP POP SWAP1 POP SWAP1 JUMP JUMPDEST PUSH1 0x0 SLOAD PUSH3 0x10000 SWAP1 DIV PUSH1 0x1 PUSH1 0x1 PUSH1 0xA0 SHL SUB AND CALLER EQ PUSH2 0x706 JUMPI PUSH1 0x40 DUP1 MLOAD PUSH3 0x461BCD PUSH1 0xE5 SHL DUP2 MSTORE PUSH1 0x20 PUSH1 0x4 DUP3 ADD MSTORE PUSH1 0xA PUSH1 0x24 DUP3 ADD MSTORE PUSH10 0x41646D696E206F6E6C79 PUSH1 0xB0 SHL PUSH1 0x44 DUP3 ADD MSTORE SWAP1 MLOAD SWAP1 DUP2 SWAP1 SUB PUSH1 0x64 ADD SWAP1 REVERT JUMPDEST PUSH1 0x1 PUSH1 0x1 PUSH1 0xA0 SHL SUB DUP2 AND PUSH1 0x0 SWAP1 DUP2 MSTORE PUSH1 0x2 PUSH1 0x20 MSTORE PUSH1 0x40 SWAP1 KECCAK256 SLOAD PUSH1 0xFF AND ISZERO PUSH2 0x764 JUMPI PUSH1 0x40 DUP1 MLOAD PUSH3 0x461BCD PUSH1 0xE5 SHL DUP2 MSTORE PUSH1 0x20 PUSH1 0x4 DUP3 ADD MSTORE PUSH1 0xD PUSH1 0x24 DUP3 ADD MSTORE PUSH13 0x185B1C9958591E481859191959 PUSH1 0x9A SHL PUSH1 0x44 DUP3 ADD MSTORE SWAP1 MLOAD SWAP1 DUP2 SWAP1 SUB PUSH1 0x64 ADD SWAP1 REVERT JUMPDEST PUSH1 0x1 PUSH1 0x1 PUSH1 0xA0 SHL SUB DUP2 AND PUSH1 0x0 DUP2 DUP2 MSTORE PUSH1 0x2 PUSH1 0x20 MSTORE PUSH1 0x40 DUP1 DUP3 KECCAK256 DUP1 SLOAD PUSH1 0xFF NOT AND PUSH1 0x1 OR SWAP1 SSTORE MLOAD PUSH32 0x58FDAE480ED8E99B762BCEB2D39835A68EE3A4789CD84E5C90CD59722BA0209 SWAP2 SWAP1 LOG2 POP JUMP JUMPDEST PUSH1 0x1 SLOAD PUSH1 0x1 PUSH1 0x1 PUSH1 0xA0 SHL SUB AND DUP2 JUMP JUMPDEST PUSH1 0x0 SLOAD PUSH2 0x100 SWAP1 DIV PUSH1 0xFF AND DUP2 JUMP JUMPDEST PUSH1 0x0 SLOAD PUSH3 0x10000 SWAP1 DIV PUSH1 0x1 PUSH1 0x1 PUSH1 0xA0 SHL SUB AND CALLER EQ PUSH2 0x81F JUMPI PUSH1 0x40 DUP1 MLOAD PUSH3 0x461BCD PUSH1 0xE5 SHL DUP2 MSTORE PUSH1 0x20 PUSH1 0x4 DUP3 ADD MSTORE PUSH1 0xA PUSH1 0x24 DUP3 ADD MSTORE PUSH10 0x41646D696E206F6E6C79 PUSH1 0xB0 SHL PUSH1 0x44 DUP3 ADD MSTORE SWAP1 MLOAD SWAP1 DUP2 SWAP1 SUB PUSH1 0x64 ADD SWAP1 REVERT JUMPDEST PUSH1 0x2 DUP2 PUSH1 0x2 DUP2 GT ISZERO PUSH2 0x82D JUMPI INVALID JUMPDEST EQ ISZERO PUSH2 0x90E JUMPI PUSH1 0x1 PUSH1 0x1 PUSH1 0xA0 SHL SUB DUP3 AND PUSH1 0x0 SWAP1 DUP2 MSTORE PUSH1 0x5 PUSH1 0x20 MSTORE PUSH1 0x40 SWAP1 KECCAK256 SLOAD PUSH2 0x890 JUMPI PUSH1 0x40 DUP1 MLOAD PUSH3 0x461BCD PUSH1 0xE5 SHL DUP2 MSTORE PUSH1 0x20 PUSH1 0x4 DUP3 ADD MSTORE PUSH1 0x10 PUSH1 0x24 DUP3 ADD MSTORE PUSH16 0x1B9BDD081A5B88199C9BDB481B1A5CDD PUSH1 0x82 SHL PUSH1 0x44 DUP3 ADD MSTORE SWAP1 MLOAD SWAP1 DUP2 SWAP1 SUB PUSH1 0x64 ADD SWAP1 REVERT JUMPDEST PUSH1 0x1 PUSH1 0x1 PUSH1 0xA0 SHL SUB DUP3 AND PUSH1 0x0 SWAP1 DUP2 MSTORE PUSH1 0x6 PUSH1 0x20 MSTORE PUSH1 0x40 SWAP1 KECCAK256 SLOAD PUSH2 0x8EB JUMPI PUSH1 0x40 DUP1 MLOAD PUSH3 0x461BCD PUSH1 0xE5 SHL DUP2 MSTORE PUSH1 0x20 PUSH1 0x4 DUP3 ADD MSTORE PUSH1 0xE PUSH1 0x24 DUP3 ADD MSTORE PUSH14 0x1B9BDD081A5B881D1BC81B1A5CDD PUSH1 0x92 SHL PUSH1 0x44 DUP3 ADD MSTORE SWAP1 MLOAD SWAP1 DUP2 SWAP1 SUB PUSH1 0x64 ADD SWAP1 REVERT JUMPDEST PUSH2 0x8FA PUSH1 0x3 PUSH1 0x5 DUP5 PUSH1 0x0 PUSH2 0x1EC4 JUMP JUMPDEST PUSH2 0x909 PUSH1 0x4 PUSH1 0x6 DUP5 PUSH1 0x1 PUSH2 0x1EC4 JUMP JUMPDEST PUSH2 0x9F8 JUMP JUMPDEST PUSH1 0x0 DUP2 PUSH1 0x2 DUP2 GT ISZERO PUSH2 0x91C JUMPI INVALID JUMPDEST EQ ISZERO PUSH2 0x98E JUMPI PUSH1 0x1 PUSH1 0x1 PUSH1 0xA0 SHL SUB DUP3 AND PUSH1 0x0 SWAP1 DUP2 MSTORE PUSH1 0x5 PUSH1 0x20 MSTORE PUSH1 0x40 SWAP1 KECCAK256 SLOAD PUSH2 0x97F JUMPI PUSH1 0x40 DUP1 MLOAD PUSH3 0x461BCD PUSH1 0xE5 SHL DUP2 MSTORE PUSH1 0x20 PUSH1 0x4 DUP3 ADD MSTORE PUSH1 0x10 PUSH1 0x24 DUP3 ADD MSTORE PUSH16 0x1B9BDD081A5B88199C9BDB481B1A5CDD PUSH1 0x82 SHL PUSH1 0x44 DUP3 ADD MSTORE SWAP1 MLOAD SWAP1 DUP2 SWAP1 SUB PUSH1 0x64 ADD SWAP1 REVERT JUMPDEST PUSH2 0x909 PUSH1 0x3 PUSH1 0x5 DUP5 PUSH1 0x0 PUSH2 0x1EC4 JUMP JUMPDEST PUSH1 0x1 PUSH1 0x1 PUSH1 0xA0 SHL SUB DUP3 AND PUSH1 0x0 SWAP1 DUP2 MSTORE PUSH1 0x6 PUSH1 0x20 MSTORE PUSH1 0x40 SWAP1 KECCAK256 SLOAD PUSH2 0x9E9 JUMPI PUSH1 0x40 DUP1 MLOAD PUSH3 0x461BCD PUSH1 0xE5 SHL DUP2 MSTORE PUSH1 0x20 PUSH1 0x4 DUP3 ADD MSTORE PUSH1 0xE PUSH1 0x24 DUP3 ADD MSTORE PUSH14 0x1B9BDD081A5B881D1BC81B1A5CDD PUSH1 0x92 SHL PUSH1 0x44 DUP3 ADD MSTORE SWAP1 MLOAD SWAP1 DUP2 SWAP1 SUB PUSH1 0x64 ADD SWAP1 REVERT JUMPDEST PUSH2 0x9F8 PUSH1 0x4 PUSH1 0x6 DUP5 PUSH1 0x1 PUSH2 0x1EC4 JUMP JUMPDEST POP POP NUMBER PUSH1 0x7 SSTORE JUMP JUMPDEST PUSH1 0x9 SLOAD SWAP1 JUMP JUMPDEST PUSH1 0x0 SLOAD PUSH3 0x10000 SWAP1 DIV PUSH1 0x1 PUSH1 0x1 PUSH1 0xA0 SHL SUB AND CALLER EQ PUSH2 0xA58 JUMPI PUSH1 0x40 DUP1 MLOAD PUSH3 0x461BCD PUSH1 0xE5 SHL DUP2 MSTORE PUSH1 0x20 PUSH1 0x4 DUP3 ADD MSTORE PUSH1 0xA PUSH1 0x24 DUP3 ADD MSTORE PUSH10 0x41646D696E206F6E6C79 PUSH1 0xB0 SHL PUSH1 0x44 DUP3 ADD MSTORE SWAP1 MLOAD SWAP1 DUP2 SWAP1 SUB PUSH1 0x64 ADD SWAP1 REVERT JUMPDEST PUSH1 0x0 SLOAD PUSH2 0x100 SWAP1 DIV PUSH1 0xFF AND PUSH2 0xAA7 JUMPI PUSH1 0x40 DUP1 MLOAD PUSH3 0x461BCD PUSH1 0xE5 SHL DUP2 MSTORE PUSH1 0x20 PUSH1 0x4 DUP3 ADD MSTORE PUSH1 0x10 PUSH1 0x24 DUP3 ADD MSTORE PUSH16 0x185B1C9958591E48191A5CD8589B1959 PUSH1 0x82 SHL PUSH1 0x44 DUP3 ADD MSTORE SWAP1 MLOAD SWAP1 DUP2 SWAP1 SUB PUSH1 0x64 ADD SWAP1 REVERT JUMPDEST PUSH1 0x0 DUP1 SLOAD PUSH2 0xFF00 NOT AND DUP2 SSTORE PUSH1 0x40 MLOAD PUSH32 0x733A7F99819DC7466BFF56E7C0B6753B43B750A692F2A5BB4FE373815A0C7845 SWAP1 DUP3 SWAP1 LOG2 JUMP JUMPDEST PUSH1 0x0 DUP1 PUSH1 0x0 PUSH1 0x9 DUP1 SLOAD SWAP1 POP DUP5 PUSH4 0xFFFFFFFF AND LT PUSH2 0xB35 JUMPI PUSH1 0x40 DUP1 MLOAD PUSH3 0x461BCD PUSH1 0xE5 SHL DUP2 MSTORE PUSH1 0x20 PUSH1 0x4 DUP3 ADD MSTORE PUSH1 0x12 PUSH1 0x24 DUP3 ADD MSTORE PUSH18 0x696E646578206F7574206F662072616E6765 PUSH1 0x70 SHL PUSH1 0x44 DUP3 ADD MSTORE SWAP1 MLOAD SWAP1 DUP2 SWAP1 SUB PUSH1 0x64 ADD SWAP1 REVERT JUMPDEST PUSH2 0xB3D PUSH2 0x2059 JUMP JUMPDEST PUSH1 0x9 DUP6 PUSH4 0xFFFFFFFF AND DUP2 SLOAD DUP2 LT PUSH2 0xB50 JUMPI INVALID JUMPDEST PUSH1 0x0 SWAP2 DUP3 MSTORE PUSH1 0x20 SWAP2 DUP3 SWAP1 KECCAK256 PUSH1 0x40 DUP1 MLOAD PUSH1 0x60 DUP2 ADD DUP3 MSTORE PUSH1 0x2 SWAP1 SWAP4 MUL SWAP1 SWAP2 ADD DUP1 SLOAD DUP4 MSTORE PUSH1 0x1 DUP2 ADD SLOAD PUSH1 0x1 PUSH1 0x1 PUSH1 0x80 SHL SUB DUP2 AND SWAP5 DUP5 ADD SWAP5 SWAP1 SWAP5 MSTORE SWAP2 SWAP3 SWAP1 DUP4 ADD SWAP1 PUSH1 0xFF PUSH1 0x1 PUSH1 0x80 SHL SWAP1 SWAP2 DIV AND PUSH1 0x3 DUP2 GT ISZERO PUSH2 0xBA3 JUMPI INVALID JUMPDEST PUSH1 0x3 DUP2 GT ISZERO PUSH2 0xBAE JUMPI INVALID JUMPDEST SWAP1 MSTORE POP DUP1 MLOAD PUSH1 0x20 DUP3 ADD MLOAD PUSH1 0x40 SWAP1 SWAP3 ADD MLOAD SWAP1 SWAP8 SWAP2 SWAP7 POP SWAP5 POP SWAP3 POP POP POP JUMP JUMPDEST PUSH1 0x0 SLOAD PUSH3 0x10000 SWAP1 DIV PUSH1 0x1 PUSH1 0x1 PUSH1 0xA0 SHL SUB AND CALLER EQ PUSH2 0xC1D JUMPI PUSH1 0x40 DUP1 MLOAD PUSH3 0x461BCD PUSH1 0xE5 SHL DUP2 MSTORE PUSH1 0x20 PUSH1 0x4 DUP3 ADD MSTORE PUSH1 0xA PUSH1 0x24 DUP3 ADD MSTORE PUSH10 0x41646D696E206F6E6C79 PUSH1 0xB0 SHL PUSH1 0x44 DUP3 ADD MSTORE SWAP1 MLOAD SWAP1 DUP2 SWAP1 SUB PUSH1 0x64 ADD SWAP1 REVERT JUMPDEST PUSH1 0x1 DUP1 SLOAD PUSH1 0x1 PUSH1 0x1 PUSH1 0xA0 SHL SUB NOT AND PUSH1 0x1 PUSH1 0x1 PUSH1 0xA0 SHL SUB DUP4 AND SWAP1 DUP2 OR SWAP1 SWAP2 SSTORE PUSH1 0x40 MLOAD PUSH32 0xAEFCAA6215F99FE8C2F605DD268EE4D23A5B596BBCA026E25CE8446187F4F1BA SWAP1 PUSH1 0x0 SWAP1 LOG2 POP JUMP JUMPDEST PUSH1 0x8 SLOAD ISZERO PUSH2 0xCBC JUMPI PUSH1 0x40 DUP1 MLOAD PUSH3 0x461BCD PUSH1 0xE5 SHL DUP2 MSTORE PUSH1 0x20 PUSH1 0x4 DUP3 ADD MSTORE PUSH1 0x1E PUSH1 0x24 DUP3 ADD MSTORE PUSH32 0x4F6E6C7920696E697469616C697A65206265666F726520616E79207573650000 PUSH1 0x44 DUP3 ADD MSTORE SWAP1 MLOAD SWAP1 DUP2 SWAP1 SUB PUSH1 0x64 ADD SWAP1 REVERT JUMPDEST PUSH1 0x7 SLOAD ISZERO PUSH2 0xD11 JUMPI PUSH1 0x40 DUP1 MLOAD PUSH3 0x461BCD PUSH1 0xE5 SHL DUP2 MSTORE PUSH1 0x20 PUSH1 0x4 DUP3 ADD MSTORE PUSH1 0x1E PUSH1 0x24 DUP3 ADD MSTORE PUSH32 0x4F6E6C7920696E697469616C697A65206265666F726520616E79207573650000 PUSH1 0x44 DUP3 ADD MSTORE SWAP1 MLOAD SWAP1 DUP2 SWAP1 SUB PUSH1 0x64 ADD SWAP1 REVERT JUMPDEST PUSH32 0xDDF252AD1BE2C89B69C2B068FC378DAA952BA7F163C4A11628F55A4DF523B3EF PUSH1 0x1 PUSH2 0xD3C PUSH2 0x2059 JUMP JUMPDEST POP PUSH1 0x40 DUP1 MLOAD PUSH1 0x60 DUP2 ADD DUP3 MSTORE DUP4 DUP2 MSTORE PUSH1 0x1 PUSH1 0x1 PUSH1 0x80 SHL SUB DUP4 DUP2 AND PUSH1 0x20 DUP4 ADD SWAP1 DUP2 MSTORE PUSH1 0x1 SWAP4 DUP4 ADD DUP5 DUP2 MSTORE PUSH1 0x9 DUP1 SLOAD SWAP6 DUP7 ADD DUP2 SSTORE PUSH1 0x0 MSTORE DUP4 MLOAD PUSH1 0x0 DUP1 MLOAD PUSH1 0x20 PUSH2 0x2098 DUP4 CODECOPY DUP2 MLOAD SWAP2 MSTORE PUSH1 0x2 SWAP1 SWAP7 MUL SWAP6 DUP7 ADD SWAP1 DUP2 SSTORE SWAP2 MLOAD PUSH1 0x0 DUP1 MLOAD PUSH1 0x20 PUSH2 0x2078 DUP4 CODECOPY DUP2 MLOAD SWAP2 MSTORE SWAP1 SWAP6 ADD DUP1 SLOAD PUSH1 0x1 PUSH1 0x1 PUSH1 0x80 SHL SUB NOT AND SWAP6 SWAP1 SWAP4 AND SWAP5 SWAP1 SWAP5 OR DUP1 DUP4 SSTORE SWAP4 MLOAD SWAP3 SWAP4 DUP5 SWAP4 SWAP2 SWAP3 SWAP1 PUSH1 0xFF PUSH1 0x80 SHL NOT AND PUSH1 0x1 PUSH1 0x80 SHL DUP4 PUSH1 0x3 DUP2 GT ISZERO PUSH2 0xDD8 JUMPI INVALID JUMPDEST MUL OR SWAP1 SSTORE POP POP PUSH1 0x9 DUP1 SLOAD PUSH1 0x0 SWAP6 DUP7 MSTORE PUSH1 0xA PUSH1 0x20 SWAP1 DUP2 MSTORE PUSH1 0x40 DUP1 DUP9 KECCAK256 PUSH1 0x1 PUSH1 0x1 PUSH1 0x80 SHL SUB SWAP8 DUP9 AND DUP10 MSTORE DUP3 MSTORE DUP1 DUP9 KECCAK256 DUP4 SWAP1 SSTORE DUP1 MLOAD PUSH1 0x60 DUP2 ADD DUP3 MSTORE PUSH32 0x6B541DDAA720DB2B10A4D0CDAC39B8D360425FC073085FAC19BC82614677987 DUP1 DUP3 MSTORE PUSH1 0x2 SWAP4 DUP3 ADD DUP5 DUP2 MSTORE PUSH1 0x1 SWAP4 DUP4 ADD DUP5 DUP2 MSTORE SWAP4 DUP7 ADD DUP8 SSTORE SWAP6 SWAP1 SWAP10 MSTORE DUP1 MLOAD PUSH1 0x0 DUP1 MLOAD PUSH1 0x20 PUSH2 0x2098 DUP4 CODECOPY DUP2 MLOAD SWAP2 MSTORE SWAP5 DUP5 MUL SWAP5 DUP6 ADD SWAP1 DUP2 SSTORE SWAP5 MLOAD PUSH1 0x0 DUP1 MLOAD PUSH1 0x20 PUSH2 0x2078 DUP4 CODECOPY DUP2 MLOAD SWAP2 MSTORE SWAP1 SWAP5 ADD DUP1 SLOAD PUSH1 0x1 PUSH1 0x1 PUSH1 0x80 SHL SUB NOT AND SWAP5 SWAP1 SWAP9 AND SWAP4 SWAP1 SWAP4 OR DUP1 DUP9 SSTORE SWAP1 MLOAD SWAP2 SWAP7 SWAP3 SWAP6 POP DUP6 SWAP5 POP SWAP1 SWAP2 SWAP1 PUSH1 0xFF PUSH1 0x80 SHL NOT AND PUSH1 0x1 PUSH1 0x80 SHL DUP4 PUSH1 0x3 DUP2 GT ISZERO PUSH2 0xEB7 JUMPI INVALID JUMPDEST MUL OR SWAP1 SSTORE POP POP PUSH1 0x9 DUP1 SLOAD PUSH1 0x0 SWAP6 DUP7 MSTORE PUSH1 0xA PUSH1 0x20 SWAP1 DUP2 MSTORE PUSH1 0x40 DUP1 DUP9 KECCAK256 PUSH1 0x1 PUSH1 0x1 PUSH1 0x80 SHL SUB DUP9 DUP2 AND DUP1 DUP12 MSTORE SWAP2 DUP5 MSTORE DUP3 DUP11 KECCAK256 DUP6 SWAP1 SSTORE DUP3 MLOAD PUSH1 0x60 DUP2 ADD DUP5 MSTORE PUSH32 0xC3D58168C5AE7397731D063D5BBF3D657854427343F4C083240F7AACAA2D0F62 DUP1 DUP3 MSTORE SWAP5 DUP2 ADD SWAP3 DUP4 MSTORE PUSH1 0x1 SWAP4 DUP2 ADD DUP5 DUP2 MSTORE SWAP4 DUP7 ADD DUP8 SSTORE SWAP6 SWAP1 SWAP10 MSTORE DUP5 MLOAD PUSH1 0x2 SWAP1 SWAP5 MUL PUSH1 0x0 DUP1 MLOAD PUSH1 0x20 PUSH2 0x2098 DUP4 CODECOPY DUP2 MLOAD SWAP2 MSTORE DUP2 ADD SWAP5 DUP6 SSTORE SWAP1 MLOAD PUSH1 0x0 DUP1 MLOAD PUSH1 0x20 PUSH2 0x2078 DUP4 CODECOPY DUP2 MLOAD SWAP2 MSTORE SWAP1 SWAP2 ADD DUP1 SLOAD SWAP2 SWAP1 SWAP10 AND PUSH1 0x1 PUSH1 0x1 PUSH1 0x80 SHL SUB NOT SWAP1 SWAP2 AND OR DUP1 DUP10 SSTORE SWAP1 MLOAD SWAP2 SWAP8 SWAP4 SWAP6 POP DUP6 SWAP5 POP SWAP2 SWAP3 SWAP1 SWAP2 PUSH1 0xFF PUSH1 0x80 SHL NOT AND PUSH1 0x1 PUSH1 0x80 SHL DUP4 PUSH1 0x3 DUP2 GT ISZERO PUSH2 0xF97 JUMPI INVALID JUMPDEST MUL OR SWAP1 SSTORE POP POP PUSH1 0x9 DUP1 SLOAD PUSH1 0x0 SWAP6 DUP7 MSTORE PUSH1 0xA PUSH1 0x20 SWAP1 DUP2 MSTORE PUSH1 0x40 DUP1 DUP9 KECCAK256 PUSH1 0x1 PUSH1 0x1 PUSH1 0x80 SHL SUB DUP9 DUP2 AND DUP1 DUP12 MSTORE SWAP2 DUP5 MSTORE DUP3 DUP11 KECCAK256 DUP6 SWAP1 SSTORE DUP3 MLOAD PUSH1 0x60 DUP2 ADD DUP5 MSTORE PUSH32 0x4A39DC06D4C0DBC64B70AF90FD698A233A518AA5D07E595D983B8C0526C8F7FB DUP1 DUP3 MSTORE SWAP5 DUP2 ADD SWAP3 DUP4 MSTORE PUSH1 0x1 SWAP4 DUP2 ADD DUP5 DUP2 MSTORE SWAP4 DUP7 ADD DUP8 SSTORE SWAP6 SWAP1 SWAP10 MSTORE DUP5 MLOAD PUSH1 0x2 SWAP1 SWAP5 MUL PUSH1 0x0 DUP1 MLOAD PUSH1 0x20 PUSH2 0x2098 DUP4 CODECOPY DUP2 MLOAD SWAP2 MSTORE DUP2 ADD SWAP5 DUP6 SSTORE SWAP1 MLOAD PUSH1 0x0 DUP1 MLOAD PUSH1 0x20 PUSH2 0x2078 DUP4 CODECOPY DUP2 MLOAD SWAP2 MSTORE SWAP1 SWAP2 ADD DUP1 SLOAD SWAP2 SWAP1 SWAP10 AND PUSH1 0x1 PUSH1 0x1 PUSH1 0x80 SHL SUB NOT SWAP1 SWAP2 AND OR DUP1 DUP10 SSTORE SWAP1 MLOAD SWAP2 SWAP8 SWAP4 SWAP6 POP DUP6 SWAP5 POP SWAP2 SWAP3 SWAP1 SWAP2 PUSH1 0xFF PUSH1 0x80 SHL NOT AND PUSH1 0x1 PUSH1 0x80 SHL DUP4 PUSH1 0x3 DUP2 GT ISZERO PUSH2 0x1077 JUMPI INVALID JUMPDEST MUL OR SWAP1 SSTORE POP POP PUSH1 0x9 SLOAD PUSH1 0x0 SWAP5 DUP6 MSTORE PUSH1 0xA PUSH1 0x20 SWAP1 DUP2 MSTORE PUSH1 0x40 DUP1 DUP8 KECCAK256 PUSH1 0x1 PUSH1 0x1 PUSH1 0x80 SHL SUB SWAP1 SWAP7 AND DUP8 MSTORE SWAP5 SWAP1 MSTORE SWAP3 SWAP1 SWAP4 KECCAK256 SWAP2 SWAP1 SWAP2 SSTORE POP POP NUMBER PUSH1 0x7 DUP2 SWAP1 SSTORE PUSH1 0x8 SSTORE JUMP JUMPDEST PUSH1 0x1 PUSH1 0x1 PUSH1 0xA0 SHL SUB AND PUSH1 0x0 SWAP1 DUP2 MSTORE PUSH1 0x2 PUSH1 0x20 MSTORE PUSH1 0x40 SWAP1 KECCAK256 SLOAD PUSH1 0xFF AND SWAP1 JUMP JUMPDEST PUSH1 0x0 SLOAD PUSH3 0x10000 SWAP1 DIV PUSH1 0x1 PUSH1 0x1 PUSH1 0xA0 SHL SUB AND CALLER EQ PUSH2 0x1126 JUMPI PUSH1 0x40 DUP1 MLOAD PUSH3 0x461BCD PUSH1 0xE5 SHL DUP2 MSTORE PUSH1 0x20 PUSH1 0x4 DUP3 ADD MSTORE PUSH1 0xA PUSH1 0x24 DUP3 ADD MSTORE PUSH10 0x41646D696E206F6E6C79 PUSH1 0xB0 SHL PUSH1 0x44 DUP3 ADD MSTORE SWAP1 MLOAD SWAP1 DUP2 SWAP1 SUB PUSH1 0x64 ADD SWAP1 REVERT JUMPDEST PUSH1 0x0 SLOAD PUSH1 0x1 PUSH1 0x1 PUSH1 0xA0 SHL SUB DUP4 DUP2 AND PUSH3 0x10000 SWAP1 SWAP3 DIV AND EQ ISZERO PUSH2 0x118F JUMPI PUSH1 0x40 DUP1 MLOAD PUSH3 0x461BCD PUSH1 0xE5 SHL DUP2 MSTORE PUSH1 0x20 PUSH1 0x4 DUP3 ADD MSTORE PUSH1 0x1D PUSH1 0x24 DUP3 ADD MSTORE PUSH32 0x63616E6E6F74206164642061646D696E20746F20626C61636B6C697374000000 PUSH1 0x44 DUP3 ADD MSTORE SWAP1 MLOAD SWAP1 DUP2 SWAP1 SUB PUSH1 0x64 ADD SWAP1 REVERT JUMPDEST PUSH1 0x2 DUP2 PUSH1 0x2 DUP2 GT ISZERO PUSH2 0x119D JUMPI INVALID JUMPDEST EQ ISZERO PUSH2 0x1284 JUMPI PUSH1 0x1 PUSH1 0x1 PUSH1 0xA0 SHL SUB DUP3 AND PUSH1 0x0 SWAP1 DUP2 MSTORE PUSH1 0x5 PUSH1 0x20 MSTORE PUSH1 0x40 SWAP1 KECCAK256 SLOAD ISZERO PUSH2 0x1205 JUMPI PUSH1 0x40 DUP1 MLOAD PUSH3 0x461BCD PUSH1 0xE5 SHL DUP2 MSTORE PUSH1 0x20 PUSH1 0x4 DUP3 ADD MSTORE PUSH1 0x14 PUSH1 0x24 DUP3 ADD MSTORE PUSH20 0x185B1C9958591E481A5B88199C9BDB481B1A5CDD PUSH1 0x62 SHL PUSH1 0x44 DUP3 ADD MSTORE SWAP1 MLOAD SWAP1 DUP2 SWAP1 SUB PUSH1 0x64 ADD SWAP1 REVERT JUMPDEST PUSH1 0x1 PUSH1 0x1 PUSH1 0xA0 SHL SUB DUP3 AND PUSH1 0x0 SWAP1 DUP2 MSTORE PUSH1 0x6 PUSH1 0x20 MSTORE PUSH1 0x40 SWAP1 KECCAK256 SLOAD ISZERO PUSH2 0x1265 JUMPI PUSH1 0x40 DUP1 MLOAD PUSH3 0x461BCD PUSH1 0xE5 SHL DUP2 MSTORE PUSH1 0x20 PUSH1 0x4 DUP3 ADD MSTORE PUSH1 0x12 PUSH1 0x24 DUP3 ADD MSTORE PUSH18 0x185B1C9958591E481A5B881D1BC81B1A5CDD PUSH1 0x72 SHL PUSH1 0x44 DUP3 ADD MSTORE SWAP1 MLOAD SWAP1 DUP2 SWAP1 SUB PUSH1 0x64 ADD SWAP1 REVERT JUMPDEST PUSH2 0x1272 PUSH1 0x3 PUSH1 0x5 DUP5 PUSH2 0x2016 JUMP JUMPDEST PUSH2 0x127F PUSH1 0x4 PUSH1 0x6 DUP5 PUSH2 0x2016 JUMP JUMPDEST PUSH2 0x1374 JUMP JUMPDEST PUSH1 0x0 DUP2 PUSH1 0x2 DUP2 GT ISZERO PUSH2 0x1292 JUMPI INVALID JUMPDEST EQ ISZERO PUSH2 0x1307 JUMPI PUSH1 0x1 PUSH1 0x1 PUSH1 0xA0 SHL SUB DUP3 AND PUSH1 0x0 SWAP1 DUP2 MSTORE PUSH1 0x5 PUSH1 0x20 MSTORE PUSH1 0x40 SWAP1 KECCAK256 SLOAD ISZERO PUSH2 0x12FA JUMPI PUSH1 0x40 DUP1 MLOAD PUSH3 0x461BCD PUSH1 0xE5 SHL DUP2 MSTORE PUSH1 0x20 PUSH1 0x4 DUP3 ADD MSTORE PUSH1 0x14 PUSH1 0x24 DUP3 ADD MSTORE PUSH20 0x185B1C9958591E481A5B88199C9BDB481B1A5CDD PUSH1 0x62 SHL PUSH1 0x44 DUP3 ADD MSTORE SWAP1 MLOAD SWAP1 DUP2 SWAP1 SUB PUSH1 0x64 ADD SWAP1 REVERT JUMPDEST PUSH2 0x127F PUSH1 0x3 PUSH1 0x5 DUP5 PUSH2 0x2016 JUMP JUMPDEST PUSH1 0x1 PUSH1 0x1 PUSH1 0xA0 SHL SUB DUP3 AND PUSH1 0x0 SWAP1 DUP2 MSTORE PUSH1 0x6 PUSH1 0x20 MSTORE PUSH1 0x40 SWAP1 KECCAK256 SLOAD ISZERO PUSH2 0x1367 JUMPI PUSH1 0x40 DUP1 MLOAD PUSH3 0x461BCD PUSH1 0xE5 SHL DUP2 MSTORE PUSH1 0x20 PUSH1 0x4 DUP3 ADD MSTORE PUSH1 0x12 PUSH1 0x24 DUP3 ADD MSTORE PUSH18 0x185B1C9958591E481A5B881D1BC81B1A5CDD PUSH1 0x72 SHL PUSH1 0x44 DUP3 ADD MSTORE SWAP1 MLOAD SWAP1 DUP2 SWAP1 SUB PUSH1 0x64 ADD SWAP1 REVERT JUMPDEST PUSH2 0x1374 PUSH1 0x4 PUSH1 0x6 DUP5 PUSH2 0x2016 JUMP JUMPDEST NUMBER PUSH1 0x7 DUP2 SWAP1 SSTORE POP DUP2 PUSH1 0x1 PUSH1 0x1 PUSH1 0xA0 SHL SUB AND PUSH32 0x4BB8845DA5ED7C2DF200814BA7A0F3DB11326CC817CF9A042FA54D4E5F6F29BB DUP3 PUSH1 0x40 MLOAD DUP1 DUP3 PUSH1 0x2 DUP2 GT ISZERO PUSH2 0x13B7 JUMPI INVALID JUMPDEST DUP2 MSTORE PUSH1 0x20 ADD SWAP2 POP POP PUSH1 0x40 MLOAD DUP1 SWAP2 SUB SWAP1 LOG2 POP POP JUMP JUMPDEST PUSH1 0x60 PUSH1 0x4 DUP1 SLOAD DUP1 PUSH1 0x20 MUL PUSH1 0x20 ADD PUSH1 0x40 MLOAD SWAP1 DUP2 ADD PUSH1 0x40 MSTORE DUP1 SWAP3 SWAP2 SWAP1 DUP2 DUP2 MSTORE PUSH1 0x20 ADD DUP3 DUP1 SLOAD DUP1 ISZERO PUSH2 0x6AA JUMPI PUSH1 0x20 MUL DUP3 ADD SWAP2 SWAP1 PUSH1 0x0 MSTORE PUSH1 0x20 PUSH1 0x0 KECCAK256 SWAP1 DUP2 SLOAD PUSH1 0x1 PUSH1 0x1 PUSH1 0xA0 SHL SUB AND DUP2 MSTORE PUSH1 0x1 SWAP1 SWAP2 ADD SWAP1 PUSH1 0x20 ADD DUP1 DUP4 GT PUSH2 0x68C JUMPI POP POP POP POP POP SWAP1 POP SWAP1 JUMP JUMPDEST PUSH1 0x0 DUP1 SLOAD PUSH3 0x10000 SWAP1 DIV PUSH1 0x1 PUSH1 0x1 PUSH1 0xA0 SHL SUB AND CALLER EQ PUSH2 0x147E JUMPI PUSH1 0x40 DUP1 MLOAD PUSH3 0x461BCD PUSH1 0xE5 SHL DUP2 MSTORE PUSH1 0x20 PUSH1 0x4 DUP3 ADD MSTORE PUSH1 0xA PUSH1 0x24 DUP3 ADD MSTORE PUSH10 0x41646D696E206F6E6C79 PUSH1 0xB0 SHL PUSH1 0x44 DUP3 ADD MSTORE SWAP1 MLOAD SWAP1 DUP2 SWAP1 SUB PUSH1 0x64 ADD SWAP1 REVERT JUMPDEST DUP4 PUSH2 0x14D0 JUMPI PUSH1 0x40 DUP1 MLOAD PUSH3 0x461BCD PUSH1 0xE5 SHL DUP2 MSTORE PUSH1 0x20 PUSH1 0x4 DUP3 ADD MSTORE PUSH1 0x1D PUSH1 0x24 DUP3 ADD MSTORE PUSH32 0x6576656E745369676E6174757265206D757374206E6F7420656D707479000000 PUSH1 0x44 DUP3 ADD MSTORE SWAP1 MLOAD SWAP1 DUP2 SWAP1 SUB PUSH1 0x64 ADD SWAP1 REVERT JUMPDEST PUSH1 0x0 DUP4 PUSH1 0x1 PUSH1 0x1 PUSH1 0x80 SHL SUB AND GT PUSH2 0x152E JUMPI PUSH1 0x40 DUP1 MLOAD PUSH3 0x461BCD PUSH1 0xE5 SHL DUP2 MSTORE PUSH1 0x20 PUSH1 0x4 DUP3 ADD MSTORE PUSH1 0x1F PUSH1 0x24 DUP3 ADD MSTORE PUSH32 0x636865636B20696E646578206D7573742067726561746572207468616E203000 PUSH1 0x44 DUP3 ADD MSTORE SWAP1 MLOAD SWAP1 DUP2 SWAP1 SUB PUSH1 0x64 ADD SWAP1 REVERT JUMPDEST PUSH1 0x0 DUP3 PUSH1 0x3 DUP2 GT ISZERO PUSH2 0x153C JUMPI INVALID JUMPDEST GT DUP1 ISZERO PUSH2 0x1555 JUMPI POP PUSH1 0x3 DUP3 PUSH1 0x3 DUP2 GT ISZERO PUSH2 0x1552 JUMPI INVALID JUMPDEST GT ISZERO JUMPDEST PUSH2 0x159B JUMPI PUSH1 0x40 DUP1 MLOAD PUSH3 0x461BCD PUSH1 0xE5 SHL DUP2 MSTORE PUSH1 0x20 PUSH1 0x4 DUP3 ADD MSTORE PUSH1 0x12 PUSH1 0x24 DUP3 ADD MSTORE PUSH18 0x696E76616C696420636865636B2074797065 PUSH1 0x70 SHL PUSH1 0x44 DUP3 ADD MSTORE SWAP1 MLOAD SWAP1 DUP2 SWAP1 SUB PUSH1 0x64 ADD SWAP1 REVERT JUMPDEST PUSH1 0x0 DUP5 DUP2 MSTORE PUSH1 0xA PUSH1 0x20 SWAP1 DUP2 MSTORE PUSH1 0x40 DUP1 DUP4 KECCAK256 PUSH1 0x1 PUSH1 0x1 PUSH1 0x80 SHL SUB DUP8 AND DUP5 MSTORE SWAP1 SWAP2 MSTORE SWAP1 KECCAK256 SLOAD DUP1 ISZERO PUSH2 0x1665 JUMPI PUSH1 0x0 PUSH1 0x9 PUSH1 0x1 DUP4 SUB DUP2 SLOAD DUP2 LT PUSH2 0x15D6 JUMPI INVALID JUMPDEST SWAP1 PUSH1 0x0 MSTORE PUSH1 0x20 PUSH1 0x0 KECCAK256 SWAP1 PUSH1 0x2 MUL ADD SWAP1 POP DUP4 DUP2 PUSH1 0x1 ADD PUSH1 0x10 PUSH2 0x100 EXP DUP2 SLOAD DUP2 PUSH1 0xFF MUL NOT AND SWAP1 DUP4 PUSH1 0x3 DUP2 GT ISZERO PUSH2 0x1606 JUMPI INVALID JUMPDEST MUL OR SWAP1 SSTORE POP DUP6 PUSH32 0x7B8DDE0DE807EFA8ECBA675EF2BE9D8AF8F01E266085068E60C8E76837EE11A DUP7 DUP7 PUSH1 0x40 MLOAD DUP1 DUP4 PUSH1 0x1 PUSH1 0x1 PUSH1 0x80 SHL SUB AND DUP2 MSTORE PUSH1 0x20 ADD DUP3 PUSH1 0x3 DUP2 GT ISZERO PUSH2 0x164E JUMPI INVALID JUMPDEST DUP2 MSTORE PUSH1 0x20 ADD SWAP3 POP POP POP PUSH1 0x40 MLOAD DUP1 SWAP2 SUB SWAP1 LOG2 POP PUSH2 0x17A2 JUMP JUMPDEST PUSH2 0x166D PUSH2 0x2059 JUMP JUMPDEST PUSH1 0x40 MLOAD DUP1 PUSH1 0x60 ADD PUSH1 0x40 MSTORE DUP1 DUP8 DUP2 MSTORE PUSH1 0x20 ADD DUP7 PUSH1 0x1 PUSH1 0x1 PUSH1 0x80 SHL SUB AND DUP2 MSTORE PUSH1 0x20 ADD DUP6 PUSH1 0x3 DUP2 GT ISZERO PUSH2 0x1699 JUMPI INVALID JUMPDEST SWAP1 MSTORE PUSH1 0x9 DUP1 SLOAD PUSH1 0x1 DUP2 ADD DUP3 SSTORE PUSH1 0x0 SWAP2 SWAP1 SWAP2 MSTORE DUP2 MLOAD PUSH1 0x2 SWAP1 SWAP2 MUL PUSH1 0x0 DUP1 MLOAD PUSH1 0x20 PUSH2 0x2098 DUP4 CODECOPY DUP2 MLOAD SWAP2 MSTORE DUP2 ADD SWAP2 DUP3 SSTORE PUSH1 0x20 DUP4 ADD MLOAD PUSH1 0x0 DUP1 MLOAD PUSH1 0x20 PUSH2 0x2078 DUP4 CODECOPY DUP2 MLOAD SWAP2 MSTORE SWAP1 SWAP2 ADD DUP1 SLOAD PUSH1 0x1 PUSH1 0x1 PUSH1 0x80 SHL SUB SWAP1 SWAP3 AND PUSH1 0x1 PUSH1 0x1 PUSH1 0x80 SHL SUB NOT SWAP1 SWAP3 AND SWAP2 SWAP1 SWAP2 OR DUP1 DUP3 SSTORE PUSH1 0x40 DUP5 ADD MLOAD SWAP4 SWAP5 POP DUP5 SWAP4 SWAP2 SWAP1 PUSH1 0xFF PUSH1 0x80 SHL NOT AND PUSH1 0x1 PUSH1 0x80 SHL DUP4 PUSH1 0x3 DUP2 GT ISZERO PUSH2 0x1721 JUMPI INVALID JUMPDEST MUL OR SWAP1 SSTORE POP POP PUSH1 0x9 SLOAD PUSH1 0x0 DUP9 DUP2 MSTORE PUSH1 0xA PUSH1 0x20 SWAP1 DUP2 MSTORE PUSH1 0x40 DUP1 DUP4 KECCAK256 PUSH1 0x1 PUSH1 0x1 PUSH1 0x80 SHL SUB DUP12 AND DUP1 DUP6 MSTORE SWAP1 DUP4 MSTORE SWAP3 DUP2 SWAP1 KECCAK256 SWAP4 SWAP1 SWAP4 SSTORE SWAP2 MLOAD SWAP1 DUP2 MSTORE DUP9 SWAP3 POP PUSH32 0x441FBDF9D33C890ABF8663A8FD49B8EE03E20BA4CCE546DFA92D8BCE8F1ABF6B SWAP2 DUP9 SWAP2 DUP9 SWAP2 DUP2 ADD DUP3 PUSH1 0x3 DUP2 GT ISZERO PUSH2 0x178F JUMPI INVALID JUMPDEST DUP2 MSTORE PUSH1 0x20 ADD SWAP3 POP POP POP PUSH1 0x40 MLOAD DUP1 SWAP2 SUB SWAP1 LOG2 POP JUMPDEST POP POP NUMBER PUSH1 0x8 SSTORE PUSH1 0x1 SWAP4 SWAP3 POP POP POP JUMP JUMPDEST PUSH1 0x0 SLOAD PUSH3 0x10000 SWAP1 DIV PUSH1 0x1 PUSH1 0x1 PUSH1 0xA0 SHL SUB AND CALLER EQ PUSH2 0x1803 JUMPI PUSH1 0x40 DUP1 MLOAD PUSH3 0x461BCD PUSH1 0xE5 SHL DUP2 MSTORE PUSH1 0x20 PUSH1 0x4 DUP3 ADD MSTORE PUSH1 0xA PUSH1 0x24 DUP3 ADD MSTORE PUSH10 0x41646D696E206F6E6C79 PUSH1 0xB0 SHL PUSH1 0x44 DUP3 ADD MSTORE SWAP1 MLOAD SWAP1 DUP2 SWAP1 SUB PUSH1 0x64 ADD SWAP1 REVERT JUMPDEST PUSH1 0x1 PUSH1 0x1 PUSH1 0xA0 SHL SUB DUP2 AND PUSH1 0x0 SWAP1 DUP2 MSTORE PUSH1 0x2 PUSH1 0x20 MSTORE PUSH1 0x40 SWAP1 KECCAK256 SLOAD PUSH1 0xFF AND PUSH2 0x1862 JUMPI PUSH1 0x40 DUP1 MLOAD PUSH3 0x461BCD PUSH1 0xE5 SHL DUP2 MSTORE PUSH1 0x20 PUSH1 0x4 DUP3 ADD MSTORE PUSH1 0xF PUSH1 0x24 DUP3 ADD MSTORE PUSH15 0x3737BA1030903232BB32B637B832B9 PUSH1 0x89 SHL PUSH1 0x44 DUP3 ADD MSTORE SWAP1 MLOAD SWAP1 DUP2 SWAP1 SUB PUSH1 0x64 ADD SWAP1 REVERT JUMPDEST PUSH1 0x1 PUSH1 0x1 PUSH1 0xA0 SHL SUB DUP2 AND PUSH1 0x0 DUP2 DUP2 MSTORE PUSH1 0x2 PUSH1 0x20 MSTORE PUSH1 0x40 DUP1 DUP3 KECCAK256 DUP1 SLOAD PUSH1 0xFF NOT AND SWAP1 SSTORE MLOAD PUSH32 0x110A48E3E347AE018D4D40446E4E917B416F912DEC489DA19B4507BB9BB18CD4 SWAP2 SWAP1 LOG2 POP JUMP JUMPDEST PUSH1 0x7 SLOAD DUP2 JUMP JUMPDEST PUSH1 0x0 SLOAD PUSH1 0xFF AND ISZERO PUSH2 0x18FF JUMPI PUSH1 0x40 DUP1 MLOAD PUSH3 0x461BCD PUSH1 0xE5 SHL DUP2 MSTORE PUSH1 0x20 PUSH1 0x4 DUP3 ADD MSTORE PUSH1 0x13 PUSH1 0x24 DUP3 ADD MSTORE PUSH19 0x105B1C9958591E481A5B9A5D1A585B1A5E9959 PUSH1 0x6A SHL PUSH1 0x44 DUP3 ADD MSTORE SWAP1 MLOAD SWAP1 DUP2 SWAP1 SUB PUSH1 0x64 ADD SWAP1 REVERT JUMPDEST PUSH1 0x0 DUP1 SLOAD PUSH1 0xFF NOT PUSH1 0x1 PUSH1 0x1 PUSH1 0xA0 SHL SUB SWAP1 SWAP4 AND PUSH3 0x10000 MUL PUSH3 0x10000 PUSH1 0x1 PUSH1 0xB0 SHL SUB NOT SWAP1 SWAP2 AND OR SWAP2 SWAP1 SWAP2 AND PUSH1 0x1 OR SWAP1 SSTORE JUMP JUMPDEST PUSH1 0x0 DUP1 SLOAD PUSH3 0x10000 SWAP1 DIV PUSH1 0x1 PUSH1 0x1 PUSH1 0xA0 SHL SUB AND CALLER EQ PUSH2 0x1983 JUMPI PUSH1 0x40 DUP1 MLOAD PUSH3 0x461BCD PUSH1 0xE5 SHL DUP2 MSTORE PUSH1 0x20 PUSH1 0x4 DUP3 ADD MSTORE PUSH1 0xA PUSH1 0x24 DUP3 ADD MSTORE PUSH10 0x41646D696E206F6E6C79 PUSH1 0xB0 SHL PUSH1 0x44 DUP3 ADD MSTORE SWAP1 MLOAD SWAP1 DUP2 SWAP1 SUB PUSH1 0x64 ADD SWAP1 REVERT JUMPDEST DUP3 PUSH2 0x19D5 JUMPI PUSH1 0x40 DUP1 MLOAD PUSH3 0x461BCD PUSH1 0xE5 SHL DUP2 MSTORE PUSH1 0x20 PUSH1 0x4 DUP3 ADD MSTORE PUSH1 0x1D PUSH1 0x24 DUP3 ADD MSTORE PUSH32 0x6576656E745369676E6174757265206D757374206E6F7420656D707479000000 PUSH1 0x44 DUP3 ADD MSTORE SWAP1 MLOAD SWAP1 DUP2 SWAP1 SUB PUSH1 0x64 ADD SWAP1 REVERT JUMPDEST PUSH1 0x0 DUP3 PUSH1 0x1 PUSH1 0x1 PUSH1 0x80 SHL SUB AND GT PUSH2 0x1A33 JUMPI PUSH1 0x40 DUP1 MLOAD PUSH3 0x461BCD PUSH1 0xE5 SHL DUP2 MSTORE PUSH1 0x20 PUSH1 0x4 DUP3 ADD MSTORE PUSH1 0x1F PUSH1 0x24 DUP3 ADD MSTORE PUSH32 0x636865636B20696E646578206D7573742067726561746572207468656E203000 PUSH1 0x44 DUP3 ADD MSTORE SWAP1 MLOAD SWAP1 DUP2 SWAP1 SUB PUSH1 0x64 ADD SWAP1 REVERT JUMPDEST PUSH1 0x0 DUP4 DUP2 MSTORE PUSH1 0xA PUSH1 0x20 SWAP1 DUP2 MSTORE PUSH1 0x40 DUP1 DUP4 KECCAK256 PUSH1 0x1 PUSH1 0x1 PUSH1 0x80 SHL SUB DUP7 AND DUP5 MSTORE SWAP1 SWAP2 MSTORE SWAP1 KECCAK256 SLOAD PUSH2 0x1A98 JUMPI PUSH1 0x40 DUP1 MLOAD PUSH3 0x461BCD PUSH1 0xE5 SHL DUP2 MSTORE PUSH1 0x20 PUSH1 0x4 DUP3 ADD MSTORE PUSH1 0xE PUSH1 0x24 DUP3 ADD MSTORE PUSH14 0x1C9D5B19481B9BDD08195E1A5CDD PUSH1 0x92 SHL PUSH1 0x44 DUP3 ADD MSTORE SWAP1 MLOAD SWAP1 DUP2 SWAP1 SUB PUSH1 0x64 ADD SWAP1 REVERT JUMPDEST PUSH1 0x0 DUP4 DUP2 MSTORE PUSH1 0xA PUSH1 0x20 SWAP1 DUP2 MSTORE PUSH1 0x40 DUP1 DUP4 KECCAK256 PUSH1 0x1 PUSH1 0x1 PUSH1 0x80 SHL SUB DUP7 AND DUP5 MSTORE SWAP1 SWAP2 MSTORE DUP2 KECCAK256 DUP1 SLOAD SWAP2 SWAP1 SSTORE PUSH2 0x1AC7 PUSH2 0x2059 JUMP JUMPDEST PUSH1 0x9 PUSH1 0x1 DUP4 SUB DUP2 SLOAD DUP2 LT PUSH2 0x1AD7 JUMPI INVALID JUMPDEST PUSH1 0x0 SWAP2 DUP3 MSTORE PUSH1 0x20 SWAP2 DUP3 SWAP1 KECCAK256 PUSH1 0x40 DUP1 MLOAD PUSH1 0x60 DUP2 ADD DUP3 MSTORE PUSH1 0x2 SWAP1 SWAP4 MUL SWAP1 SWAP2 ADD DUP1 SLOAD DUP4 MSTORE PUSH1 0x1 DUP2 ADD SLOAD PUSH1 0x1 PUSH1 0x1 PUSH1 0x80 SHL SUB DUP2 AND SWAP5 DUP5 ADD SWAP5 SWAP1 SWAP5 MSTORE SWAP2 SWAP3 SWAP1 DUP4 ADD SWAP1 PUSH1 0xFF PUSH1 0x1 PUSH1 0x80 SHL SWAP1 SWAP2 DIV AND PUSH1 0x3 DUP2 GT ISZERO PUSH2 0x1B2A JUMPI INVALID JUMPDEST PUSH1 0x3 DUP2 GT ISZERO PUSH2 0x1B35 JUMPI INVALID JUMPDEST SWAP1 MSTORE POP PUSH1 0x9 SLOAD SWAP1 SWAP2 POP DUP3 EQ PUSH2 0x1C63 JUMPI PUSH2 0x1B4C PUSH2 0x2059 JUMP JUMPDEST PUSH1 0x9 DUP1 SLOAD PUSH1 0x0 NOT DUP2 ADD SWAP1 DUP2 LT PUSH2 0x1B5E JUMPI INVALID JUMPDEST PUSH1 0x0 SWAP2 DUP3 MSTORE PUSH1 0x20 SWAP2 DUP3 SWAP1 KECCAK256 PUSH1 0x40 DUP1 MLOAD PUSH1 0x60 DUP2 ADD DUP3 MSTORE PUSH1 0x2 SWAP1 SWAP4 MUL SWAP1 SWAP2 ADD DUP1 SLOAD DUP4 MSTORE PUSH1 0x1 DUP2 ADD SLOAD PUSH1 0x1 PUSH1 0x1 PUSH1 0x80 SHL SUB DUP2 AND SWAP5 DUP5 ADD SWAP5 SWAP1 SWAP5 MSTORE SWAP2 SWAP3 SWAP1 DUP4 ADD SWAP1 PUSH1 0xFF PUSH1 0x1 PUSH1 0x80 SHL SWAP1 SWAP2 DIV AND PUSH1 0x3 DUP2 GT ISZERO PUSH2 0x1BB1 JUMPI INVALID JUMPDEST PUSH1 0x3 DUP2 GT ISZERO PUSH2 0x1BBC JUMPI INVALID JUMPDEST DUP2 MSTORE POP POP SWAP1 POP DUP1 PUSH1 0x9 PUSH1 0x1 DUP6 SUB DUP2 SLOAD DUP2 LT PUSH2 0x1BD3 JUMPI INVALID JUMPDEST PUSH1 0x0 SWAP2 DUP3 MSTORE PUSH1 0x20 SWAP2 DUP3 SWAP1 KECCAK256 DUP4 MLOAD PUSH1 0x2 SWAP3 SWAP1 SWAP3 MUL ADD SWAP1 DUP2 SSTORE SWAP1 DUP3 ADD MLOAD PUSH1 0x1 DUP3 ADD DUP1 SLOAD PUSH1 0x1 PUSH1 0x1 PUSH1 0x80 SHL SUB NOT AND PUSH1 0x1 PUSH1 0x1 PUSH1 0x80 SHL SUB SWAP1 SWAP3 AND SWAP2 SWAP1 SWAP2 OR DUP1 DUP3 SSTORE PUSH1 0x40 DUP5 ADD MLOAD SWAP2 SWAP1 PUSH1 0xFF PUSH1 0x80 SHL NOT AND PUSH1 0x1 PUSH1 0x80 SHL DUP4 PUSH1 0x3 DUP2 GT ISZERO PUSH2 0x1C2F JUMPI INVALID JUMPDEST MUL OR SWAP1 SSTORE POP POP DUP2 MLOAD PUSH1 0x0 SWAP1 DUP2 MSTORE PUSH1 0xA PUSH1 0x20 SWAP1 DUP2 MSTORE PUSH1 0x40 DUP1 DUP4 KECCAK256 SWAP5 DUP3 ADD MLOAD PUSH1 0x1 PUSH1 0x1 PUSH1 0x80 SHL SUB AND DUP4 MSTORE SWAP4 SWAP1 MSTORE SWAP2 SWAP1 SWAP2 KECCAK256 DUP4 SWAP1 SSTORE POP JUMPDEST PUSH1 0x9 DUP1 SLOAD DUP1 PUSH2 0x1C6E JUMPI INVALID JUMPDEST PUSH1 0x0 DUP3 DUP2 MSTORE PUSH1 0x20 DUP1 DUP3 KECCAK256 PUSH1 0x2 PUSH1 0x0 NOT SWAP1 SWAP5 ADD SWAP4 DUP5 MUL ADD SWAP2 DUP3 SSTORE PUSH1 0x1 SWAP2 SWAP1 SWAP2 ADD DUP1 SLOAD PUSH17 0xFFFFFFFFFFFFFFFFFFFFFFFFFFFFFFFFFF NOT AND SWAP1 SSTORE SWAP2 SSTORE DUP2 MLOAD DUP3 DUP3 ADD MLOAD PUSH1 0x40 DUP1 DUP6 ADD MLOAD SWAP1 MLOAD PUSH1 0x1 PUSH1 0x1 PUSH1 0x80 SHL SUB DUP4 AND DUP2 MSTORE SWAP3 SWAP4 PUSH32 0x89FDEF5AE498CF51728B26200045DF6C8A41D44FEE8191778FA2BCB855A725DE SWAP4 SWAP1 DUP2 ADD DUP3 PUSH1 0x3 DUP2 GT ISZERO PUSH2 0x1CF4 JUMPI INVALID JUMPDEST DUP2 MSTORE PUSH1 0x20 ADD SWAP3 POP POP POP PUSH1 0x40 MLOAD DUP1 SWAP2 SUB SWAP1 LOG2 POP POP NUMBER PUSH1 0x8 SSTORE POP PUSH1 0x1 SWAP3 SWAP2 POP POP JUMP JUMPDEST PUSH1 0x0 SLOAD PUSH3 0x10000 SWAP1 DIV PUSH1 0x1 PUSH1 0x1 PUSH1 0xA0 SHL SUB AND CALLER EQ PUSH2 0x1D66 JUMPI PUSH1 0x40 DUP1 MLOAD PUSH3 0x461BCD PUSH1 0xE5 SHL DUP2 MSTORE PUSH1 0x20 PUSH1 0x4 DUP3 ADD MSTORE PUSH1 0xA PUSH1 0x24 DUP3 ADD MSTORE PUSH10 0x41646D696E206F6E6C79 PUSH1 0xB0 SHL PUSH1 0x44 DUP3 ADD MSTORE SWAP1 MLOAD SWAP1 DUP2 SWAP1 SUB PUSH1 0x64 ADD SWAP1 REVERT JUMPDEST PUSH1 0x0 SLOAD PUSH2 0x100 SWAP1 DIV PUSH1 0xFF AND ISZERO PUSH2 0x1DB5 JUMPI PUSH1 0x40 DUP1 MLOAD PUSH3 0x461BCD PUSH1 0xE5 SHL DUP2 MSTORE PUSH1 0x20 PUSH1 0x4 DUP3 ADD MSTORE PUSH1 0xF PUSH1 0x24 DUP3 ADD MSTORE PUSH15 0x185B1C9958591E48195B98589B1959 PUSH1 0x8A SHL PUSH1 0x44 DUP3 ADD MSTORE SWAP1 MLOAD SWAP1 DUP2 SWAP1 SUB PUSH1 0x64 ADD SWAP1 REVERT JUMPDEST PUSH1 0x0 DUP1 SLOAD PUSH2 0xFF00 NOT AND PUSH2 0x100 OR DUP2 SSTORE PUSH1 0x40 MLOAD PUSH1 0x1 SWAP2 PUSH32 0x733A7F99819DC7466BFF56E7C0B6753B43B750A692F2A5BB4FE373815A0C7845 SWAP2 LOG2 JUMP JUMPDEST PUSH1 0x0 SLOAD PUSH3 0x10000 SWAP1 DIV PUSH1 0x1 PUSH1 0x1 PUSH1 0xA0 SHL SUB AND DUP2 JUMP JUMPDEST PUSH1 0x1 SLOAD PUSH1 0x1 PUSH1 0x1 PUSH1 0xA0 SHL SUB AND CALLER EQ PUSH2 0x1E54 JUMPI PUSH1 0x40 DUP1 MLOAD PUSH3 0x461BCD PUSH1 0xE5 SHL DUP2 MSTORE PUSH1 0x20 PUSH1 0x4 DUP3 ADD MSTORE PUSH1 0xE PUSH1 0x24 DUP3 ADD MSTORE PUSH14 0x4E65772061646D696E206F6E6C79 PUSH1 0x90 SHL PUSH1 0x44 DUP3 ADD MSTORE SWAP1 MLOAD SWAP1 DUP2 SWAP1 SUB PUSH1 0x64 ADD SWAP1 REVERT JUMPDEST PUSH1 0x1 DUP1 SLOAD PUSH1 0x0 DUP1 SLOAD PUSH3 0x10000 PUSH1 0x1 PUSH1 0xB0 SHL SUB NOT AND PUSH1 0x1 PUSH1 0x1 PUSH1 0xA0 SHL SUB DUP1 DUP5 AND PUSH3 0x10000 SWAP1 DUP2 MUL SWAP3 SWAP1 SWAP3 OR DUP1 DUP5 SSTORE PUSH1 0x1 PUSH1 0x1 PUSH1 0xA0 SHL SUB NOT SWAP1 SWAP5 AND SWAP1 SWAP5 SSTORE PUSH1 0x40 MLOAD SWAP3 DIV SWAP1 SWAP3 AND SWAP2 PUSH32 0x7CE7EC0B50378FB6C0186FFB5F48325F6593FCB4CA4386F21861AF3129188F5C SWAP2 LOG2 JUMP JUMPDEST PUSH1 0x8 SLOAD DUP2 JUMP JUMPDEST PUSH1 0x1 PUSH1 0x1 PUSH1 0xA0 SHL SUB DUP3 AND PUSH1 0x0 SWAP1 DUP2 MSTORE PUSH1 0x20 DUP5 SWAP1 MSTORE PUSH1 0x40 DUP2 KECCAK256 DUP1 SLOAD SWAP2 SWAP1 SSTORE DUP5 SLOAD PUSH1 0x0 NOT SWAP2 DUP3 ADD SWAP2 ADD DUP2 EQ PUSH2 0x1F94 JUMPI DUP5 SLOAD DUP6 SWAP1 PUSH1 0x0 NOT DUP2 ADD SWAP1 DUP2 LT PUSH2 0x1F03 JUMPI INVALID JUMPDEST SWAP1 PUSH1 0x0 MSTORE PUSH1 0x20 PUSH1 0x0 KECCAK256 ADD PUSH1 0x0 SWAP1 SLOAD SWAP1 PUSH2 0x100 EXP SWAP1 DIV PUSH1 0x1 PUSH1 0x1 PUSH1 0xA0 SHL SUB AND DUP6 DUP3 DUP2 SLOAD DUP2 LT PUSH2 0x1F2D JUMPI INVALID JUMPDEST SWAP1 PUSH1 0x0 MSTORE PUSH1 0x20 PUSH1 0x0 KECCAK256 ADD PUSH1 0x0 PUSH2 0x100 EXP DUP2 SLOAD DUP2 PUSH1 0x1 PUSH1 0x1 PUSH1 0xA0 SHL SUB MUL NOT AND SWAP1 DUP4 PUSH1 0x1 PUSH1 0x1 PUSH1 0xA0 SHL SUB AND MUL OR SWAP1 SSTORE POP DUP1 PUSH1 0x1 ADD DUP5 PUSH1 0x0 DUP8 DUP5 DUP2 SLOAD DUP2 LT PUSH2 0x1F6E JUMPI INVALID JUMPDEST PUSH1 0x0 SWAP2 DUP3 MSTORE PUSH1 0x20 DUP1 DUP4 KECCAK256 SWAP1 SWAP2 ADD SLOAD PUSH1 0x1 PUSH1 0x1 PUSH1 0xA0 SHL SUB AND DUP4 MSTORE DUP3 ADD SWAP3 SWAP1 SWAP3 MSTORE PUSH1 0x40 ADD SWAP1 KECCAK256 SSTORE JUMPDEST DUP5 DUP1 SLOAD DUP1 PUSH2 0x1F9E JUMPI INVALID JUMPDEST PUSH1 0x0 DUP3 DUP2 MSTORE PUSH1 0x20 SWAP1 KECCAK256 DUP2 ADD PUSH1 0x0 NOT SWAP1 DUP2 ADD DUP1 SLOAD PUSH1 0x1 PUSH1 0x1 PUSH1 0xA0 SHL SUB NOT AND SWAP1 SSTORE ADD SWAP1 SSTORE PUSH1 0x40 MLOAD PUSH1 0x1 PUSH1 0x1 PUSH1 0xA0 SHL SUB DUP5 AND SWAP1 PUSH32 0x91B762FBA034B39C8B14C1E6463A15B1F4C211DCD0023F7FA2F4AE2928DFC44D SWAP1 DUP5 SWAP1 DUP1 DUP3 PUSH1 0x2 DUP2 GT ISZERO PUSH2 0x1FFF JUMPI INVALID JUMPDEST DUP2 MSTORE PUSH1 0x20 ADD SWAP2 POP POP PUSH1 0x40 MLOAD DUP1 SWAP2 SUB SWAP1 LOG2 POP POP POP POP POP JUMP JUMPDEST DUP3 SLOAD PUSH1 0x1 DUP2 ADD DUP5 SSTORE PUSH1 0x0 DUP5 DUP2 MSTORE PUSH1 0x20 DUP1 DUP3 KECCAK256 SWAP1 SWAP3 ADD DUP1 SLOAD PUSH1 0x1 PUSH1 0x1 PUSH1 0xA0 SHL SUB SWAP1 SWAP5 AND PUSH1 0x1 PUSH1 0x1 PUSH1 0xA0 SHL SUB NOT SWAP1 SWAP5 AND DUP5 OR SWAP1 SSTORE SWAP4 SLOAD SWAP2 DUP5 MSTORE SWAP2 SWAP1 SWAP2 MSTORE PUSH1 0x40 SWAP1 SWAP2 KECCAK256 SSTORE JUMP JUMPDEST PUSH1 0x40 DUP1 MLOAD PUSH1 0x60 DUP2 ADD DUP3 MSTORE PUSH1 0x0 DUP1 DUP3 MSTORE PUSH1 0x20 DUP3 ADD DUP2 SWAP1 MSTORE SWAP1 SWAP2 DUP3 ADD MSTORE SWAP1 JUMP INVALID PUSH15 0x1540171B6C0C960B71A7020D9F6007 PUSH32 0x6AF931A8BBF590DA0223DACF75C7B06E1540171B6C0C960B71A7020D9F60077F PUSH11 0xF931A8BBF590DA0223DACF PUSH22 0xC7AFA264697066735822122009F0FF6F52D3A0516E12 0x1E CREATE CALL 0x4D 0x29 0xCD 0x49 0xD5 0xD2 SWAP13 0xDE RETURNDATACOPY PUSH11 0x90CCB20CEA35BC29876473 PUSH16 0x6C634300060C00330000000000000000 "
        },
        "methodIdentifiers": {
          "addBlacklist(address,uint8)": "6dfb5176",
          "addDeveloper(address)": "22fbf1e8",
          "addOrUpdateRule(bytes32,uint128,uint8)": "89449301",
          "admin()": "f851a440",
          "blackLastUpdatedNumber()": "abbcbd3a",
          "commitChangeAdmin(address)": "4fb9e9b7",
          "confirmChangeAdmin()": "fb48270c",
          "devVerifyEnabled()": "327564b6",
          "disableDevVerify()": "43e0c73a",
          "enableDevVerify()": "db6619b0",
          "getBlacksFrom()": "18c66212",
          "getBlacksTo()": "70b03fc5",
          "getRuleByIndex(uint32)": "4f608dd3",
          "getRuleByKey(bytes32,uint128)": "0c476327",
          "initialize(address)": "c4d66de8",
          "initializeV2()": "5cd8a76b",
          "initialized()": "158ef93e",
          "isBlackAddress(address)": "143d79b6",
          "isDeveloper(address)": "5eca4a70",
          "pendingAdmin()": "26782247",
          "removeBlacklist(address,uint8)": "349cb711",
          "removeDeveloper(address)": "9e23c209",
          "removeRule(bytes32,uint128)": "cec0705a",
          "rulesLastUpdatedNumber()": "ff0617df",
          "rulesLen()": "367f8a58"
        }
      }
    }
  }
}