{
  "_format": "hh-sol-artifact-1",
  "contractName": "MockList",
  "sourceName": "cache/solpp-generated-contracts/v1/mock/MockList.sol",
  "abi": [
    {
      "inputs": [],
      "name": "clear",
      "outputs": [],
      "stateMutability": "nonpayable",
      "type": "function"
    },
    {
      "inputs": [
        {
          "internalType": "contract IVotePool",
          "name": "_value",
          "type": "address"
        }
      ],
      "name": "improveRanking",
      "outputs": [],
      "stateMutability": "nonpayable",
      "type": "function"
    },
    {
      "inputs": [],
      "name": "list",
      "outputs": [
        {
          "internalType": "contract IVotePool",
          "name": "head",
          "type": "address"
        },
        {
          "internalType": "contract IVotePool",
          "name": "tail",
          "type": "address"
        },
        {
          "internalType": "uint8",
          "name": "length",
          "type": "uint8"
        }
      ],
      "stateMutability": "view",
      "type": "function"
    },
    {
      "inputs": [
        {
          "internalType": "contract IVotePool",
          "name": "_value",
          "type": "address"
        }
      ],
      "name": "lowerRanking",
      "outputs": [],
      "stateMutability": "nonpayable",
      "type": "function"
    },
    {
      "inputs": [
        {
          "internalType": "contract IVotePool",
          "name": "_value",
          "type": "address"
        }
      ],
      "name": "next",
      "outputs": [
        {
          "internalType": "contract IVotePool",
          "name": "",
          "type": "address"
        }
      ],
      "stateMutability": "view",
      "type": "function"
    },
    {
      "inputs": [
        {
          "internalType": "contract IVotePool",
          "name": "_value",
          "type": "address"
        }
      ],
      "name": "prev",
      "outputs": [
        {
          "internalType": "contract IVotePool",
          "name": "",
          "type": "address"
        }
      ],
      "stateMutability": "view",
      "type": "function"
    },
    {
      "inputs": [
        {
          "internalType": "contract IVotePool",
          "name": "_value",
          "type": "address"
        }
      ],
      "name": "removeRanking",
      "outputs": [],
      "stateMutability": "nonpayable",
      "type": "function"
    }
  ],
  "bytecode": "0x608060405234801561001057600080fd5b50610df0806100206000396000f3fe608060405234801561001057600080fd5b506004361061007d5760003560e01c806353d4854a1161005b57806353d4854a14610103578063a3553b8214610129578063ab73e3161461014f578063bc6a6af2146101755761007d565b80630f560cd71461008257806345788ce2146100b757806352efea6e146100f9575b600080fd5b61008a61019b565b604080516001600160a01b03948516815292909316602083015260ff168183015290519081900360600190f35b6100dd600480360360208110156100cd57600080fd5b50356001600160a01b03166101bd565b604080516001600160a01b039092168252519081900360200190f35b6101016101db565b005b6101016004803603602081101561011957600080fd5b50356001600160a01b0316610229565b6101016004803603602081101561013f57600080fd5b50356001600160a01b0316610234565b6100dd6004803603602081101561016557600080fd5b50356001600160a01b031661023f565b6101016004803603602081101561018b57600080fd5b50356001600160a01b031661025d565b6000546001546001600160a01b0391821691811690600160a01b900460ff1683565b6001600160a01b039081166000908152600260205260409020541690565b6001546001600160a01b03165b6001600160a01b03811615610226576001600160a01b038082166000908152600260205260408120549091169061021f9083610268565b90506101e8565b50565b610226600082610268565b61022660008261045b565b6001600160a01b039081166000908152600360205260409020541690565b61022660008261081e565b81546001600160a01b0382811691161480159061029f57506001600160a01b03818116600090815260028401602052604090205416155b156102a957610457565b60018201546001600160a01b03828116911614156102f5576001600160a01b0380821660009081526002840160205260409020546001840180546001600160a01b031916919092161790555b81546001600160a01b0382811691161415610338576001600160a01b03808216600090815260038401602052604090205483546001600160a01b03191691161782555b6001600160a01b038082166000908152600384016020526040902054168015610393576001600160a01b038083166000908152600285016020526040808220548484168352912080546001600160a01b031916919092161790555b6001600160a01b0380831660009081526002850160205260409020541680156103ee576001600160a01b038084166000908152600386016020526040808220548484168352912080546001600160a01b031916919092161790555b50506001600160a01b0381166000908152600283016020908152604080832080546001600160a01b0319908116909155600386019092529091208054909116905560018201805460001960ff600160a01b808404821692909201160260ff60a01b199091161790555b5050565b6001600160a01b03808216600081815260038501602052604090205460018501549083169216148061049457506001600160a01b038116155b8061056e5750816001600160a01b031663f1cea4c76040518163ffffffff1660e01b815260040160206040518083038186803b1580156104d357600080fd5b505afa1580156104e7573d6000803e3d6000fd5b505050506040513d60208110156104fd57600080fd5b50516040805163f1cea4c760e01b815290516001600160a01b0384169163f1cea4c7916004808301926020929190829003018186803b15801561053f57600080fd5b505afa158015610553573d6000803e3d6000fd5b505050506040513d602081101561056957600080fd5b505111155b156105795750610457565b6001600160a01b038083166000818152600286016020526040808220548585168352912080546001600160a01b031916918416919091179055845490911614156105db5782546001600160a01b0319166001600160a01b03821617835561061d565b6001600160a01b0382811660009081526002850160209081526040808320548416835260038701909152902080546001600160a01b0319169183169190911790555b6001600160a01b038116158015906107035750816001600160a01b031663f1cea4c76040518163ffffffff1660e01b815260040160206040518083038186803b15801561066957600080fd5b505afa15801561067d573d6000803e3d6000fd5b505050506040513d602081101561069357600080fd5b50516040805163f1cea4c760e01b815290516001600160a01b0384169163f1cea4c7916004808301926020929190829003018186803b1580156106d557600080fd5b505afa1580156106e9573d6000803e3d6000fd5b505050506040513d60208110156106ff57600080fd5b5051115b1561072a576001600160a01b0390811660009081526003840160205260409020541661061d565b6001600160a01b0381166107a0576001830180546001600160a01b038481166000818152600288016020908152604080832080549686166001600160a01b031997881617905560038a01909152808220805486169055855490931681529190912080548316821790558254909116179055610819565b6001600160a01b038082166000818152600286016020818152604080842080548716855260038a018084528286208054898c166001600160a01b0319918216811790925586865283548289528589208054831691909b161790995590845291852080548816871790559490935252815490921690911790555b505050565b6001820154600160a01b900460ff166108815781546001600160a01b0382166001600160a01b0319918216811784556001808501805460ff600160a01b91909516909317838104851690920190931690910260ff60a01b19909116179055610457565b81546001600160a01b038281169116141561089b57610457565b6001600160a01b0380821660009081526002840160205260409020541680610a3a576001808401805460ff600160a01b80830482169094011690920260ff60a01b1990921691909117908190556040805163f1cea4c760e01b815290516001600160a01b039092169163f1cea4c791600480820192602092909190829003018186803b15801561092a57600080fd5b505afa15801561093e573d6000803e3d6000fd5b505050506040513d602081101561095457600080fd5b50516040805163f1cea4c760e01b815290516001600160a01b0385169163f1cea4c7916004808301926020929190829003018186803b15801561099657600080fd5b505afa1580156109aa573d6000803e3d6000fd5b505050506040513d60208110156109c057600080fd5b505111610a2657506001820180546001600160a01b038381166000818152600287016020908152604080832080549686166001600160a01b0319978816179055865490941682526003880190529190912080548316821790558254909116179055610457565b5060018201546001600160a01b0316610bc7565b806001600160a01b031663f1cea4c76040518163ffffffff1660e01b815260040160206040518083038186803b158015610a7357600080fd5b505afa158015610a87573d6000803e3d6000fd5b505050506040513d6020811015610a9d57600080fd5b50516040805163f1cea4c760e01b815290516001600160a01b0385169163f1cea4c7916004808301926020929190829003018186803b158015610adf57600080fd5b505afa158015610af3573d6000803e3d6000fd5b505050506040513d6020811015610b0957600080fd5b505111610b165750610457565b6001600160a01b038083166000818152600386016020526040808220548585168352912080546001600160a01b03191691841691909117905560018501549091161415610b7f576001830180546001600160a01b0319166001600160a01b038316179055610bc7565b6001600160a01b03808316600090815260028501602081815260408084205460038901835281852054861685529290915290912080546001600160a01b031916919092161790555b6001600160a01b03811615801590610cad5750806001600160a01b031663f1cea4c76040518163ffffffff1660e01b815260040160206040518083038186803b158015610c1357600080fd5b505afa158015610c27573d6000803e3d6000fd5b505050506040513d6020811015610c3d57600080fd5b50516040805163f1cea4c760e01b815290516001600160a01b0385169163f1cea4c7916004808301926020929190829003018186803b158015610c7f57600080fd5b505afa158015610c93573d6000803e3d6000fd5b505050506040513d6020811015610ca957600080fd5b5051115b15610cd4576001600160a01b03908116600090815260028401602052604090205416610bc7565b6001600160a01b038116610d485782546001600160a01b038381166000818152600387016020908152604080832080549686166001600160a01b0319978816179055885490941682526002880190528281208054851683179055818152919091208054831690558454909116178355610819565b6001600160a01b0390811660008181526003850160209081526040808320805496861680855282852080549888166001600160a01b0319998a1617905581549096168452600290970190915280822080548616851790558554851684179095559182529290208054909116909117905556fea2646970667358221220aa455886740fad94661215ecea16d25975702d5a8a997946ef35a003a194dfe664736f6c634300060c0033",
  "linkReferences": {},
  "deployedLinkReferences": {}
}