{
  "_format": "hh-sol-artifact-1",
  "contractName": "Proposal",
  "sourceName": "cache/solpp-generated-contracts/Proposal.sol",
  "abi": [
    {
      "anonymous": false,
      "inputs": [
        {
          "indexed": true,
          "internalType": "bytes32",
          "name": "id",
          "type": "bytes32"
        },
        {
          "indexed": true,
          "internalType": "address",
          "name": "proposer",
          "type": "address"
        },
        {
          "indexed": true,
          "internalType": "address",
          "name": "dst",
          "type": "address"
        },
        {
          "indexed": false,
          "internalType": "uint256",
          "name": "time",
          "type": "uint256"
        }
      ],
      "name": "LogCreateProposal",
      "type": "event"
    },
    {
      "anonymous": false,
      "inputs": [
        {
          "indexed": true,
          "internalType": "bytes32",
          "name": "id",
          "type": "bytes32"
        },
        {
          "indexed": true,
          "internalType": "address",
          "name": "dst",
          "type": "address"
        },
        {
          "indexed": false,
          "internalType": "uint256",
          "name": "time",
          "type": "uint256"
        }
      ],
      "name": "LogPassProposal",
      "type": "event"
    },
    {
      "anonymous": false,
      "inputs": [
        {
          "indexed": true,
          "internalType": "bytes32",
          "name": "id",
          "type": "bytes32"
        },
        {
          "indexed": true,
          "internalType": "address",
          "name": "dst",
          "type": "address"
        },
        {
          "indexed": false,
          "internalType": "uint256",
          "name": "time",
          "type": "uint256"
        }
      ],
      "name": "LogRejectProposal",
      "type": "event"
    },
    {
      "anonymous": false,
      "inputs": [
        {
          "indexed": true,
          "internalType": "address",
          "name": "val",
          "type": "address"
        },
        {
          "indexed": false,
          "internalType": "uint256",
          "name": "time",
          "type": "uint256"
        }
      ],
      "name": "LogSetUnpassed",
      "type": "event"
    },
    {
      "anonymous": false,
      "inputs": [
        {
          "indexed": true,
          "internalType": "bytes32",
          "name": "id",
          "type": "bytes32"
        },
        {
          "indexed": true,
          "internalType": "address",
          "name": "voter",
          "type": "address"
        },
        {
          "indexed": false,
          "internalType": "bool",
          "name": "auth",
          "type": "bool"
        },
        {
          "indexed": false,
          "internalType": "uint256",
          "name": "time",
          "type": "uint256"
        }
      ],
      "name": "LogVote",
      "type": "event"
    },
    {
      "inputs": [],
      "name": "MaxValidators",
      "outputs": [
        {
          "internalType": "uint16",
          "name": "",
          "type": "uint16"
        }
      ],
      "stateMutability": "view",
      "type": "function"
    },
    {
      "inputs": [],
      "name": "MinimalStakingCoin",
      "outputs": [
        {
          "internalType": "uint256",
          "name": "",
          "type": "uint256"
        }
      ],
      "stateMutability": "view",
      "type": "function"
    },
    {
      "inputs": [],
      "name": "ProposalAddr",
      "outputs": [
        {
          "internalType": "address",
          "name": "",
          "type": "address"
        }
      ],
      "stateMutability": "view",
      "type": "function"
    },
    {
      "inputs": [],
      "name": "PunishContractAddr",
      "outputs": [
        {
          "internalType": "address",
          "name": "",
          "type": "address"
        }
      ],
      "stateMutability": "view",
      "type": "function"
    },
    {
      "inputs": [],
      "name": "StakingLockPeriod",
      "outputs": [
        {
          "internalType": "uint64",
          "name": "",
          "type": "uint64"
        }
      ],
      "stateMutability": "view",
      "type": "function"
    },
    {
      "inputs": [],
      "name": "ValidatorContractAddr",
      "outputs": [
        {
          "internalType": "address",
          "name": "",
          "type": "address"
        }
      ],
      "stateMutability": "view",
      "type": "function"
    },
    {
      "inputs": [],
      "name": "WithdrawProfitPeriod",
      "outputs": [
        {
          "internalType": "uint64",
          "name": "",
          "type": "uint64"
        }
      ],
      "stateMutability": "view",
      "type": "function"
    },
    {
      "inputs": [
        {
          "internalType": "address",
          "name": "dst",
          "type": "address"
        },
        {
          "internalType": "string",
          "name": "details",
          "type": "string"
        }
      ],
      "name": "createProposal",
      "outputs": [
        {
          "internalType": "bool",
          "name": "",
          "type": "bool"
        }
      ],
      "stateMutability": "nonpayable",
      "type": "function"
    },
    {
      "inputs": [
        {
          "internalType": "address[]",
          "name": "vals",
          "type": "address[]"
        }
      ],
      "name": "initialize",
      "outputs": [],
      "stateMutability": "nonpayable",
      "type": "function"
    },
    {
      "inputs": [],
      "name": "initialized",
      "outputs": [
        {
          "internalType": "bool",
          "name": "",
          "type": "bool"
        }
      ],
      "stateMutability": "view",
      "type": "function"
    },
    {
      "inputs": [
        {
          "internalType": "address",
          "name": "",
          "type": "address"
        }
      ],
      "name": "pass",
      "outputs": [
        {
          "internalType": "bool",
          "name": "",
          "type": "bool"
        }
      ],
      "stateMutability": "view",
      "type": "function"
    },
    {
      "inputs": [],
      "name": "proposalLastingPeriod",
      "outputs": [
        {
          "internalType": "uint256",
          "name": "",
          "type": "uint256"
        }
      ],
      "stateMutability": "view",
      "type": "function"
    },
    {
      "inputs": [
        {
          "internalType": "bytes32",
          "name": "",
          "type": "bytes32"
        }
      ],
      "name": "proposals",
      "outputs": [
        {
          "internalType": "address",
          "name": "proposer",
          "type": "address"
        },
        {
          "internalType": "address",
          "name": "dst",
          "type": "address"
        },
        {
          "internalType": "string",
          "name": "details",
          "type": "string"
        },
        {
          "internalType": "uint256",
          "name": "createTime",
          "type": "uint256"
        },
        {
          "internalType": "uint16",
          "name": "agree",
          "type": "uint16"
        },
        {
          "internalType": "uint16",
          "name": "reject",
          "type": "uint16"
        },
        {
          "internalType": "bool",
          "name": "resultExist",
          "type": "bool"
        }
      ],
      "stateMutability": "view",
      "type": "function"
    },
    {
      "inputs": [
        {
          "internalType": "address",
          "name": "val",
          "type": "address"
        }
      ],
      "name": "setUnpassed",
      "outputs": [
        {
          "internalType": "bool",
          "name": "",
          "type": "bool"
        }
      ],
      "stateMutability": "nonpayable",
      "type": "function"
    },
    {
      "inputs": [
        {
          "internalType": "bytes32",
          "name": "id",
          "type": "bytes32"
        },
        {
          "internalType": "bool",
          "name": "auth",
          "type": "bool"
        }
      ],
      "name": "voteProposal",
      "outputs": [
        {
          "internalType": "bool",
          "name": "",
          "type": "bool"
        }
      ],
      "stateMutability": "nonpayable",
      "type": "function"
    },
    {
      "inputs": [
        {
          "internalType": "address",
          "name": "",
          "type": "address"
        },
        {
          "internalType": "bytes32",
          "name": "",
          "type": "bytes32"
        }
      ],
      "name": "votes",
      "outputs": [
        {
          "internalType": "address",
          "name": "voter",
          "type": "address"
        },
        {
          "internalType": "uint256",
          "name": "voteTime",
          "type": "uint256"
        },
        {
          "internalType": "bool",
          "name": "auth",
          "type": "bool"
        }
      ],
      "stateMutability": "view",
      "type": "function"
    }
  ],
  "bytecode": "0x608060405234801561001057600080fd5b506112f7806100206000396000f3fe608060405234801561001057600080fd5b50600436106101005760003560e01c806382c4b3b211610097578063c967f90f11610066578063c967f90f146103ff578063db78dd281461041e578063e823c81414610443578063efd8d8e21461044b57610100565b806382c4b3b21461032a578063a224cee714610350578063a4c4d922146103c0578063be645692146103e557610100565b80631f4f7d29116100d35780631f4f7d29146101c157806332ed5b121461023f5780633a061bd31461031a5780636233be5d1461032257610100565b8063158ef93e1461010557806315ea2781146101215780631b5e358c146101475780631db5ade81461016b575b600080fd5b61010d610453565b604080519115158252519081900360200190f35b61010d6004803603602081101561013757600080fd5b50356001600160a01b031661045c565b61014f610511565b604080516001600160a01b039092168252519081900360200190f35b6101976004803603604081101561018157600080fd5b506001600160a01b038135169060200135610517565b604080516001600160a01b0390941684526020840192909252151582820152519081900360600190f35b61010d600480360360408110156101d757600080fd5b6001600160a01b038235169190810190604081016020820135600160201b81111561020157600080fd5b82018360208201111561021357600080fd5b803590602001918460018302840111600160201b8311171561023457600080fd5b509092509050610550565b61025c6004803603602081101561025557600080fd5b5035610818565b60405180886001600160a01b03168152602001876001600160a01b03168152602001806020018681526020018561ffff1681526020018461ffff1681526020018315158152602001828103825287818151815260200191508051906020019080838360005b838110156102d95781810151838201526020016102c1565b50505050905090810190601f1680156103065780820380516001836020036101000a031916815260200191505b509850505050505050505060405180910390f35b61014f6108f7565b61014f6108fd565b61010d6004803603602081101561034057600080fd5b50356001600160a01b0316610903565b6103be6004803603602081101561036657600080fd5b810190602081018135600160201b81111561038057600080fd5b82018360208201111561039257600080fd5b803590602001918460208302840111600160201b831117156103b357600080fd5b509092509050610918565b005b61010d600480360360408110156103d657600080fd5b50803590602001351515610a63565b6103ed611180565b60408051918252519081900360200190f35b61040761118d565b6040805161ffff9092168252519081900360200190f35b610426611192565b6040805167ffffffffffffffff9092168252519081900360200190f35b6103ed611199565b61042661119f565b60005460ff1681565b60003361f000146104b4576040805162461bcd60e51b815260206004820152601860248201527f56616c696461746f727320636f6e7472616374206f6e6c790000000000000000604482015290519081900360640190fd5b6001600160a01b038216600081815260026020908152604091829020805460ff19169055815142815291517f4e0b191f7f5c32b1b5e3704b68874b1a3980147cae00be8ece271bfb5b92c07a9281900390910190a2506001919050565b61f00181565b60046020908152600092835260408084209091529082529020805460018201546002909201546001600160a01b03909116919060ff1683565b6001600160a01b03831660009081526002602052604081205460ff16156105a85760405162461bcd60e51b81526004018080602001828103825260298152602001806112766029913960400191505060405180910390fd5b6000338585854260405160200180866001600160a01b031660601b8152601401856001600160a01b031660601b81526014018484808284379190910192835250506040805180830381526020928301909152805191012094505050610bb885111591506106519050576040805162461bcd60e51b815260206004820152601060248201526f44657461696c7320746f6f206c6f6e6760801b604482015290519081900360640190fd5b60008181526003602081905260409091200154156106b6576040805162461bcd60e51b815260206004820152601760248201527f50726f706f73616c20616c726561647920657869737473000000000000000000604482015290519081900360640190fd5b6106be6111a5565b3381526001600160a01b03861660208083019190915260408051601f870183900483028101830190915285815290869086908190840183828082843760009201829052506040808701958652426060880152878252600360209081529120865181546001600160a01b039182166001600160a01b031991821617835583890151600184018054919093169116179055945180518796955061076894506002860193509101906111e2565b506060820151600382015560808201516004909101805460a084015160c09094015161ffff1990911661ffff9384161763ffff000019166201000093909416929092029290921764ff000000001916600160201b911515919091021790556040805142815290516001600160a01b03881691339185917fc10f2f4d53a0e342536c6af3cce9c6ee25c32dbb323521ce0e1d4494a3e362e8916020918190039190910190a450600195945050505050565b60036020908152600091825260409182902080546001808301546002808501805488516101009582161595909502600019011691909104601f81018790048702840187019097528683526001600160a01b03938416969390911694919290918301828280156108c85780601f1061089d576101008083540402835291602001916108c8565b820191906000526020600020905b8154815290600101906020018083116108ab57829003601f168201915b50505050600383015460049093015491929161ffff80821692506201000082041690600160201b900460ff1687565b61f00081565b61f00281565b60026020526000908152604090205460ff1681565b60005460ff1615610966576040805162461bcd60e51b8152602060048201526013602482015272105b1c9958591e481a5b9a5d1a585b1a5e9959606a1b604482015290519081900360640190fd5b62093a80600155600580546001600160a01b03191661f00017905560005b81811015610a5157600083838381811061099a57fe5b905060200201356001600160a01b03166001600160a01b03161415610a06576040805162461bcd60e51b815260206004820152601960248201527f496e76616c69642076616c696461746f72206164647265737300000000000000604482015290519081900360640190fd5b600160026000858585818110610a1857fe5b602090810292909201356001600160a01b0316835250810191909152604001600020805460ff1916911515919091179055600101610984565b50506000805460ff1916600117905550565b60055460408051631015428760e21b815233600482015290516000926001600160a01b0316916340550a1c916024808301926020929190829003018186803b158015610aae57600080fd5b505afa158015610ac2573d6000803e3d6000fd5b505050506040513d6020811015610ad857600080fd5b5051610b1c576040805162461bcd60e51b815260206004820152600e60248201526d56616c696461746f72206f6e6c7960901b604482015290519081900360640190fd5b60008381526003602081905260409091200154610b75576040805162461bcd60e51b8152602060048201526012602482015271141c9bdc1bdcd85b081b9bdd08195e1a5cdd60721b604482015290519081900360640190fd5b33600090815260046020908152604080832086845290915290206001015415610bcf5760405162461bcd60e51b815260040180806020018281038252602381526020018061129f6023913960400191505060405180910390fd5b60015460008481526003602081905260409091200154014210610c2c576040805162461bcd60e51b815260206004820152601060248201526f141c9bdc1bdcd85b08195e1c1a5c995960821b604482015290519081900360640190fd5b336000818152600460209081526040808320878452825291829020426001820181905581546001600160a01b031916851782556002909101805460ff1916871515908117909155835190815291820152815186927f6c59bda68cac318717c60c7c9635a78a0f0613f9887cc18a7157f5745a86d14e928290030190a38115610cda576000838152600360205260409020600401805461ffff8082166001011661ffff19909116179055610d0e565b60008381526003602052604090206004018054600161ffff62010000808404821692909201160263ffff0000199091161790555b6000838152600360209081526040808320600101546001600160a01b03168352600290915290205460ff1680610d5c5750600083815260036020526040902060040154600160201b900460ff165b15610d695750600161117a565b600554604080516313bce04b60e31b815290516002926001600160a01b031691639de70258916004808301926000929190829003018186803b158015610dae57600080fd5b505afa158015610dc2573d6000803e3d6000fd5b505050506040513d6000823e601f3d908101601f191682016040526020811015610deb57600080fd5b8101908080516040519392919084600160201b821115610e0a57600080fd5b908301906020820185811115610e1f57600080fd5b82518660208202830111600160201b82111715610e3b57600080fd5b82525081516020918201928201910280838360005b83811015610e68578181015183820152602001610e50565b505050509050016040525050505181610e7d57fe5b60008581526003602052604090206004015491900460010161ffff90911610610fc5576000838152600360208181526040808420600181810180546001600160a01b03908116885260028652848820805460ff19169093179092558987529484526004918201805464ff000000001916600160201b1790556005549454835163415e9ec960e11b815290821692810192909252915193909116936382bd3d9293602480840194939192918390030190829087803b158015610f3d57600080fd5b505af1158015610f51573d6000803e3d6000fd5b505050506040513d6020811015610f6757600080fd5b505060008381526003602090815260409182902060010154825142815292516001600160a01b039091169286927fc9d96d61eb62031865c523ae107f3c22f5ed445af237636bcd88bea1705c70d592918290030190a350600161117a565b600554604080516313bce04b60e31b815290516002926001600160a01b031691639de70258916004808301926000929190829003018186803b15801561100a57600080fd5b505afa15801561101e573d6000803e3d6000fd5b505050506040513d6000823e601f3d908101601f19168201604052602081101561104757600080fd5b8101908080516040519392919084600160201b82111561106657600080fd5b90830190602082018581111561107b57600080fd5b82518660208202830111600160201b8211171561109757600080fd5b82525081516020918201928201910280838360005b838110156110c45781810151838201526020016110ac565b5050505090500160405250505051816110d957fe5b046001016003600085815260200190815260200160002060040160029054906101000a900461ffff1661ffff16106111765760008381526003602090815260409182902060048101805464ff000000001916600160201b17905560010154825142815292516001600160a01b039091169286927fec955d77e6e7d74e18b1c91977ef0f6fd5a6d02a28d1979686339fe69399782592918290030190a35b5060015b92915050565b6801bc16d674ec80000081565b601581565b6201518081565b60015481565b61708081565b6040805160e08101825260008082526020820181905260609282018390529181018290526080810182905260a0810182905260c081019190915290565b828054600181600116156101000203166002900490600052602060002090601f016020900481019282601f1061122357805160ff1916838001178555611250565b82800160010185558215611250579182015b82811115611250578251825591602001919060010190611235565b5061125c929150611260565b5090565b5b8082111561125c576000815560010161126156fe44737420616c7265616479207061737365642c20596f752063616e207374617274207374616b696e67596f752063616e277420766f746520666f7220612070726f706f73616c207477696365a26469706673582212205ec9bae7ecb10a0e915fbbeec1d9f09c24492c77efe96f95d8839b63326eada064736f6c634300060c0033",
  "linkReferences": {},
  "deployedLinkReferences": {}
}