{
  "_format": "hh-sol-artifact-1",
  "contractName": "VotePool",
  "sourceName": "cache/solpp-generated-contracts/v1/VotePool.sol",
  "abi": [
    {
      "inputs": [
        {
          "internalType": "address",
          "name": "_validator",
          "type": "address"
        },
        {
          "internalType": "address",
          "name": "_manager",
          "type": "address"
        },
        {
          "internalType": "uint256",
          "name": "_percent",
          "type": "uint256"
        },
        {
          "internalType": "enum ValidatorType",
          "name": "_type",
          "type": "uint8"
        },
        {
          "internalType": "enum State",
          "name": "_state",
          "type": "uint8"
        }
      ],
      "stateMutability": "nonpayable",
      "type": "constructor"
    },
    {
      "anonymous": false,
      "inputs": [
        {
          "indexed": true,
          "internalType": "address",
          "name": "sender",
          "type": "address"
        },
        {
          "indexed": false,
          "internalType": "uint256",
          "name": "amount",
          "type": "uint256"
        }
      ],
      "name": "AddMargin",
      "type": "event"
    },
    {
      "anonymous": false,
      "inputs": [
        {
          "indexed": true,
          "internalType": "address",
          "name": "manager",
          "type": "address"
        }
      ],
      "name": "ChangeManager",
      "type": "event"
    },
    {
      "anonymous": false,
      "inputs": [
        {
          "indexed": true,
          "internalType": "enum State",
          "name": "state",
          "type": "uint8"
        }
      ],
      "name": "ChangeState",
      "type": "event"
    },
    {
      "anonymous": false,
      "inputs": [
        {
          "indexed": true,
          "internalType": "uint256",
          "name": "percent",
          "type": "uint256"
        }
      ],
      "name": "ConfirmPercentChange",
      "type": "event"
    },
    {
      "anonymous": false,
      "inputs": [
        {
          "indexed": true,
          "internalType": "address",
          "name": "sender",
          "type": "address"
        },
        {
          "indexed": false,
          "internalType": "uint256",
          "name": "amount",
          "type": "uint256"
        }
      ],
      "name": "Deposit",
      "type": "event"
    },
    {
      "anonymous": false,
      "inputs": [
        {
          "indexed": true,
          "internalType": "address",
          "name": "validator",
          "type": "address"
        }
      ],
      "name": "Exit",
      "type": "event"
    },
    {
      "anonymous": false,
      "inputs": [
        {
          "indexed": true,
          "internalType": "address",
          "name": "sender",
          "type": "address"
        },
        {
          "indexed": false,
          "internalType": "uint256",
          "name": "amount",
          "type": "uint256"
        }
      ],
      "name": "ExitVote",
      "type": "event"
    },
    {
      "anonymous": false,
      "inputs": [
        {
          "indexed": true,
          "internalType": "address",
          "name": "validator",
          "type": "address"
        },
        {
          "indexed": false,
          "internalType": "uint256",
          "name": "amount",
          "type": "uint256"
        }
      ],
      "name": "Punish",
      "type": "event"
    },
    {
      "anonymous": false,
      "inputs": [
        {
          "indexed": true,
          "internalType": "address",
          "name": "validator",
          "type": "address"
        },
        {
          "indexed": false,
          "internalType": "uint256",
          "name": "amount",
          "type": "uint256"
        }
      ],
      "name": "RemoveIncoming",
      "type": "event"
    },
    {
      "anonymous": false,
      "inputs": [
        {
          "indexed": true,
          "internalType": "uint256",
          "name": "percent",
          "type": "uint256"
        }
      ],
      "name": "SubmitPercentChange",
      "type": "event"
    },
    {
      "anonymous": false,
      "inputs": [
        {
          "indexed": true,
          "internalType": "address",
          "name": "sender",
          "type": "address"
        },
        {
          "indexed": false,
          "internalType": "uint256",
          "name": "amount",
          "type": "uint256"
        }
      ],
      "name": "Withdraw",
      "type": "event"
    },
    {
      "anonymous": false,
      "inputs": [
        {
          "indexed": true,
          "internalType": "address",
          "name": "sender",
          "type": "address"
        },
        {
          "indexed": false,
          "internalType": "uint256",
          "name": "amount",
          "type": "uint256"
        }
      ],
      "name": "WithdrawMargin",
      "type": "event"
    },
    {
      "anonymous": false,
      "inputs": [
        {
          "indexed": true,
          "internalType": "address",
          "name": "sender",
          "type": "address"
        },
        {
          "indexed": false,
          "internalType": "uint256",
          "name": "amount",
          "type": "uint256"
        }
      ],
      "name": "WithdrawValidatorReward",
      "type": "event"
    },
    {
      "anonymous": false,
      "inputs": [
        {
          "indexed": true,
          "internalType": "address",
          "name": "sender",
          "type": "address"
        },
        {
          "indexed": false,
          "internalType": "uint256",
          "name": "amount",
          "type": "uint256"
        }
      ],
      "name": "WithdrawVoteReward",
      "type": "event"
    },
    {
      "inputs": [],
      "name": "JailPeriod",
      "outputs": [
        {
          "internalType": "uint256",
          "name": "",
          "type": "uint256"
        }
      ],
      "stateMutability": "view",
      "type": "function"
    },
    {
      "inputs": [],
      "name": "MarginLockPeriod",
      "outputs": [
        {
          "internalType": "uint256",
          "name": "",
          "type": "uint256"
        }
      ],
      "stateMutability": "view",
      "type": "function"
    },
    {
      "inputs": [],
      "name": "MaxValidators",
      "outputs": [
        {
          "internalType": "uint16",
          "name": "",
          "type": "uint16"
        }
      ],
      "stateMutability": "view",
      "type": "function"
    },
    {
      "inputs": [],
      "name": "PercentChangeLockPeriod",
      "outputs": [
        {
          "internalType": "uint256",
          "name": "",
          "type": "uint256"
        }
      ],
      "stateMutability": "view",
      "type": "function"
    },
    {
      "inputs": [],
      "name": "PoaMinMargin",
      "outputs": [
        {
          "internalType": "uint256",
          "name": "",
          "type": "uint256"
        }
      ],
      "stateMutability": "view",
      "type": "function"
    },
    {
      "inputs": [],
      "name": "PosMinMargin",
      "outputs": [
        {
          "internalType": "uint256",
          "name": "",
          "type": "uint256"
        }
      ],
      "stateMutability": "view",
      "type": "function"
    },
    {
      "inputs": [],
      "name": "PunishAmount",
      "outputs": [
        {
          "internalType": "uint256",
          "name": "",
          "type": "uint256"
        }
      ],
      "stateMutability": "view",
      "type": "function"
    },
    {
      "inputs": [],
      "name": "WithdrawLockPeriod",
      "outputs": [
        {
          "internalType": "uint256",
          "name": "",
          "type": "uint256"
        }
      ],
      "stateMutability": "view",
      "type": "function"
    },
    {
      "inputs": [],
      "name": "addMargin",
      "outputs": [],
      "stateMutability": "payable",
      "type": "function"
    },
    {
      "inputs": [
        {
          "internalType": "address",
          "name": "_manager",
          "type": "address"
        }
      ],
      "name": "changeManager",
      "outputs": [],
      "stateMutability": "nonpayable",
      "type": "function"
    },
    {
      "inputs": [],
      "name": "confirmPercentChange",
      "outputs": [],
      "stateMutability": "nonpayable",
      "type": "function"
    },
    {
      "inputs": [],
      "name": "deposit",
      "outputs": [],
      "stateMutability": "payable",
      "type": "function"
    },
    {
      "inputs": [],
      "name": "exit",
      "outputs": [],
      "stateMutability": "nonpayable",
      "type": "function"
    },
    {
      "inputs": [],
      "name": "exitBlk",
      "outputs": [
        {
          "internalType": "uint256",
          "name": "",
          "type": "uint256"
        }
      ],
      "stateMutability": "view",
      "type": "function"
    },
    {
      "inputs": [
        {
          "internalType": "uint256",
          "name": "_amount",
          "type": "uint256"
        }
      ],
      "name": "exitVote",
      "outputs": [],
      "stateMutability": "nonpayable",
      "type": "function"
    },
    {
      "inputs": [
        {
          "internalType": "address",
          "name": "_voter",
          "type": "address"
        }
      ],
      "name": "getPendingReward",
      "outputs": [
        {
          "internalType": "uint256",
          "name": "",
          "type": "uint256"
        }
      ],
      "stateMutability": "view",
      "type": "function"
    },
    {
      "inputs": [],
      "name": "getValidatorPendingReward",
      "outputs": [
        {
          "internalType": "uint256",
          "name": "",
          "type": "uint256"
        }
      ],
      "stateMutability": "view",
      "type": "function"
    },
    {
      "inputs": [],
      "name": "initialize",
      "outputs": [],
      "stateMutability": "nonpayable",
      "type": "function"
    },
    {
      "inputs": [],
      "name": "initialized",
      "outputs": [
        {
          "internalType": "bool",
          "name": "",
          "type": "bool"
        }
      ],
      "stateMutability": "view",
      "type": "function"
    },
    {
      "inputs": [],
      "name": "manager",
      "outputs": [
        {
          "internalType": "address",
          "name": "",
          "type": "address"
        }
      ],
      "stateMutability": "view",
      "type": "function"
    },
    {
      "inputs": [],
      "name": "margin",
      "outputs": [
        {
          "internalType": "uint256",
          "name": "",
          "type": "uint256"
        }
      ],
      "stateMutability": "view",
      "type": "function"
    },
    {
      "inputs": [],
      "name": "pendingPercentChange",
      "outputs": [
        {
          "internalType": "uint256",
          "name": "newPercent",
          "type": "uint256"
        },
        {
          "internalType": "uint256",
          "name": "submitBlk",
          "type": "uint256"
        }
      ],
      "stateMutability": "view",
      "type": "function"
    },
    {
      "inputs": [],
      "name": "percent",
      "outputs": [
        {
          "internalType": "uint256",
          "name": "",
          "type": "uint256"
        }
      ],
      "stateMutability": "view",
      "type": "function"
    },
    {
      "inputs": [],
      "name": "punish",
      "outputs": [],
      "stateMutability": "nonpayable",
      "type": "function"
    },
    {
      "inputs": [],
      "name": "punishBlk",
      "outputs": [
        {
          "internalType": "uint256",
          "name": "",
          "type": "uint256"
        }
      ],
      "stateMutability": "view",
      "type": "function"
    },
    {
      "inputs": [],
      "name": "punishContract",
      "outputs": [
        {
          "internalType": "contract IPunish",
          "name": "",
          "type": "address"
        }
      ],
      "stateMutability": "view",
      "type": "function"
    },
    {
      "inputs": [],
      "name": "receiveReward",
      "outputs": [],
      "stateMutability": "payable",
      "type": "function"
    },
    {
      "inputs": [],
      "name": "removeValidatorIncoming",
      "outputs": [],
      "stateMutability": "nonpayable",
      "type": "function"
    },
    {
      "inputs": [],
      "name": "state",
      "outputs": [
        {
          "internalType": "enum State",
          "name": "",
          "type": "uint8"
        }
      ],
      "stateMutability": "view",
      "type": "function"
    },
    {
      "inputs": [
        {
          "internalType": "uint256",
          "name": "_percent",
          "type": "uint256"
        }
      ],
      "name": "submitPercentChange",
      "outputs": [],
      "stateMutability": "nonpayable",
      "type": "function"
    },
    {
      "inputs": [
        {
          "internalType": "bool",
          "name": "pause",
          "type": "bool"
        }
      ],
      "name": "switchState",
      "outputs": [],
      "stateMutability": "nonpayable",
      "type": "function"
    },
    {
      "inputs": [],
      "name": "totalVote",
      "outputs": [
        {
          "internalType": "uint256",
          "name": "",
          "type": "uint256"
        }
      ],
      "stateMutability": "view",
      "type": "function"
    },
    {
      "inputs": [],
      "name": "validator",
      "outputs": [
        {
          "internalType": "address",
          "name": "",
          "type": "address"
        }
      ],
      "stateMutability": "view",
      "type": "function"
    },
    {
      "inputs": [],
      "name": "validatorType",
      "outputs": [
        {
          "internalType": "enum ValidatorType",
          "name": "",
          "type": "uint8"
        }
      ],
      "stateMutability": "view",
      "type": "function"
    },
    {
      "inputs": [],
      "name": "validatorsContract",
      "outputs": [
        {
          "internalType": "contract IValidators",
          "name": "",
          "type": "address"
        }
      ],
      "stateMutability": "view",
      "type": "function"
    },
    {
      "inputs": [
        {
          "internalType": "address",
          "name": "",
          "type": "address"
        }
      ],
      "name": "voters",
      "outputs": [
        {
          "internalType": "uint256",
          "name": "amount",
          "type": "uint256"
        },
        {
          "internalType": "uint256",
          "name": "rewardDebt",
          "type": "uint256"
        },
        {
          "internalType": "uint256",
          "name": "withdrawPendingAmount",
          "type": "uint256"
        },
        {
          "internalType": "uint256",
          "name": "withdrawExitBlock",
          "type": "uint256"
        }
      ],
      "stateMutability": "view",
      "type": "function"
    },
    {
      "inputs": [],
      "name": "withdraw",
      "outputs": [],
      "stateMutability": "nonpayable",
      "type": "function"
    },
    {
      "inputs": [],
      "name": "withdrawMargin",
      "outputs": [],
      "stateMutability": "nonpayable",
      "type": "function"
    },
    {
      "inputs": [],
      "name": "withdrawValidatorReward",
      "outputs": [],
      "stateMutability": "payable",
      "type": "function"
    }
  ],
  "bytecode": "0x60806040523480156200001157600080fd5b5060405162002b2f38038062002b2f833981810160405260a08110156200003757600080fd5b50805160208201516040830151606084015160809094015160018055929391929091903361f00514620000b1576040805162461bcd60e51b815260206004820152601860248201527f56616c696461746f727320636f6e7472616374206f6e6c790000000000000000604482015290519081900360640190fd5b846001600160a01b03811662000100576040805162461bcd60e51b815260206004820152600f60248201526e496e76616c6964206164647265737360881b604482015290519081900360640190fd5b846001600160a01b0381166200014f576040805162461bcd60e51b815260206004820152600f60248201526e496e76616c6964206164647265737360881b604482015290519081900360640190fd5b838560018260018111156200016057fe5b1415620001b757612710811115620001b1576040805162461bcd60e51b815260206004820152600f60248201526e125b9d985b1a59081c195c98d95b9d608a1b604482015290519081900360640190fd5b62000235565b620001ee600a620001da6003612710620002c660201b620022891790919060201c565b6200032d60201b620022eb1790919060201c565b81111562000235576040805162461bcd60e51b815260206004820152600f60248201526e125b9d985b1a59081c195c98d95b9d608a1b604482015290519081900360640190fd5b6002805462010000600160b01b031916620100006001600160a01b038c81169190910291909117808355600380546001600160a01b031916928c1692909217909155600589905587919060ff1916600183818111156200029157fe5b02179055506002805486919061ff001916610100836003811115620002b257fe5b02179055505050505050505050506200041e565b600082620002d75750600062000327565b82820282848281620002e557fe5b0414620003245760405162461bcd60e51b815260040180806020018281038252602181526020018062002b0e6021913960400191505060405180910390fd5b90505b92915050565b60006200032483836040518060400160405280601a81526020017f536166654d6174683a206469766973696f6e206279207a65726f0000000000008152506200037760201b60201c565b60008183620004075760405162461bcd60e51b81526004018080602001828103825283818151815260200191508051906020019080838360005b83811015620003cb578181015183820152602001620003b1565b50505050905090810190601f168015620003f95780820380516001836020036101000a031916815260200191505b509250505060405180910390fd5b5060008385816200041457fe5b0495945050505050565b6126e0806200042e6000396000f3fe6080604052600436106102305760003560e01c80638129fc1c1161012e578063ba26d9ff116100ab578063ec0cb3361161006f578063ec0cb33614610285578063f06d5e7714610614578063f1cea4c71461063e578063f3b1cc6714610653578063ff3d9e4f1461066857610230565b8063ba26d9ff14610591578063c19d93fb146105a6578063c967f90f146105cb578063d0e30db0146105f7578063e9fad8ee146105ff57610230565b806397a8ccd5116100f257806397a8ccd5146104d35780639e83d5b1146104db578063a3ec138d146104f0578063a3fbbaae14610549578063a66066791461057c57610230565b80638129fc1c14610453578063826d3dec146104685780638ec7a23d1461047d5780638f76691a146104a95780639001eed8146104be57610230565b806344f99900116101bc578063683c529c11610180578063683c529c146103b457806370ba1113146103ea57806371a1bb75146103ff57806372a11da414610414578063741579b11461043e57610230565b806344f999001461033a578063481c6a751461034f578063483a00e8146103645780634df9d6ba1461036c57806358fd41ea1461039f57610230565b80632b8aba7a116102035780632b8aba7a146102af5780632e4f67e4146102855780633a5381b5146102c45780633ccfd60b146102f557806341f4ca621461030c57610230565b806303fab4f614610235578063158ef93e1461025c57806315de360e1461028557806324c5b1ca1461029a575b600080fd5b34801561024157600080fd5b5061024a610670565b60408051918252519081900360200190f35b34801561026857600080fd5b5061027161067d565b604080519115158252519081900360200190f35b34801561029157600080fd5b5061024a610686565b3480156102a657600080fd5b5061024a61068d565b3480156102bb57600080fd5b5061024a610693565b3480156102d057600080fd5b506102d9610699565b604080516001600160a01b039092168252519081900360200190f35b34801561030157600080fd5b5061030a6106ae565b005b34801561031857600080fd5b5061032161082c565b6040805192835260208301919091528051918290030190f35b34801561034657600080fd5b506102d9610835565b34801561035b57600080fd5b506102d961083b565b61030a61084a565b34801561037857600080fd5b5061024a6004803603602081101561038f57600080fd5b50356001600160a01b0316610b35565b3480156103ab57600080fd5b5061024a610c5a565b3480156103c057600080fd5b506103c9610cfd565b604051808260018111156103d957fe5b815260200191505060405180910390f35b3480156103f657600080fd5b5061024a610d06565b34801561040b57600080fd5b506102d9610d0c565b34801561042057600080fd5b5061030a6004803603602081101561043757600080fd5b5035610d12565b34801561044a57600080fd5b5061024a611031565b34801561045f57600080fd5b5061030a61103d565b34801561047457600080fd5b5061030a611139565b34801561048957600080fd5b5061030a600480360360208110156104a057600080fd5b503515156112cd565b3480156104b557600080fd5b5061024a6114bb565b3480156104ca57600080fd5b5061024a6114c1565b61030a6114cf565b3480156104e757600080fd5b5061030a61165d565b3480156104fc57600080fd5b506105236004803603602081101561051357600080fd5b50356001600160a01b031661185a565b604080519485526020850193909352838301919091526060830152519081900360800190f35b34801561055557600080fd5b5061030a6004803603602081101561056c57600080fd5b50356001600160a01b0316611881565b34801561058857600080fd5b5061030a611929565b34801561059d57600080fd5b5061030a611af2565b3480156105b257600080fd5b506105bb611c2a565b604051808260038111156103d957fe5b3480156105d757600080fd5b506105e0611c38565b6040805161ffff9092168252519081900360200190f35b61030a611c3d565b34801561060b57600080fd5b5061030a611ec5565b34801561062057600080fd5b5061030a6004803603602081101561063757600080fd5b5035612072565b34801561064a57600080fd5b5061024a6121c2565b34801561065f57600080fd5b5061024a6121c8565b61030a6121cf565b68056bc75e2d6310000081565b60005460ff1681565b6201518081565b600d5481565b600c5481565b6002546201000090046001600160a01b031681565b600260015414156106f4576040805162461bcd60e51b815260206004820152601f6024820152600080516020612610833981519152604482015290519081900360640190fd5b600260015533600090815260096020526040902060030154620151809061071c90439061232d565b11610763576040805162461bcd60e51b8152602060048201526012602482015271125b9d195c9d985b081d1bdbc81cdb585b1b60721b604482015290519081900360640190fd5b336000908152600960205260409020600201546107c2576040805162461bcd60e51b815260206004820152601860248201527756616c75652073686f756c64206e6f74206265207a65726f60401b604482015290519081900360640190fd5b33600081815260096020526040812060028101805490839055600390910191909155906107ef908261236f565b60408051828152905133917f884edad9ce6fa2440d8a54cc123490eb96d2768479d49ff9c7366125a9424364919081900360200190a25060018055565b60065460075482565b61f00681565b6003546001600160a01b031681565b6003546001600160a01b031633146108a0576040805162461bcd60e51b815260206004820152601460248201527313db9b1e481b585b9859d95c88185b1b1bddd95960621b604482015290519081900360640190fd5b6108a8612459565b6108eb576040805162461bcd60e51b815260206004820152600f60248201526e496e636f727265637420737461746560881b604482015290519081900360640190fd5b600d54158061091057506206270061090e600d544361232d90919063ffffffff16565b115b61095c576040805162461bcd60e51b8152602060048201526018602482015277092dce8cae4ecc2d840dcdee840d8dedcce40cadcdeeaced60431b604482015290519081900360640190fd5b600034116109ac576040805162461bcd60e51b815260206004820152601860248201527756616c75652073686f756c64206e6f74206265207a65726f60401b604482015290519081900360640190fd5b6000600d556004546109be90346124b9565b60045560408051348152905133917f278e696bd0cd4a7d1260ced26c40cd01c2b088f441889e4148240ac81069b348919081900360200190a26000600160025460ff166001811115610a0c57fe5b1415610a215750670de0b6b3a7640000610a2e565b5069010f0cf064dd592000005b8060045410610b32576002805461ff0019166101001790819055604080516363e1d45160e01b8152620100009092046001600160a01b031660048301525161f006916363e1d45191602480830192600092919082900301818387803b158015610a9657600080fd5b505af1158015610aaa573d6000803e3d6000fd5b5050505061f0056001600160a01b031663136ec0b36040518163ffffffff1660e01b8152600401600060405180830381600087803b158015610aeb57600080fd5b505af1158015610aff573d6000803e3d6000fd5b5050600254610100900460ff169150506003811115610b1a57fe5b60405160008051602061266a83398151915290600090a25b50565b60408051637a0787a960e11b81523060048201529051600091829161f0059163f40f0f52916024808301926020929190829003018186803b158015610b7957600080fd5b505afa158015610b8d573d6000803e3d6000fd5b505050506040513d6020811015610ba357600080fd5b5051600554909150600090610bc79061271090610bc1908590612289565b906122eb565b600a54600b549192509015610c0e57610c0b81610c05600b54610bc1670de0b6b3a7640000610bff888a61232d90919063ffffffff16565b90612289565b906124b9565b90505b6001600160a01b038516600090815260096020526040902060018101549054610c519190610c4b90670de0b6b3a764000090610bc1908690612289565b9061232d565b95945050505050565b60408051637a0787a960e11b81523060048201529051600091829161f0059163f40f0f52916024808301926020929190829003018186803b158015610c9e57600080fd5b505afa158015610cb2573d6000803e3d6000fd5b505050506040513d6020811015610cc857600080fd5b5051600554909150600090610ce69061271090610bc1908590612289565b600854909150610cf690826124b9565b9250505090565b60025460ff1681565b60055481565b61f00581565b60026001541415610d58576040805162461bcd60e51b815260206004820152601f6024820152600080516020612610833981519152604482015290519081900360640190fd5b600260015580610daa576040805162461bcd60e51b815260206004820152601860248201527756616c75652073686f756c64206e6f74206265207a65726f60401b604482015290519081900360640190fd5b33600090815260096020526040902054811115610e04576040805162461bcd60e51b8152602060048201526013602482015272125b9cdd59999a58da595b9d08185b5bdd5b9d606a1b604482015290519081900360640190fd5b61f0056001600160a01b031663c885bc586040518163ffffffff1660e01b8152600401600060405180830381600087803b158015610e4157600080fd5b505af1158015610e55573d6000803e3d6000fd5b505033600090815260096020526040812060018101549054600a54929450610e9193509091610c4b91670de0b6b3a764000091610bc191612289565b600b54909150610ea1908361232d565b600b5533600090815260096020526040902054610ebe908361232d565b336000908152600960205260409020819055600a54610eeb91670de0b6b3a764000091610bc19190612289565b336000908152600960205260409020600190810191909155600254610100900460ff166003811115610f1957fe5b1415610f755761f0056001600160a01b031663bb8b65af6040518163ffffffff1660e01b8152600401600060405180830381600087803b158015610f5c57600080fd5b505af1158015610f70573d6000803e3d6000fd5b505050505b33600090815260096020526040902060020154610f9290836124b9565b336000818152600960205260409020600281019290925543600390920191909155610fbd908261236f565b60408051838152905133917f41b45db803eded5e27cdf3cbba5707b3575e9b6959de41c3f7b83b51ce600502919081900360200190a260408051828152905133917f7cddc560d4de1ea9d83e4123f01e6072afc503bb47bcc765f0396ba3861a0454919081900360200190a2505060018055565b670de0b6b3a764000081565b3361f0051461108e576040805162461bcd60e51b815260206004820152601860248201527756616c696461746f727320636f6e7472616374206f6e6c7960401b604482015290519081900360640190fd5b60005460ff16156110dc576040805162461bcd60e51b8152602060048201526013602482015272105b1c9958591e481a5b9a5d1a585b1a5e9959606a1b604482015290519081900360640190fd5b6000805460ff191660011781556040805163136ec0b360e01b8152905161f0059263136ec0b3926004808201939182900301818387803b15801561111f57600080fd5b505af1158015611133573d6000803e3d6000fd5b50505050565b3361f00614611186576040805162461bcd60e51b815260206004820152601460248201527350756e69736820636f6e7472616374206f6e6c7960601b604482015290519081900360640190fd5b43600c5560028054610100900460ff1660038111156111a157fe5b146111e2576002805461ff0019166103001790819055610100900460ff1660038111156111ca57fe5b60405160008051602061266a83398151915290600090a25b61f0056001600160a01b03166371df76786040518163ffffffff1660e01b8152600401600060405180830381600087803b15801561121f57600080fd5b505af1158015611233573d6000803e3d6000fd5b50505050600068056bc75e2d6310000060045410156112545760045461125f565b68056bc75e2d631000005b90508015610b3257600454611274908261232d565b60045561128260008261236f565b600254604080518381529051620100009092046001600160a01b0316917febbcaaf6b9aa8b4083ae4b2f842c8de6f75319018e7b5e141a1e87aebadde6c3916020908290030190a250565b3361f0051461131e576040805162461bcd60e51b815260206004820152601860248201527756616c696461746f727320636f6e7472616374206f6e6c7960401b604482015290519081900360640190fd5b80156114245761132c612459565b8061134c57506001600254610100900460ff16600381111561134a57fe5b145b61138f576040805162461bcd60e51b815260206004820152600f60248201526e496e636f727265637420737461746560881b604482015290519081900360640190fd5b6002805461ff0019166102001790819055610100900460ff1660038111156113b357fe5b60405160008051602061266a83398151915290600090a261f0056001600160a01b03166371df76786040518163ffffffff1660e01b8152600401600060405180830381600087803b15801561140757600080fd5b505af115801561141b573d6000803e3d6000fd5b50505050610b32565b60028054610100900460ff16600381111561143b57fe5b1461147f576040805162461bcd60e51b815260206004820152600f60248201526e496e636f727265637420737461746560881b604482015290519081900360640190fd5b6002805461ff00191690819055610100900460ff16600381111561149f57fe5b60405160008051602061266a83398151915290600090a2610b32565b60045481565b69010f0cf064dd5920000081565b60026001541415611515576040805162461bcd60e51b815260206004820152601f6024820152600080516020612610833981519152604482015290519081900360640190fd5b60026001556003546001600160a01b03163314611570576040805162461bcd60e51b815260206004820152601460248201527313db9b1e481b585b9859d95c88185b1b1bddd95960621b604482015290519081900360640190fd5b61f0056001600160a01b031663c885bc586040518163ffffffff1660e01b8152600401600060405180830381600087803b1580156115ad57600080fd5b505af11580156115c1573d6000803e3d6000fd5b5050505060006008541161160d576040805162461bcd60e51b815260206004820152600e60248201526d139bc81b5bdc99481c995dd85c9960921b604482015290519081900360640190fd5b600880546000909155611620338261236f565b60408051828152905133917fe4fc75e2b70d2f179fc77c722f2334ba1507c59932576ec9620b15dfb06d91e2919081900360200190a25060018055565b600260015414156116a3576040805162461bcd60e51b815260206004820152601f6024820152600080516020612610833981519152604482015290519081900360640190fd5b60026001556003546001600160a01b031633146116fe576040805162461bcd60e51b815260206004820152601460248201527313db9b1e481b585b9859d95c88185b1b1bddd95960621b604482015290519081900360640190fd5b611706612459565b611749576040805162461bcd60e51b815260206004820152600f60248201526e496e636f727265637420737461746560881b604482015290519081900360640190fd5b6000600d5411801561177157506206270061176f600d544361232d90919063ffffffff16565b115b6117bd576040805162461bcd60e51b8152602060048201526018602482015277092dce8cae4ecc2d840dcdee840d8dedcce40cadcdeeaced60431b604482015290519081900360640190fd5b600060045411611805576040805162461bcd60e51b815260206004820152600e60248201526d27379036b7b9329036b0b933b4b760911b604482015290519081900360640190fd5b6000600d8190556004805491905561181d338261236f565b60408051828152905133917f5d3b8fa9823b18b176cfe79e002a5b931b8569313802f700eb8550bc6a353246919081900360200190a25060018055565b60096020526000908152604090208054600182015460028301546003909301549192909184565b6002546201000090046001600160a01b031633146118df576040805162461bcd60e51b815260206004820152601660248201527513db9b1e481d985b1a59185d1bdc88185b1b1bddd95960521b604482015290519081900360640190fd5b600380546001600160a01b0319166001600160a01b0383169081179091556040517f5cd5185727f6057b7a274979ce4d902e15bf0ef1dc542d1fe5926cba874f63b690600090a250565b6003546001600160a01b0316331461197f576040805162461bcd60e51b815260206004820152601460248201527313db9b1e481b585b9859d95c88185b1b1bddd95960621b604482015290519081900360640190fd5b60025460065460ff90911690600182600181111561199957fe5b14156119ed576127108111156119e8576040805162461bcd60e51b815260206004820152600f60248201526e125b9d985b1a59081c195c98d95b9d608a1b604482015290519081900360640190fd5b611a45565b6119ff600a610bc16127106003612289565b811115611a45576040805162461bcd60e51b815260206004820152600f60248201526e125b9d985b1a59081c195c98d95b9d608a1b604482015290519081900360640190fd5b60075415801590611a6657506007546201518090611a6490439061232d565b115b611ab2576040805162461bcd60e51b8152602060048201526018602482015277092dce8cae4ecc2d840dcdee840d8dedcce40cadcdeeaced60431b604482015290519081900360640190fd5b600680546005819055600091829055600782905560405190917f450a792501c47863e89114cbdd0497acb22d4abfc51dc315afc323c5ba92d4a991a25050565b3361f00614611b3f576040805162461bcd60e51b815260206004820152601460248201527350756e69736820636f6e7472616374206f6e6c7960601b604482015290519081900360640190fd5b61f0056001600160a01b031663c885bc586040518163ffffffff1660e01b8152600401600060405180830381600087803b158015611b7c57600080fd5b505af1158015611b90573d6000803e3d6000fd5b50505050600068056bc75e2d6310000060085410611bb75768056bc75e2d63100000611bbb565b6008545b600854909150611bcb908261232d565b6008558015610b3257611bdf60008261236f565b600254604080518381529051620100009092046001600160a01b0316917f0a3c8b346f3f7fe5668c9f575473491c4274339e10c9548d7995f22211f988f0916020908290030190a250565b600254610100900460ff1681565b601581565b60026001541415611c83576040805162461bcd60e51b815260206004820152601f6024820152600080516020612610833981519152604482015290519081900360640190fd5b600260018190555061f0056001600160a01b031663c885bc586040518163ffffffff1660e01b8152600401600060405180830381600087803b158015611cc857600080fd5b505af1158015611cdc573d6000803e3d6000fd5b505033600090815260096020526040812060018101549054600a54929450611d1893509091610c4b91670de0b6b3a764000091610bc191612289565b90503415611e395733600090815260096020526040902054611d3a90346124b9565b336000908152600960205260409020819055600a54611d6791670de0b6b3a764000091610bc19190612289565b33600090815260096020526040902060010155600b54611d8790346124b9565b600b5560408051348152905133917fe1fffcc4923d04b559f4d29a8bfc6cda04eb5b0d3c460751c2402c5c5cc9109c919081900360200190a26001600254610100900460ff166003811115611dd857fe5b1415611e345761f0056001600160a01b031663136ec0b36040518163ffffffff1660e01b8152600401600060405180830381600087803b158015611e1b57600080fd5b505af1158015611e2f573d6000803e3d6000fd5b505050505b611e77565b600a5433600090815260096020526040902054611e6391670de0b6b3a764000091610bc191612289565b336000908152600960205260409020600101555b8015611ebe57611e87338261236f565b60408051828152905133917f7cddc560d4de1ea9d83e4123f01e6072afc503bb47bcc765f0396ba3861a0454919081900360200190a25b5060018055565b6003546001600160a01b03163314611f1b576040805162461bcd60e51b815260206004820152601460248201527313db9b1e481b585b9859d95c88185b1b1bddd95960621b604482015290519081900360640190fd5b6001600254610100900460ff166003811115611f3357fe5b1480611f425750611f42612459565b611f85576040805162461bcd60e51b815260206004820152600f60248201526e496e636f727265637420737461746560881b604482015290519081900360640190fd5b43600d556000600254610100900460ff166003811115611fa157fe5b14612033576002805461ff00191690819055610100900460ff166003811115611fc657fe5b60405160008051602061266a83398151915290600090a261f0056001600160a01b03166371df76786040518163ffffffff1660e01b8152600401600060405180830381600087803b15801561201a57600080fd5b505af115801561202e573d6000803e3d6000fd5b505050505b600254604051620100009091046001600160a01b0316907f7c79e6e24ed041d1072d54523b53956f01b91b835f0490856370594d9d14470e90600090a2565b6003546001600160a01b031633146120c8576040805162461bcd60e51b815260206004820152601460248201527313db9b1e481b585b9859d95c88185b1b1bddd95960621b604482015290519081900360640190fd5b60025460ff168160018260018111156120dd57fe5b14156121315761271081111561212c576040805162461bcd60e51b815260206004820152600f60248201526e125b9d985b1a59081c195c98d95b9d608a1b604482015290519081900360640190fd5b612189565b612143600a610bc16127106003612289565b811115612189576040805162461bcd60e51b815260206004820152600f60248201526e125b9d985b1a59081c195c98d95b9d608a1b604482015290519081900360640190fd5b60068390554360075560405183907f2dcbffddb492dea86de0b18dac6d71f51a7b7a5ec946512e0c993a050f3b48ea90600090a2505050565b600b5481565b6206270081565b3361f00514612220576040805162461bcd60e51b815260206004820152601860248201527756616c696461746f727320636f6e7472616374206f6e6c7960401b604482015290519081900360640190fd5b600061223d612710610bc16005543461228990919063ffffffff16565b60085490915061224d90826124b9565b600855600b5415610b3257612283600a54610c05600b54610bc1670de0b6b3a7640000610bff873461232d90919063ffffffff16565b600a5550565b600082612298575060006122e5565b828202828482816122a557fe5b04146122e25760405162461bcd60e51b815260040180806020018281038252602181526020018061268a6021913960400191505060405180910390fd5b90505b92915050565b60006122e283836040518060400160405280601a81526020017f536166654d6174683a206469766973696f6e206279207a65726f000000000000815250612513565b60006122e283836040518060400160405280601e81526020017f536166654d6174683a207375627472616374696f6e206f766572666c6f7700008152506125b5565b804710156123c4576040805162461bcd60e51b815260206004820152601d60248201527f416464726573733a20696e73756666696369656e742062616c616e6365000000604482015290519081900360640190fd5b6040516000906001600160a01b0384169083908381818185875af1925050503d806000811461240f576040519150601f19603f3d011682016040523d82523d6000602084013e612414565b606091505b50509050806124545760405162461bcd60e51b815260040180806020018281038252603a815260200180612630603a913960400191505060405180910390fd5b505050565b600080600254610100900460ff16600381111561247257fe5b14806124b457506003600254610100900460ff16600381111561249157fe5b1480156124b45750620151806124b2600c544361232d90919063ffffffff16565b115b905090565b6000828201838110156122e2576040805162461bcd60e51b815260206004820152601b60248201527f536166654d6174683a206164646974696f6e206f766572666c6f770000000000604482015290519081900360640190fd5b6000818361259f5760405162461bcd60e51b81526004018080602001828103825283818151815260200191508051906020019080838360005b8381101561256457818101518382015260200161254c565b50505050905090810190601f1680156125915780820380516001836020036101000a031916815260200191505b509250505060405180910390fd5b5060008385816125ab57fe5b0495945050505050565b600081848411156126075760405162461bcd60e51b815260206004820181815283516024840152835190928392604490910191908501908083836000831561256457818101518382015260200161254c565b50505090039056fe5265656e7472616e637947756172643a207265656e7472616e742063616c6c00416464726573733a20756e61626c6520746f2073656e642076616c75652c20726563697069656e74206d61792068617665207265766572746564402ee26d4c255fcb07b0b7b5b93b77377832260977c25be44f3c8feffd2df70e536166654d6174683a206d756c7469706c69636174696f6e206f766572666c6f77a2646970667358221220f05f5d28fbe34b769752c00eaa5f819e386b605330eec67ffed226f1db9d53c864736f6c634300060c0033536166654d6174683a206d756c7469706c69636174696f6e206f766572666c6f77",
  "linkReferences": {},
  "deployedLinkReferences": {}
}