{
  "_format": "hh-sol-artifact-1",
  "contractName": "MockValidators",
  "sourceName": "cache/solpp-generated-contracts/mock/MockValidators.sol",
  "abi": [
    {
      "inputs": [
        {
          "internalType": "address[]",
          "name": "vals_",
          "type": "address[]"
        },
        {
          "internalType": "address",
          "name": "proposal_",
          "type": "address"
        }
      ],
      "stateMutability": "nonpayable",
      "type": "constructor"
    },
    {
      "inputs": [],
      "name": "getActiveValidators",
      "outputs": [
        {
          "internalType": "address[]",
          "name": "",
          "type": "address[]"
        }
      ],
      "stateMutability": "view",
      "type": "function"
    },
    {
      "inputs": [
        {
          "internalType": "address",
          "name": "who",
          "type": "address"
        }
      ],
      "name": "isActiveValidator",
      "outputs": [
        {
          "internalType": "bool",
          "name": "",
          "type": "bool"
        }
      ],
      "stateMutability": "view",
      "type": "function"
    },
    {
      "inputs": [
        {
          "internalType": "address",
          "name": "who",
          "type": "address"
        }
      ],
      "name": "setUnpassed",
      "outputs": [],
      "stateMutability": "nonpayable",
      "type": "function"
    },
    {
      "inputs": [
        {
          "internalType": "address",
          "name": "who",
          "type": "address"
        }
      ],
      "name": "tryReactive",
      "outputs": [
        {
          "internalType": "bool",
          "name": "",
          "type": "bool"
        }
      ],
      "stateMutability": "nonpayable",
      "type": "function"
    }
  ],
  "bytecode": "0x608060405234801561001057600080fd5b506040516104533803806104538339818101604052604081101561003357600080fd5b810190808051604051939291908464010000000082111561005357600080fd5b90830190602082018581111561006857600080fd5b825186602082028301116401000000008211171561008557600080fd5b82525081516020918201928201910280838360005b838110156100b257818101518382015260200161009a565b505050509190910160405250602001519150600090505b82518110156101255760008382815181106100e057fe5b60209081029190910181015182546001808201855560009485529290932090920180546001600160a01b0319166001600160a01b0390931692909217909155016100c9565b50600180546001600160a01b0319166001600160a01b0392909216919091179055506102fd806101566000396000f3fe608060405234801561001057600080fd5b506004361061004c5760003560e01c806315ea27811461005157806340550a1c1461007957806382bd3d92146100b35780639de70258146100d9575b600080fd5b6100776004803603602081101561006757600080fd5b50356001600160a01b0316610131565b005b61009f6004803603602081101561008f57600080fd5b50356001600160a01b03166101af565b604080519115158252519081900360200190f35b61009f600480360360208110156100c957600080fd5b50356001600160a01b031661020c565b6100e1610212565b60408051602080825283518183015283519192839290830191858101910280838360005b8381101561011d578181015183820152602001610105565b505050509050019250505060405180910390f35b600154604080516315ea278160e01b81526001600160a01b038481166004830152915191909216916315ea27819160248083019260209291908290030181600087803b15801561018057600080fd5b505af1158015610194573d6000803e3d6000fd5b505050506040513d60208110156101aa57600080fd5b505050565b6000805b60005481101561020157826001600160a01b0316600082815481106101d457fe5b6000918252602090912001546001600160a01b031614156101f9576001915050610207565b6001016101b3565b50600090505b919050565b50600190565b600054606090819067ffffffffffffffff8111801561023057600080fd5b5060405190808252806020026020018201604052801561025a578160200160208202803683370190505b50905060005b6000548110156102c1576000818154811061027757fe5b9060005260206000200160009054906101000a90046001600160a01b03168282815181106102a157fe5b6001600160a01b0390921660209283029190910190910152600101610260565b5090509056fea264697066735822122075e1ba518da4c1f60d5cfe852c58a31bc07ced059525ec537aedc5835f013ca164736f6c634300060c0033",
  "linkReferences": {},
  "deployedLinkReferences": {}
}