{
  "_format": "hh-sol-artifact-1",
  "contractName": "MockPunish",
  "sourceName": "cache/solpp-generated-contracts/v1/mock/MockPunish.sol",
  "abi": [
    {
      "inputs": [],
      "name": "JailPeriod",
      "outputs": [
        {
          "internalType": "uint256",
          "name": "",
          "type": "uint256"
        }
      ],
      "stateMutability": "view",
      "type": "function"
    },
    {
      "inputs": [],
      "name": "MarginLockPeriod",
      "outputs": [
        {
          "internalType": "uint256",
          "name": "",
          "type": "uint256"
        }
      ],
      "stateMutability": "view",
      "type": "function"
    },
    {
      "inputs": [],
      "name": "MaxValidators",
      "outputs": [
        {
          "internalType": "uint16",
          "name": "",
          "type": "uint16"
        }
      ],
      "stateMutability": "view",
      "type": "function"
    },
    {
      "inputs": [],
      "name": "PercentChangeLockPeriod",
      "outputs": [
        {
          "internalType": "uint256",
          "name": "",
          "type": "uint256"
        }
      ],
      "stateMutability": "view",
      "type": "function"
    },
    {
      "inputs": [],
      "name": "PoaMinMargin",
      "outputs": [
        {
          "internalType": "uint256",
          "name": "",
          "type": "uint256"
        }
      ],
      "stateMutability": "view",
      "type": "function"
    },
    {
      "inputs": [],
      "name": "PosMinMargin",
      "outputs": [
        {
          "internalType": "uint256",
          "name": "",
          "type": "uint256"
        }
      ],
      "stateMutability": "view",
      "type": "function"
    },
    {
      "inputs": [],
      "name": "PunishAmount",
      "outputs": [
        {
          "internalType": "uint256",
          "name": "",
          "type": "uint256"
        }
      ],
      "stateMutability": "view",
      "type": "function"
    },
    {
      "inputs": [],
      "name": "WithdrawLockPeriod",
      "outputs": [
        {
          "internalType": "uint256",
          "name": "",
          "type": "uint256"
        }
      ],
      "stateMutability": "view",
      "type": "function"
    },
    {
      "inputs": [
        {
          "internalType": "address",
          "name": "",
          "type": "address"
        }
      ],
      "name": "cleanPunishRecord",
      "outputs": [
        {
          "internalType": "bool",
          "name": "",
          "type": "bool"
        }
      ],
      "stateMutability": "nonpayable",
      "type": "function"
    },
    {
      "inputs": [],
      "name": "initialized",
      "outputs": [
        {
          "internalType": "bool",
          "name": "",
          "type": "bool"
        }
      ],
      "stateMutability": "view",
      "type": "function"
    },
    {
      "inputs": [],
      "name": "punishContract",
      "outputs": [
        {
          "internalType": "contract IPunish",
          "name": "",
          "type": "address"
        }
      ],
      "stateMutability": "view",
      "type": "function"
    },
    {
      "inputs": [],
      "name": "validatorsContract",
      "outputs": [
        {
          "internalType": "contract IValidators",
          "name": "",
          "type": "address"
        }
      ],
      "stateMutability": "view",
      "type": "function"
    }
  ],
  "bytecode": "0x608060405234801561001057600080fd5b50610254806100206000396000f3fe608060405234801561001057600080fd5b50600436106100b45760003560e01c806371a1bb751161007157806371a1bb7514610141578063741579b1146101495780639001eed814610151578063c967f90f14610159578063ec0cb336146100ef578063f3b1cc6714610178576100b4565b806303fab4f6146100b9578063158ef93e146100d357806315de360e146100ef5780632e4f67e4146100ef57806344f99900146100f757806363e1d4511461011b575b600080fd5b6100c1610180565b60408051918252519081900360200190f35b6100db61018d565b604080519115158252519081900360200190f35b6100c1610196565b6100ff61019d565b604080516001600160a01b039092168252519081900360200190f35b6100db6004803603602081101561013157600080fd5b50356001600160a01b03166101a3565b6100ff6101f2565b6100c16101f8565b6100c1610204565b610161610212565b6040805161ffff9092168252519081900360200190f35b6100c1610217565b68056bc75e2d6310000081565b60005460ff1681565b6201518081565b61f00681565b6000805460ff166101ea576040805162461bcd60e51b815260206004820152600c60248201526b139bdd081a5b9a5d081e595d60a21b604482015290519081900360640190fd5b506001919050565b61f00581565b670de0b6b3a764000081565b69010f0cf064dd5920000081565b601581565b620627008156fea2646970667358221220c319ae758ef905a62667736f90d825d6c9ff68fb167b412f415eb724b2b60cc464736f6c634300060c0033",
  "linkReferences": {},
  "deployedLinkReferences": {}
}