{
  "_format": "hh-sol-artifact-1",
  "contractName": "Validators",
  "sourceName": "cache/solpp-generated-contracts/Validators.sol",
  "abi": [
    {
      "anonymous": false,
      "inputs": [
        {
          "indexed": true,
          "internalType": "address",
          "name": "val",
          "type": "address"
        },
        {
          "indexed": false,
          "internalType": "uint256",
          "name": "time",
          "type": "uint256"
        }
      ],
      "name": "LogAddToTopValidators",
      "type": "event"
    },
    {
      "anonymous": false,
      "inputs": [
        {
          "indexed": true,
          "internalType": "address",
          "name": "val",
          "type": "address"
        },
        {
          "indexed": true,
          "internalType": "address",
          "name": "fee",
          "type": "address"
        },
        {
          "indexed": false,
          "internalType": "uint256",
          "name": "time",
          "type": "uint256"
        }
      ],
      "name": "LogCreateValidator",
      "type": "event"
    },
    {
      "anonymous": false,
      "inputs": [
        {
          "indexed": true,
          "internalType": "address",
          "name": "coinbase",
          "type": "address"
        },
        {
          "indexed": false,
          "internalType": "uint256",
          "name": "blockReward",
          "type": "uint256"
        },
        {
          "indexed": false,
          "internalType": "uint256",
          "name": "time",
          "type": "uint256"
        }
      ],
      "name": "LogDistributeBlockReward",
      "type": "event"
    },
    {
      "anonymous": false,
      "inputs": [
        {
          "indexed": true,
          "internalType": "address",
          "name": "val",
          "type": "address"
        },
        {
          "indexed": true,
          "internalType": "address",
          "name": "fee",
          "type": "address"
        },
        {
          "indexed": false,
          "internalType": "uint256",
          "name": "time",
          "type": "uint256"
        }
      ],
      "name": "LogEditValidator",
      "type": "event"
    },
    {
      "anonymous": false,
      "inputs": [
        {
          "indexed": true,
          "internalType": "address",
          "name": "val",
          "type": "address"
        },
        {
          "indexed": false,
          "internalType": "uint256",
          "name": "time",
          "type": "uint256"
        }
      ],
      "name": "LogReactive",
      "type": "event"
    },
    {
      "anonymous": false,
      "inputs": [
        {
          "indexed": true,
          "internalType": "address",
          "name": "val",
          "type": "address"
        },
        {
          "indexed": false,
          "internalType": "uint256",
          "name": "time",
          "type": "uint256"
        }
      ],
      "name": "LogRemoveFromTopValidators",
      "type": "event"
    },
    {
      "anonymous": false,
      "inputs": [
        {
          "indexed": true,
          "internalType": "address",
          "name": "val",
          "type": "address"
        },
        {
          "indexed": false,
          "internalType": "uint256",
          "name": "hb",
          "type": "uint256"
        },
        {
          "indexed": false,
          "internalType": "uint256",
          "name": "time",
          "type": "uint256"
        }
      ],
      "name": "LogRemoveValidator",
      "type": "event"
    },
    {
      "anonymous": false,
      "inputs": [
        {
          "indexed": true,
          "internalType": "address",
          "name": "val",
          "type": "address"
        },
        {
          "indexed": false,
          "internalType": "uint256",
          "name": "hb",
          "type": "uint256"
        },
        {
          "indexed": false,
          "internalType": "uint256",
          "name": "time",
          "type": "uint256"
        }
      ],
      "name": "LogRemoveValidatorIncoming",
      "type": "event"
    },
    {
      "anonymous": false,
      "inputs": [
        {
          "indexed": true,
          "internalType": "address",
          "name": "staker",
          "type": "address"
        },
        {
          "indexed": true,
          "internalType": "address",
          "name": "val",
          "type": "address"
        },
        {
          "indexed": false,
          "internalType": "uint256",
          "name": "staking",
          "type": "uint256"
        },
        {
          "indexed": false,
          "internalType": "uint256",
          "name": "time",
          "type": "uint256"
        }
      ],
      "name": "LogStake",
      "type": "event"
    },
    {
      "anonymous": false,
      "inputs": [
        {
          "indexed": true,
          "internalType": "address",
          "name": "staker",
          "type": "address"
        },
        {
          "indexed": true,
          "internalType": "address",
          "name": "val",
          "type": "address"
        },
        {
          "indexed": false,
          "internalType": "uint256",
          "name": "amount",
          "type": "uint256"
        },
        {
          "indexed": false,
          "internalType": "uint256",
          "name": "time",
          "type": "uint256"
        }
      ],
      "name": "LogUnstake",
      "type": "event"
    },
    {
      "anonymous": false,
      "inputs": [
        {
          "indexed": false,
          "internalType": "address[]",
          "name": "newSet",
          "type": "address[]"
        }
      ],
      "name": "LogUpdateValidator",
      "type": "event"
    },
    {
      "anonymous": false,
      "inputs": [
        {
          "indexed": true,
          "internalType": "address",
          "name": "val",
          "type": "address"
        },
        {
          "indexed": true,
          "internalType": "address",
          "name": "fee",
          "type": "address"
        },
        {
          "indexed": false,
          "internalType": "uint256",
          "name": "hb",
          "type": "uint256"
        },
        {
          "indexed": false,
          "internalType": "uint256",
          "name": "time",
          "type": "uint256"
        }
      ],
      "name": "LogWithdrawProfits",
      "type": "event"
    },
    {
      "anonymous": false,
      "inputs": [
        {
          "indexed": true,
          "internalType": "address",
          "name": "staker",
          "type": "address"
        },
        {
          "indexed": true,
          "internalType": "address",
          "name": "val",
          "type": "address"
        },
        {
          "indexed": false,
          "internalType": "uint256",
          "name": "amount",
          "type": "uint256"
        },
        {
          "indexed": false,
          "internalType": "uint256",
          "name": "time",
          "type": "uint256"
        }
      ],
      "name": "LogWithdrawStaking",
      "type": "event"
    },
    {
      "inputs": [],
      "name": "MaxValidators",
      "outputs": [
        {
          "internalType": "uint16",
          "name": "",
          "type": "uint16"
        }
      ],
      "stateMutability": "view",
      "type": "function"
    },
    {
      "inputs": [],
      "name": "MinimalStakingCoin",
      "outputs": [
        {
          "internalType": "uint256",
          "name": "",
          "type": "uint256"
        }
      ],
      "stateMutability": "view",
      "type": "function"
    },
    {
      "inputs": [],
      "name": "ProposalAddr",
      "outputs": [
        {
          "internalType": "address",
          "name": "",
          "type": "address"
        }
      ],
      "stateMutability": "view",
      "type": "function"
    },
    {
      "inputs": [],
      "name": "PunishContractAddr",
      "outputs": [
        {
          "internalType": "address",
          "name": "",
          "type": "address"
        }
      ],
      "stateMutability": "view",
      "type": "function"
    },
    {
      "inputs": [],
      "name": "StakingLockPeriod",
      "outputs": [
        {
          "internalType": "uint64",
          "name": "",
          "type": "uint64"
        }
      ],
      "stateMutability": "view",
      "type": "function"
    },
    {
      "inputs": [],
      "name": "ValidatorContractAddr",
      "outputs": [
        {
          "internalType": "address",
          "name": "",
          "type": "address"
        }
      ],
      "stateMutability": "view",
      "type": "function"
    },
    {
      "inputs": [],
      "name": "WithdrawProfitPeriod",
      "outputs": [
        {
          "internalType": "uint64",
          "name": "",
          "type": "uint64"
        }
      ],
      "stateMutability": "view",
      "type": "function"
    },
    {
      "inputs": [
        {
          "internalType": "address payable",
          "name": "feeAddr",
          "type": "address"
        },
        {
          "internalType": "string",
          "name": "moniker",
          "type": "string"
        },
        {
          "internalType": "string",
          "name": "identity",
          "type": "string"
        },
        {
          "internalType": "string",
          "name": "website",
          "type": "string"
        },
        {
          "internalType": "string",
          "name": "email",
          "type": "string"
        },
        {
          "internalType": "string",
          "name": "details",
          "type": "string"
        }
      ],
      "name": "createOrEditValidator",
      "outputs": [
        {
          "internalType": "bool",
          "name": "",
          "type": "bool"
        }
      ],
      "stateMutability": "nonpayable",
      "type": "function"
    },
    {
      "inputs": [
        {
          "internalType": "uint256",
          "name": "",
          "type": "uint256"
        }
      ],
      "name": "currentValidatorSet",
      "outputs": [
        {
          "internalType": "address",
          "name": "",
          "type": "address"
        }
      ],
      "stateMutability": "view",
      "type": "function"
    },
    {
      "inputs": [],
      "name": "distributeBlockReward",
      "outputs": [],
      "stateMutability": "payable",
      "type": "function"
    },
    {
      "inputs": [],
      "name": "getActiveValidators",
      "outputs": [
        {
          "internalType": "address[]",
          "name": "",
          "type": "address[]"
        }
      ],
      "stateMutability": "view",
      "type": "function"
    },
    {
      "inputs": [
        {
          "internalType": "address",
          "name": "staker",
          "type": "address"
        },
        {
          "internalType": "address",
          "name": "val",
          "type": "address"
        }
      ],
      "name": "getStakingInfo",
      "outputs": [
        {
          "internalType": "uint256",
          "name": "",
          "type": "uint256"
        },
        {
          "internalType": "uint256",
          "name": "",
          "type": "uint256"
        },
        {
          "internalType": "uint256",
          "name": "",
          "type": "uint256"
        }
      ],
      "stateMutability": "view",
      "type": "function"
    },
    {
      "inputs": [],
      "name": "getTopValidators",
      "outputs": [
        {
          "internalType": "address[]",
          "name": "",
          "type": "address[]"
        }
      ],
      "stateMutability": "view",
      "type": "function"
    },
    {
      "inputs": [],
      "name": "getTotalStakeOfActiveValidators",
      "outputs": [
        {
          "internalType": "uint256",
          "name": "total",
          "type": "uint256"
        },
        {
          "internalType": "uint256",
          "name": "len",
          "type": "uint256"
        }
      ],
      "stateMutability": "view",
      "type": "function"
    },
    {
      "inputs": [
        {
          "internalType": "address",
          "name": "val",
          "type": "address"
        }
      ],
      "name": "getValidatorDescription",
      "outputs": [
        {
          "internalType": "string",
          "name": "",
          "type": "string"
        },
        {
          "internalType": "string",
          "name": "",
          "type": "string"
        },
        {
          "internalType": "string",
          "name": "",
          "type": "string"
        },
        {
          "internalType": "string",
          "name": "",
          "type": "string"
        },
        {
          "internalType": "string",
          "name": "",
          "type": "string"
        }
      ],
      "stateMutability": "view",
      "type": "function"
    },
    {
      "inputs": [
        {
          "internalType": "address",
          "name": "val",
          "type": "address"
        }
      ],
      "name": "getValidatorInfo",
      "outputs": [
        {
          "internalType": "address payable",
          "name": "",
          "type": "address"
        },
        {
          "internalType": "enum Validators.Status",
          "name": "",
          "type": "uint8"
        },
        {
          "internalType": "uint256",
          "name": "",
          "type": "uint256"
        },
        {
          "internalType": "uint256",
          "name": "",
          "type": "uint256"
        },
        {
          "internalType": "uint256",
          "name": "",
          "type": "uint256"
        },
        {
          "internalType": "uint256",
          "name": "",
          "type": "uint256"
        },
        {
          "internalType": "address[]",
          "name": "",
          "type": "address[]"
        }
      ],
      "stateMutability": "view",
      "type": "function"
    },
    {
      "inputs": [
        {
          "internalType": "uint256",
          "name": "",
          "type": "uint256"
        }
      ],
      "name": "highestValidatorsSet",
      "outputs": [
        {
          "internalType": "address",
          "name": "",
          "type": "address"
        }
      ],
      "stateMutability": "view",
      "type": "function"
    },
    {
      "inputs": [
        {
          "internalType": "address[]",
          "name": "vals",
          "type": "address[]"
        }
      ],
      "name": "initialize",
      "outputs": [],
      "stateMutability": "nonpayable",
      "type": "function"
    },
    {
      "inputs": [],
      "name": "initialized",
      "outputs": [
        {
          "internalType": "bool",
          "name": "",
          "type": "bool"
        }
      ],
      "stateMutability": "view",
      "type": "function"
    },
    {
      "inputs": [
        {
          "internalType": "address",
          "name": "who",
          "type": "address"
        }
      ],
      "name": "isActiveValidator",
      "outputs": [
        {
          "internalType": "bool",
          "name": "",
          "type": "bool"
        }
      ],
      "stateMutability": "view",
      "type": "function"
    },
    {
      "inputs": [
        {
          "internalType": "address",
          "name": "who",
          "type": "address"
        }
      ],
      "name": "isTopValidator",
      "outputs": [
        {
          "internalType": "bool",
          "name": "",
          "type": "bool"
        }
      ],
      "stateMutability": "view",
      "type": "function"
    },
    {
      "inputs": [
        {
          "internalType": "address",
          "name": "val",
          "type": "address"
        }
      ],
      "name": "removeValidator",
      "outputs": [],
      "stateMutability": "nonpayable",
      "type": "function"
    },
    {
      "inputs": [
        {
          "internalType": "address",
          "name": "val",
          "type": "address"
        }
      ],
      "name": "removeValidatorIncoming",
      "outputs": [],
      "stateMutability": "nonpayable",
      "type": "function"
    },
    {
      "inputs": [
        {
          "internalType": "address",
          "name": "validator",
          "type": "address"
        }
      ],
      "name": "stake",
      "outputs": [
        {
          "internalType": "bool",
          "name": "",
          "type": "bool"
        }
      ],
      "stateMutability": "payable",
      "type": "function"
    },
    {
      "inputs": [],
      "name": "totalJailedHB",
      "outputs": [
        {
          "internalType": "uint256",
          "name": "",
          "type": "uint256"
        }
      ],
      "stateMutability": "view",
      "type": "function"
    },
    {
      "inputs": [],
      "name": "totalStake",
      "outputs": [
        {
          "internalType": "uint256",
          "name": "",
          "type": "uint256"
        }
      ],
      "stateMutability": "view",
      "type": "function"
    },
    {
      "inputs": [
        {
          "internalType": "address",
          "name": "validator",
          "type": "address"
        }
      ],
      "name": "tryReactive",
      "outputs": [
        {
          "internalType": "bool",
          "name": "",
          "type": "bool"
        }
      ],
      "stateMutability": "nonpayable",
      "type": "function"
    },
    {
      "inputs": [
        {
          "internalType": "address",
          "name": "validator",
          "type": "address"
        }
      ],
      "name": "unstake",
      "outputs": [
        {
          "internalType": "bool",
          "name": "",
          "type": "bool"
        }
      ],
      "stateMutability": "nonpayable",
      "type": "function"
    },
    {
      "inputs": [
        {
          "internalType": "address[]",
          "name": "newSet",
          "type": "address[]"
        },
        {
          "internalType": "uint256",
          "name": "epoch",
          "type": "uint256"
        }
      ],
      "name": "updateActiveValidatorSet",
      "outputs": [],
      "stateMutability": "nonpayable",
      "type": "function"
    },
    {
      "inputs": [
        {
          "internalType": "string",
          "name": "moniker",
          "type": "string"
        },
        {
          "internalType": "string",
          "name": "identity",
          "type": "string"
        },
        {
          "internalType": "string",
          "name": "website",
          "type": "string"
        },
        {
          "internalType": "string",
          "name": "email",
          "type": "string"
        },
        {
          "internalType": "string",
          "name": "details",
          "type": "string"
        }
      ],
      "name": "validateDescription",
      "outputs": [
        {
          "internalType": "bool",
          "name": "",
          "type": "bool"
        }
      ],
      "stateMutability": "pure",
      "type": "function"
    },
    {
      "inputs": [
        {
          "internalType": "address",
          "name": "validator",
          "type": "address"
        }
      ],
      "name": "withdrawProfits",
      "outputs": [
        {
          "internalType": "bool",
          "name": "",
          "type": "bool"
        }
      ],
      "stateMutability": "nonpayable",
      "type": "function"
    },
    {
      "inputs": [
        {
          "internalType": "address",
          "name": "validator",
          "type": "address"
        }
      ],
      "name": "withdrawStaking",
      "outputs": [
        {
          "internalType": "bool",
          "name": "",
          "type": "bool"
        }
      ],
      "stateMutability": "nonpayable",
      "type": "function"
    }
  ],
  "bytecode": "0x608060405234801561001057600080fd5b506148ce806100206000396000f3fe6080604052600436106101e25760003560e01c80638a11d7c911610102578063b6c8851911610095578063d6c0edad11610064578063d6c0edad14610e8d578063db78dd2814610e95578063efd8d8e214610ec7578063f2888dbb14610edc576101e2565b8063b6c8851914610b59578063be64569214610e1e578063c253c38414610e33578063c967f90f14610e61576101e2565b8063a224cee7116100d1578063a224cee7146106bb578063a406fcb714610736578063a43569b314610901578063afeea11514610b44576101e2565b80638a11d7c9146105495780638b0e9f3f1461060e57806398e3b626146106235780639de7025814610656576101e2565b806340a141ff1161017a5780636846992a116101495780636846992a146103e35780636969a25c146104935780637f4f95fa146104bd57806382bd3d9214610516576101e2565b806340a141ff1461033c5780634b3d500b146103715780635dd095901461039b5780636233be5d146103ce576101e2565b8063222d3b05116101b6578063222d3b051461029b57806326476204146102ce5780633a061bd3146102f457806340550a1c14610309576101e2565b8062362a77146101e75780631303f7cf1461022e578063158ef93e146102555780631b5e358c1461026a575b600080fd5b3480156101f357600080fd5b5061021a6004803603602081101561020a57600080fd5b50356001600160a01b0316610f0f565b604080519115158252519081900360200190f35b34801561023a57600080fd5b50610243611177565b60408051918252519081900360200190f35b34801561026157600080fd5b5061021a61117d565b34801561027657600080fd5b5061027f611186565b604080516001600160a01b039092168252519081900360200190f35b3480156102a757600080fd5b5061021a600480360360208110156102be57600080fd5b50356001600160a01b031661118c565b61021a600480360360208110156102e457600080fd5b50356001600160a01b03166113b1565b34801561030057600080fd5b5061027f6117c4565b34801561031557600080fd5b5061021a6004803603602081101561032c57600080fd5b50356001600160a01b03166117ca565b34801561034857600080fd5b5061036f6004803603602081101561035f57600080fd5b50356001600160a01b0316611825565b005b34801561037d57600080fd5b5061027f6004803603602081101561039457600080fd5b503561196d565b3480156103a757600080fd5b5061036f600480360360208110156103be57600080fd5b50356001600160a01b0316611994565b3480156103da57600080fd5b5061027f6119ed565b3480156103ef57600080fd5b5061036f6004803603604081101561040657600080fd5b810190602081018135600160201b81111561042057600080fd5b82018360208201111561043257600080fd5b803590602001918460208302840111600160201b8311171561045357600080fd5b91908080602002602001604051908101604052809392919081815260200183836020028082843760009201919091525092955050913592506119f3915050565b34801561049f57600080fd5b5061027f600480360360208110156104b657600080fd5b5035611c3a565b3480156104c957600080fd5b506104f8600480360360408110156104e057600080fd5b506001600160a01b0381358116916020013516611c47565b60408051938452602084019290925282820152519081900360600190f35b34801561052257600080fd5b5061021a6004803603602081101561053957600080fd5b50356001600160a01b0316611c84565b34801561055557600080fd5b5061057c6004803603602081101561056c57600080fd5b50356001600160a01b0316611ee8565b60405180886001600160a01b0316815260200187600481111561059b57fe5b815260200186815260200185815260200184815260200183815260200180602001828103825283818151815260200191508051906020019060200280838360005b838110156105f45781810151838201526020016105dc565b505050509050019850505050505050505060405180910390f35b34801561061a57600080fd5b5061024361232e565b34801561062f57600080fd5b5061021a6004803603602081101561064657600080fd5b50356001600160a01b0316612334565b34801561066257600080fd5b5061066b612386565b60408051602080825283518183015283519192839290830191858101910280838360005b838110156106a757818101518382015260200161068f565b505050509050019250505060405180910390f35b3480156106c757600080fd5b5061036f600480360360208110156106de57600080fd5b810190602081018135600160201b8111156106f857600080fd5b82018360208201111561070a57600080fd5b803590602001918460208302840111600160201b8311171561072b57600080fd5b5090925090506123e8565b34801561074257600080fd5b5061021a600480360360c081101561075957600080fd5b6001600160a01b038235169190810190604081016020820135600160201b81111561078357600080fd5b82018360208201111561079557600080fd5b803590602001918460018302840111600160201b831117156107b657600080fd5b919390929091602081019035600160201b8111156107d357600080fd5b8201836020820111156107e557600080fd5b803590602001918460018302840111600160201b8311171561080657600080fd5b919390929091602081019035600160201b81111561082357600080fd5b82018360208201111561083557600080fd5b803590602001918460018302840111600160201b8311171561085657600080fd5b919390929091602081019035600160201b81111561087357600080fd5b82018360208201111561088557600080fd5b803590602001918460018302840111600160201b831117156108a657600080fd5b919390929091602081019035600160201b8111156108c357600080fd5b8201836020820111156108d557600080fd5b803590602001918460018302840111600160201b831117156108f657600080fd5b509092509050612749565b34801561090d57600080fd5b506109346004803603602081101561092457600080fd5b50356001600160a01b0316612d55565b60405180806020018060200180602001806020018060200186810386528b818151815260200191508051906020019080838360005b83811015610981578181015183820152602001610969565b50505050905090810190601f1680156109ae5780820380516001836020036101000a031916815260200191505b5086810385528a5181528a516020918201918c019080838360005b838110156109e15781810151838201526020016109c9565b50505050905090810190601f168015610a0e5780820380516001836020036101000a031916815260200191505b5086810384528951815289516020918201918b019080838360005b83811015610a41578181015183820152602001610a29565b50505050905090810190601f168015610a6e5780820380516001836020036101000a031916815260200191505b5086810383528851815288516020918201918a019080838360005b83811015610aa1578181015183820152602001610a89565b50505050905090810190601f168015610ace5780820380516001836020036101000a031916815260200191505b50868103825287518152875160209182019189019080838360005b83811015610b01578181015183820152602001610ae9565b50505050905090810190601f168015610b2e5780820380516001836020036101000a031916815260200191505b509a505050505050505050505060405180910390f35b348015610b5057600080fd5b5061066b613189565b348015610b6557600080fd5b5061021a600480360360a0811015610b7c57600080fd5b810190602081018135600160201b811115610b9657600080fd5b820183602082011115610ba857600080fd5b803590602001918460018302840111600160201b83111715610bc957600080fd5b91908080601f0160208091040260200160405190810160405280939291908181526020018383808284376000920191909152509295949360208101935035915050600160201b811115610c1b57600080fd5b820183602082011115610c2d57600080fd5b803590602001918460018302840111600160201b83111715610c4e57600080fd5b91908080601f0160208091040260200160405190810160405280939291908181526020018383808284376000920191909152509295949360208101935035915050600160201b811115610ca057600080fd5b820183602082011115610cb257600080fd5b803590602001918460018302840111600160201b83111715610cd357600080fd5b91908080601f0160208091040260200160405190810160405280939291908181526020018383808284376000920191909152509295949360208101935035915050600160201b811115610d2557600080fd5b820183602082011115610d3757600080fd5b803590602001918460018302840111600160201b83111715610d5857600080fd5b91908080601f0160208091040260200160405190810160405280939291908181526020018383808284376000920191909152509295949360208101935035915050600160201b811115610daa57600080fd5b820183602082011115610dbc57600080fd5b803590602001918460018302840111600160201b83111715610ddd57600080fd5b91908080601f0160208091040260200160405190810160405280939291908181526020018383808284376000920191909152509295506131e9945050505050565b348015610e2a57600080fd5b5061024361338e565b348015610e3f57600080fd5b50610e4861339b565b6040805192835260208301919091528051918290030190f35b348015610e6d57600080fd5b50610e766133b0565b6040805161ffff9092168252519081900360200190f35b61036f6133b5565b348015610ea157600080fd5b50610eaa613555565b6040805167ffffffffffffffff9092168252519081900360200190f35b348015610ed357600080fd5b50610eaa61355c565b348015610ee857600080fd5b5061021a60048036036020811015610eff57600080fd5b50356001600160a01b0316613562565b600033816001600160a01b038416600090815260016020526040902054600160a01b900460ff166004811115610f4157fe5b1415610f8a576040805162461bcd60e51b815260206004820152601360248201527215985b1a59185d1bdc881b9bdd08195e1a5cdd606a1b604482015290519081900360640190fd5b6001600160a01b03838116600090815260016020526040902054811690821614610fe55760405162461bcd60e51b815260040180806020018281038252602e81526020018061486b602e913960400191505060405180910390fd5b6001600160a01b0383166000908152600160205260409020600901544361708090910111156110455760405162461bcd60e51b815260040180806020018281038252605c8152602001806146de605c913960600191505060405180910390fd5b6001600160a01b038316600090815260016020526040902060070154806110b3576040805162461bcd60e51b815260206004820152601a60248201527f596f7520646f6e2774206861766520616e792070726f66697473000000000000604482015290519081900360640190fd5b6001600160a01b03841660009081526001602052604081206007810191909155436009909101558015611118576040516001600160a01b0383169082156108fc029083906000818181858888f19350505050158015611116573d6000803e3d6000fd5b505b816001600160a01b0316846001600160a01b03167f51a69b4502f660774c9339825c7b5adbf0b8622289134647e29728ec5d9b3bb98342604051808381526020018281526020019250505060405180910390a36001925050505b919050565b60065481565b60005460ff1681565b61f00181565b3360008181526002602090815260408083206001600160a01b0386168452825280832060019092528220549192918390600160a01b900460ff1660048111156111d157fe5b141561121a576040805162461bcd60e51b81526020600482015260136024820152721d985b1a59185d1bdc881b9bdd08195e1a5cdd606a1b604482015290519081900360640190fd5b6001810154611270576040805162461bcd60e51b815260206004820152601960248201527f596f75206861766520746f20756e7374616b6520666972737400000000000000604482015290519081900360640190fd5b436201518067ffffffffffffffff1682600101540111156112c25760405162461bcd60e51b815260040180806020018281038252602181526020018061473a6021913960400191505060405180910390fd5b8054611310576040805162461bcd60e51b8152602060048201526018602482015277596f7520646f6e2774206861766520616e79207374616b6560401b604482015290519081900360640190fd5b80546000808355600183018190556040516001600160a01b0385169183156108fc02918491818181858888f19350505050158015611352573d6000803e3d6000fd5b50846001600160a01b0316836001600160a01b03167fa70cd94070cd852339a76b32cf2d95a3c8f2a322269163d276071c1c149556198342604051808381526020018281526020019250505060405180910390a3506001949350505050565b6000805460ff166113f8576040805162461bcd60e51b815260206004820152600c60248201526b139bdd081a5b9a5d081e595d60a21b604482015290519081900360640190fd5b333460016001600160a01b038516600090815260016020526040902054600160a01b900460ff16600481111561142a57fe5b1480611463575060026001600160a01b038516600090815260016020526040902054600160a01b900460ff16600481111561146157fe5b145b61149e5760405162461bcd60e51b815260040180806020018281038252602d8152602001806147c2602d913960400191505060405180910390fd5b6007546040805163416259d960e11b81526001600160a01b038781166004830152915191909216916382c4b3b2916024808301926020929190829003018186803b1580156114eb57600080fd5b505afa1580156114ff573d6000803e3d6000fd5b505050506040513d602081101561151557600080fd5b50516115525760405162461bcd60e51b81526004018080602001828103825260388152602001806148106038913960400191505060405180910390fd5b6001600160a01b03808316600090815260026020908152604080832093881683529290522060010154156115b75760405162461bcd60e51b81526004018080602001828103825260228152602001806147a06022913960400191505060405180910390fd5b6001600160a01b0384166000908152600160208190526040909120908101546801bc16d674ec800000906115eb90846139a8565b101561163e576040805162461bcd60e51b815260206004820152601860248201527f5374616b696e6720636f696e73206e6f7420656e6f7567680000000000000000604482015290519081900360640190fd5b6001600160a01b038084166000908152600260209081526040808320938916835292905220546116b757600a810180546001600160a01b038086166000818152600260208181526040808420958d1684529481529382200184905560018401855593845292200180546001600160a01b03191690911790555b60018101546116c690836139a8565b600182015560028154600160a01b900460ff1660048111156116e457fe5b146116fb57805460ff60a01b1916600160a11b1781555b611709858260010154613a0b565b6001600160a01b0380841660009081526002602090815260408083209389168352929052205461173990836139a8565b6001600160a01b038085166000908152600260209081526040808320938a168352929052205560055461176c90836139a8565b6005556040805183815242602082015281516001600160a01b0380891693908716927fb9ba725934532316cffe10975da6eb25ad49c2d1c294d982c46c9f8d684ee075929081900390910190a3506001949350505050565b61f00081565b6000805b60035481101561181c57826001600160a01b0316600382815481106117ef57fe5b6000918252602090912001546001600160a01b03161415611814576001915050611172565b6001016117ce565b50600092915050565b3361f00114611872576040805162461bcd60e51b815260206004820152601460248201527350756e69736820636f6e7472616374206f6e6c7960601b604482015290519081900360640190fd5b6001600160a01b03811660009081526001602052604090206007015461189782613ca5565b60045460011015611969576118ab82613dbd565b600754604080516315ea278160e01b81526001600160a01b038581166004830152915191909216916315ea27819160248083019260209291908290030181600087803b1580156118fa57600080fd5b505af115801561190e573d6000803e3d6000fd5b505050506040513d602081101561192457600080fd5b50506040805182815242602082015281516001600160a01b038516927fa26de7ab324eac08c596549f421e5c8741213d237d2e9a2c9c0ebde0a7a849fe928290030190a25b5050565b6004818154811061197a57fe5b6000918252602090912001546001600160a01b0316905081565b3361f001146119e1576040805162461bcd60e51b815260206004820152601460248201527350756e69736820636f6e7472616374206f6e6c7960601b604482015290519081900360640190fd5b6119ea81613ca5565b50565b61f00281565b334114611a34576040805162461bcd60e51b815260206004820152600a6024820152694d696e6572206f6e6c7960b01b604482015290519081900360640190fd5b4360009081526009602090815260408083206001845290915290205460ff1615611aa5576040805162461bcd60e51b815260206004820152601a60248201527f56616c696461746f727320616c72656164792075706461746564000000000000604482015290519081900360640190fd5b60005460ff16611aeb576040805162461bcd60e51b815260206004820152600c60248201526b139bdd081a5b9a5d081e595d60a21b604482015290519081900360640190fd5b80804381611af557fe5b0615611b3b576040805162461bcd60e51b815260206004820152601060248201526f426c6f636b2065706f6368206f6e6c7960801b604482015290519081900360640190fd5b43600090815260096020908152604080832060018085529252909120805460ff191690911790558251611bac576040805162461bcd60e51b815260206004820152601460248201527356616c696461746f722073657420656d7074792160601b604482015290519081900360640190fd5b8251611bbf90600390602086019061454f565b507feacea8f3c22f06c0b18306bdb04d0a967255129e8ce0094debb0a0ff89d006b5836040518080602001828103825283818151815260200191508051906020019060200280838360005b83811015611c22578181015183820152602001611c0a565b505050509050019250505060405180910390a1505050565b6003818154811061197a57fe5b6001600160a01b03918216600090815260026020818152604080842094909516835292909252919091208054600182015491909201549192909190565b60003361f00214611cd5576040805162461bcd60e51b815260206004820152601660248201527550726f706f73616c20636f6e7472616374206f6e6c7960501b604482015290519081900360640190fd5b60005460ff16611d1b576040805162461bcd60e51b815260206004820152600c60248201526b139bdd081a5b9a5d081e595d60a21b604482015290519081900360640190fd5b60036001600160a01b038316600090815260016020526040902054600160a01b900460ff166004811115611d4b57fe5b14158015611d87575060046001600160a01b038316600090815260016020526040902054600160a01b900460ff166004811115611d8457fe5b14155b15611d9457506001611172565b60046001600160a01b038316600090815260016020526040902054600160a01b900460ff166004811115611dc457fe5b1415611e8557600854604080516363e1d45160e01b81526001600160a01b038581166004830152915191909216916363e1d4519160248083019260209291908290030181600087803b158015611e1957600080fd5b505af1158015611e2d573d6000803e3d6000fd5b505050506040513d6020811015611e4357600080fd5b5051611e85576040805162461bcd60e51b815260206004820152600c60248201526b18db19585b8819985a5b195960a21b604482015290519081900360640190fd5b6001600160a01b038216600081815260016020908152604091829020805460ff60a01b1916600160a01b179055815142815291517fd8b2c426ec1be69ca7583d26b1e893946e3227430d3ebc3bd64d9e1c469cb4009281900390910190a2919050565b6000806000806000806060611efb6145b4565b6001600160a01b038981166000908152600160209081526040918290208251610100810190935280549384168352919290830190600160a01b900460ff166004811115611f4457fe5b6004811115611f4f57fe5b815260200160018201548152602001600282016040518060a0016040529081600082018054600181600116156101000203166002900480601f0160208091040260200160405190810160405280929190818152602001828054600181600116156101000203166002900480156120065780601f10611fdb57610100808354040283529160200191612006565b820191906000526020600020905b815481529060010190602001808311611fe957829003601f168201915b50505050508152602001600182018054600181600116156101000203166002900480601f0160208091040260200160405190810160405280929190818152602001828054600181600116156101000203166002900480156120a85780601f1061207d576101008083540402835291602001916120a8565b820191906000526020600020905b81548152906001019060200180831161208b57829003601f168201915b5050509183525050600282810180546040805160206001841615610100026000190190931694909404601f8101839004830285018301909152808452938101939083018282801561213a5780601f1061210f5761010080835404028352916020019161213a565b820191906000526020600020905b81548152906001019060200180831161211d57829003601f168201915b505050918352505060038201805460408051602060026001851615610100026000190190941693909304601f81018490048402820184019092528181529382019392918301828280156121ce5780601f106121a3576101008083540402835291602001916121ce565b820191906000526020600020905b8154815290600101906020018083116121b157829003601f168201915b505050918352505060048201805460408051602060026001851615610100026000190190941693909304601f81018490048402820184019092528181529382019392918301828280156122625780601f1061223757610100808354040283529160200191612262565b820191906000526020600020905b81548152906001019060200180831161224557829003601f168201915b5050505050815250508152602001600782015481526020016008820154815260200160098201548152602001600a82018054806020026020016040519081016040528092919081815260200182805480156122e657602002820191906000526020600020905b81546001600160a01b031681526001909101906020018083116122c8575b505050505081525050905080600001518160200151826040015183608001518460a001518560c001518660e00151975097509750975097509750975050919395979092949650565b60055481565b6000805b60045481101561181c57826001600160a01b03166004828154811061235957fe5b6000918252602090912001546001600160a01b0316141561237e576001915050611172565b600101612338565b606060038054806020026020016040519081016040528092919081815260200182805480156123de57602002820191906000526020600020905b81546001600160a01b031681526001909101906020018083116123c0575b5050505050905090565b60005460ff1615612436576040805162461bcd60e51b8152602060048201526013602482015272105b1c9958591e481a5b9a5d1a585b1a5e9959606a1b604482015290519081900360640190fd5b600780546001600160a01b031990811661f002179091556008805490911661f00117905560005b8181101561273757600083838381811061247357fe5b905060200201356001600160a01b03166001600160a01b031614156124df576040805162461bcd60e51b815260206004820152601960248201527f496e76616c69642076616c696461746f72206164647265737300000000000000604482015290519081900360640190fd5b6125038383838181106124ee57fe5b905060200201356001600160a01b03166117ca565b61255257600383838381811061251557fe5b835460018101855560009485526020948590200180546001600160a01b0319166001600160a01b0395909202939093013593909316929092179055505b61257683838381811061256157fe5b905060200201356001600160a01b0316612334565b6125c557600483838381811061258857fe5b835460018101855560009485526020948590200180546001600160a01b0319166001600160a01b0395909202939093013593909316929092179055505b60006001818585858181106125d657fe5b6001600160a01b036020918202939093013583168452830193909352604090910160002054169190911415905061268b5782828281811061261357fe5b905060200201356001600160a01b03166001600085858581811061263357fe5b905060200201356001600160a01b03166001600160a01b03166001600160a01b0316815260200190815260200160002060000160006101000a8154816001600160a01b0302191690836001600160a01b031602179055505b60006001600085858581811061269d57fe5b602090810292909201356001600160a01b031683525081019190915260400160002054600160a01b900460ff1660048111156126d557fe5b141561272f576002600160008585858181106126ed57fe5b602090810292909201356001600160a01b0316835250810191909152604001600020805460ff60a01b1916600160a01b83600481111561272957fe5b02179055505b60010161245d565b50506000805460ff1916600117905550565b6000805460ff16612790576040805162461bcd60e51b815260206004820152600c60248201526b139bdd081a5b9a5d081e595d60a21b604482015290519081900360640190fd5b6001600160a01b038c166127e1576040805162461bcd60e51b8152602060048201526013602482015272496e76616c696420666565206164647265737360681b604482015290519081900360640190fd5b6128f08b8b8080601f01602080910402602001604051908101604052809392919081815260200183838082843760009201919091525050604080516020601f8f018190048102820181019092528d815292508d91508c908190840183828082843760009201919091525050604080516020601f8e018190048102820181019092528c815292508c91508b908190840183828082843760009201919091525050604080516020601f8d018190048102820181019092528b815292508b91508a908190840183828082843760009201919091525050604080516020601f8c018190048102820181019092528a815292508a91508990819084018382808284376000920191909152506131e992505050565b612937576040805162461bcd60e51b815260206004820152601360248201527224b73b30b634b2103232b9b1b934b83a34b7b760691b604482015290519081900360640190fd5b336000818152600160205260408120548190600160a01b900460ff16600481111561295e57fe5b1415612a5c576007546040805163416259d960e11b81526001600160a01b038581166004830152915191909216916382c4b3b2916024808301926020929190829003018186803b1580156129b157600080fd5b505afa1580156129c5573d6000803e3d6000fd5b505050506040513d60208110156129db57600080fd5b5051612a2e576040805162461bcd60e51b815260206004820152601c60248201527f596f75206d75737420626520617574686f72697a656420666972737400000000604482015290519081900360640190fd5b506001600160a01b0381166000908152600160208190526040909120805460ff60a01b1916600160a01b1790555b6001600160a01b038281166000908152600160205260409020548116908f1614612ace578d60016000846001600160a01b03166001600160a01b0316815260200190815260200160002060000160006101000a8154816001600160a01b0302191690836001600160a01b031602179055505b6040518060a001604052808e8e8080601f016020809104026020016040519081016040528093929190818152602001838380828437600092019190915250505090825250604080516020601f8f018190048102820181019092528d815291810191908e908e9081908401838280828437600092019190915250505090825250604080516020601f8d018190048102820181019092528b815291810191908c908c9081908401838280828437600092019190915250505090825250604080516020601f8b0181900481028201810190925289815291810191908a908a9081908401838280828437600092019190915250505090825250604080516020601f89018190048102820181019092528781529181019190889088908190840183828082843760009201829052509390945250506001600160a01b03851681526001602090815260409091208351805160029092019350612c2e928492910190614600565b506020828101518051612c479260018501920190614600565b5060408201518051612c63916002840191602090910190614600565b5060608201518051612c7f916003840191602090910190614600565b5060808201518051612c9b916004840191602090910190614600565b509050508015612cf5578d6001600160a01b0316826001600160a01b03167f887eec9d757b7247dd8e51198f9d1b8f27979bceb34bdcc1bffd4ec5ec736c22426040518082815260200191505060405180910390a3612d41565b8d6001600160a01b0316826001600160a01b03167fb8421f65501371f54d58de1937ff1e1ccdb76423ef6f84acea1814a0f6362ca0426040518082815260200191505060405180910390a35b5060019d9c50505050505050505050505050565b6060806060806060612d656145b4565b6001600160a01b038781166000908152600160209081526040918290208251610100810190935280549384168352919290830190600160a01b900460ff166004811115612dae57fe5b6004811115612db957fe5b815260200160018201548152602001600282016040518060a0016040529081600082018054600181600116156101000203166002900480601f016020809104026020016040519081016040528092919081815260200182805460018160011615610100020316600290048015612e705780601f10612e4557610100808354040283529160200191612e70565b820191906000526020600020905b815481529060010190602001808311612e5357829003601f168201915b50505050508152602001600182018054600181600116156101000203166002900480601f016020809104026020016040519081016040528092919081815260200182805460018160011615610100020316600290048015612f125780601f10612ee757610100808354040283529160200191612f12565b820191906000526020600020905b815481529060010190602001808311612ef557829003601f168201915b5050509183525050600282810180546040805160206001841615610100026000190190931694909404601f81018390048302850183019091528084529381019390830182828015612fa45780601f10612f7957610100808354040283529160200191612fa4565b820191906000526020600020905b815481529060010190602001808311612f8757829003601f168201915b505050918352505060038201805460408051602060026001851615610100026000190190941693909304601f81018490048402820184019092528181529382019392918301828280156130385780601f1061300d57610100808354040283529160200191613038565b820191906000526020600020905b81548152906001019060200180831161301b57829003601f168201915b505050918352505060048201805460408051602060026001851615610100026000190190941693909304601f81018490048402820184019092528181529382019392918301828280156130cc5780601f106130a1576101008083540402835291602001916130cc565b820191906000526020600020905b8154815290600101906020018083116130af57829003601f168201915b5050505050815250508152602001600782015481526020016008820154815260200160098201548152602001600a820180548060200260200160405190810160405280929190818152602001828054801561315057602002820191906000526020600020905b81546001600160a01b03168152600190910190602001808311613132575b5050509190925250505060609081015180516020820151604083015193830151608090930151919b909a50929850909650945092505050565b606060048054806020026020016040519081016040528092919081815260200182805480156123de576020028201919060005260206000209081546001600160a01b031681526001909101906020018083116123c0575050505050905090565b600060468651111561323b576040805162461bcd60e51b8152602060048201526016602482015275092dcecc2d8d2c840dadedcd2d6cae440d8cadccee8d60531b604482015290519081900360640190fd5b610bb885511115613293576040805162461bcd60e51b815260206004820152601760248201527f496e76616c6964206964656e74697479206c656e677468000000000000000000604482015290519081900360640190fd5b608c845111156132e3576040805162461bcd60e51b8152602060048201526016602482015275092dcecc2d8d2c840eecac4e6d2e8ca40d8cadccee8d60531b604482015290519081900360640190fd5b608c83511115613331576040805162461bcd60e51b8152602060048201526014602482015273092dcecc2d8d2c840cadac2d2d840d8cadccee8d60631b604482015290519081900360640190fd5b61011882511115613382576040805162461bcd60e51b8152602060048201526016602482015275092dcecc2d8d2c840c8cae8c2d2d8e640d8cadccee8d60531b604482015290519081900360640190fd5b50600195945050505050565b6801bc16d674ec80000081565b6000806133a86000613e2a565b915091509091565b601581565b3341146133f6576040805162461bcd60e51b815260206004820152600a6024820152694d696e6572206f6e6c7960b01b604482015290519081900360640190fd5b43600090815260096020908152604080832083805290915290205460ff1615613466576040805162461bcd60e51b815260206004820152601960248201527f426c6f636b20697320616c726561647920726577617264656400000000000000604482015290519081900360640190fd5b60005460ff166134ac576040805162461bcd60e51b815260206004820152600c60248201526b139bdd081a5b9a5d081e595d60a21b604482015290519081900360640190fd5b4360009081526009602090815260408083208380528252808320805460ff1916600190811790915533808552925282205490913491600160a01b900460ff1660048111156134f657fe5b1415613503575050613553565b61350e816000613f19565b6040805182815242602082015281516001600160a01b038516927f7dc4e5df59513708dca355b8706273a5df7b810a4cec8019f2a4b9bb166a1a04928290030190a250505b565b6201518081565b61708081565b6000805460ff166135a9576040805162461bcd60e51b815260206004820152600c60248201526b139bdd081a5b9a5d081e595d60a21b604482015290519081900360640190fd5b3360006001600160a01b038416600090815260016020526040902054600160a01b900460ff1660048111156135da57fe5b1415613623576040805162461bcd60e51b815260206004820152601360248201527215985b1a59185d1bdc881b9bdd08195e1a5cdd606a1b604482015290519081900360640190fd5b6001600160a01b038082166000908152600260209081526040808320938716835292815282822060019182905292909120825491830154909190156136995760405162461bcd60e51b81526004018080602001828103825260238152602001806148486023913960400191505060405180910390fd5b600081116136e9576040805162461bcd60e51b8152602060048201526018602482015277596f7520646f6e2774206861766520616e79207374616b6560401b604482015290519081900360640190fd5b60045460011480156136ff57506136ff86612334565b8015613722575060018201546801bc16d674ec800000906137209083614240565b105b1561375e5760405162461bcd60e51b815260040180806020018281038252604581526020018061475b6045913960600191505060405180910390fd5b600a82015460028401546000199091011461383b57600a82018054600019810190811061378757fe5b9060005260206000200160009054906101000a90046001600160a01b031682600a018460020154815481106137b857fe5b9060005260206000200160006101000a8154816001600160a01b0302191690836001600160a01b0316021790555082600201546002600084600a0186600201548154811061380257fe5b60009182526020808320909101546001600160a01b0390811684528382019490945260409283018220938b168252929092529020600201555b81600a0180548061384857fe5b600082815260209020810160001990810180546001600160a01b031916905501905560018201546138799082614240565b60018084019190915543908401556000600284015560055461389b9082614240565b60055560018201546801bc16d674ec800000111561394957815460ff60a01b1916600360a01b1782556138cd86614282565b600754604080516315ea278160e01b81526001600160a01b038981166004830152915191909216916315ea27819160248083019260209291908290030181600087803b15801561391c57600080fd5b505af1158015613930573d6000803e3d6000fd5b505050506040513d602081101561394657600080fd5b50505b856001600160a01b0316846001600160a01b03167f449002ae18e748d69a55f38514400d64f966492e593e32d6e9b8b24db98a0bc18342604051808381526020018281526020019250505060405180910390a350600195945050505050565b600082820183811015613a02576040805162461bcd60e51b815260206004820152601b60248201527f536166654d6174683a206164646974696f6e206f766572666c6f770000000000604482015290519081900360640190fd5b90505b92915050565b60005b600454811015613a5857826001600160a01b031660048281548110613a2f57fe5b6000918252602090912001546001600160a01b03161415613a505750611969565b600101613a0e565b5060045460151115613aeb57600480546001810182556000919091527f8a35acfbc15ff81a39ae7d344fd709f28e8600b4aa8c65c6b64bfe7fe36bd19b0180546001600160a01b0384166001600160a01b031990911681179091556040805142815290517f1e3310ad6891b30e03874ec3d1422a6386c5da63d9faf595f5d99eeaf443b99a9181900360200190a2611969565b6000600160006004600081548110613aff57fe5b60009182526020808320909101546001600160a01b03168352820192909252604001812060019081015492505b600454811015613bbd57826001600060048481548110613b4857fe5b60009182526020808320909101546001600160a01b031683528201929092526040019020600101541015613bb5576001600060048381548110613b8757fe5b60009182526020808320909101546001600160a01b0316835282019290925260400190206001015492509050805b600101613b2c565b50818311613bcc575050611969565b6040805142815290516001600160a01b038616917f1e3310ad6891b30e03874ec3d1422a6386c5da63d9faf595f5d99eeaf443b99a919081900360200190a260048181548110613c1857fe5b600091825260209182902001546040805142815290516001600160a01b03909216927f7521e44559c870c316e84e60bc4785d9c034a8ab1d6acdce8134ac03f946c6ed92918290030190a28360048281548110613c7157fe5b9060005260206000200160006101000a8154816001600160a01b0302191690836001600160a01b0316021790555050505050565b60006001600160a01b038216600090815260016020526040902054600160a01b900460ff166004811115613cd557fe5b1480613ce45750600354600110155b15613cee576119ea565b6001600160a01b0381166000908152600160205260409020600701548015613d7757613d1a8183613f19565b600654613d2790826139a8565b6006556001600160a01b038216600090815260016020526040902060080154613d5090826139a8565b6001600160a01b038316600090815260016020526040812060088101929092556007909101555b6040805182815242602082015281516001600160a01b038516927fe294e9d73f8eee23e21b2e1567960625a6b5d339cb127b55d0d09473a9951235928290030190a25050565b60006001600160a01b038216600090815260016020526040902054600160a01b900460ff166004811115613ded57fe5b1415613df8576119ea565b6001600160a01b0381166000908152600160205260409020805460ff60a01b1916600160a21b1790556119ea81614282565b60008060005b600354811015613f135760046001600060038481548110613e4d57fe5b60009182526020808320909101546001600160a01b0316835282019290925260400190205460ff600160a01b909104166004811115613e8857fe5b14158015613eba575060038181548110613e9e57fe5b6000918252602090912001546001600160a01b03858116911614155b15613f0b57613f026001600060038481548110613ed357fe5b60009182526020808320909101546001600160a01b0316835282019290925260400190206001015484906139a8565b92506001909101905b600101613e30565b50915091565b81613f2357611969565b600080613f2f83613e2a565b909250905080613f40575050611969565b600080836140ae576000613f5487856143b8565b9050613f6a613f6382866143fa565b8890614240565b925060005b60035481101561404357600060038281548110613f8857fe5b6000918252602090912001546001600160a01b0316905060046001600160a01b038216600090815260016020526040902054600160a01b900460ff166004811115613fcf57fe5b14158015613fef5750876001600160a01b0316816001600160a01b031614155b1561403a576001600160a01b03811660009081526001602052604090206007015461401a90846139a8565b6001600160a01b0382166000908152600160205260409020600701559250825b50600101613f6f565b5060008311801561405c57506001600160a01b03821615155b156140a4576001600160a01b03821660009081526001602052604090206007015461408790846139a8565b6001600160a01b0383166000908152600160205260409020600701555b5050505050611969565b6000805b6003548110156141ca576000600382815481106140cb57fe5b6000918252602090912001546001600160a01b0316905060046001600160a01b038216600090815260016020526040902054600160a01b900460ff16600481111561411257fe5b141580156141325750876001600160a01b0316816001600160a01b031614155b156141c1576001600160a01b03811660009081526001602081905260408220015461416a908990614164908d906143fa565b906143b8565b905061417684826139a8565b6001600160a01b038316600090815260016020526040902060070154929550935084916141a390826139a8565b6001600160a01b038316600090815260016020526040902060070155505b506001016140b2565b506141d58782614240565b92506000831180156141ef57506001600160a01b03821615155b15614237576001600160a01b03821660009081526001602052604090206007015461421a90846139a8565b6001600160a01b0383166000908152600160205260409020600701555b50505050505050565b6000613a0283836040518060400160405280601e81526020017f536166654d6174683a207375627472616374696f6e206f766572666c6f770000815250614453565b60005b6004548110801561429857506004546001105b1561196957600481815481106142aa57fe5b6000918252602090912001546001600160a01b03838116911614156143b05760045460001901811461433d576004805460001981019081106142e857fe5b600091825260209091200154600480546001600160a01b03909216918390811061430e57fe5b9060005260206000200160006101000a8154816001600160a01b0302191690836001600160a01b031602179055505b600480548061434857fe5b6000828152602090819020820160001990810180546001600160a01b03191690559091019091556040805142815290516001600160a01b038516927f7521e44559c870c316e84e60bc4785d9c034a8ab1d6acdce8134ac03f946c6ed928290030190a2611969565b600101614285565b6000613a0283836040518060400160405280601a81526020017f536166654d6174683a206469766973696f6e206279207a65726f0000000000008152506144ea565b60008261440957506000613a05565b8282028284828161441657fe5b0414613a025760405162461bcd60e51b81526004018080602001828103825260218152602001806147ef6021913960400191505060405180910390fd5b600081848411156144e25760405162461bcd60e51b81526004018080602001828103825283818151815260200191508051906020019080838360005b838110156144a757818101518382015260200161448f565b50505050905090810190601f1680156144d45780820380516001836020036101000a031916815260200191505b509250505060405180910390fd5b505050900390565b600081836145395760405162461bcd60e51b81526020600482018181528351602484015283519092839260449091019190850190808383600083156144a757818101518382015260200161448f565b50600083858161454557fe5b0495945050505050565b8280548282559060005260206000209081019282156145a4579160200282015b828111156145a457825182546001600160a01b0319166001600160a01b0390911617825560209092019160019091019061456f565b506145b092915061467a565b5090565b604080516101008101909152600080825260208201908152602001600081526020016145de614699565b8152602001600081526020016000815260200160008152602001606081525090565b828054600181600116156101000203166002900490600052602060002090601f016020900481019282601f1061464157805160ff191683800117855561466e565b8280016001018555821561466e579182015b8281111561466e578251825591602001919060010190614653565b506145b09291506146c8565b5b808211156145b05780546001600160a01b031916815560010161467b565b6040518060a0016040528060608152602001606081526020016060815260200160608152602001606081525090565b5b808211156145b057600081556001016146c956fe596f75206d757374207761697420656e6f75676820626c6f636b7320746f20776974686472617720796f75722070726f66697473206166746572206c6174657374207769746864726177206f6620746869732076616c696461746f72596f7572207374616b696e6720686176656e277420756e6c6f636b656420796574596f752063616e277420756e7374616b652c2076616c696461746f72206c6973742077696c6c20626520656d7074792061667465722074686973206f7065726174696f6e2143616e2774207374616b65207768656e20796f752061726520756e7374616b696e6743616e2774207374616b6520746f20612076616c696461746f7220696e2061626e6f726d616c20737461747573536166654d6174683a206d756c7469706c69636174696f6e206f766572666c6f775468652076616c696461746f7220796f752077616e7420746f207374616b65206d75737420626520617574686f72697a6564206669727374596f752061726520616c726561647920696e20756e7374616b696e6720737461747573596f7520617265206e6f742074686520666565207265636569766572206f6620746869732076616c696461746f72a2646970667358221220ab80df14cfe7f0e4d3e2feb8cedcdb7cf49a9b1eec9fe9c176019b30fe7bfdfa64736f6c634300060c0033",
  "linkReferences": {},
  "deployedLinkReferences": {}
}